:100000000C9468010C9455160C942E160C94FB0E4F
:100010000C94FB0E0C94FB0E0C9490010C9490012C
:100020000C9490010C9490010C9490010C9490010C
:100030000C9490010C9490010C94840C0C949001FD
:100040000C94E4150C9490010C9457140C943114F6
:100050000C9490010C9490010C9490010C949001DC
:100060000C9490010C94900141542B434D47463D14
:1000700031002B434D47523A0041542B434D4752D8
:100080003D0041542B434D47523D0041542B4353B7
:1000900044483D310041542B434D47463D31002BF0
:1000A000434D47523A0041542B434D47523D004186
:1000B000542B434D47523D0041542B435344483D3C
:1000C000310041542B434D47463D31005265706C21
:1000D000792073656E7420737563636573736675D9
:1000E0006C6C792E005265706C792073656E74208B
:1000F0007375636365737366756C6C792E000000AD
:1001000000002300260029003E20003E200041542C
:100110002B434D47463D3100093C2D2D2D20000934
:100120002D2D2D3E200053494D3830304800093CDC
:100130002D2D2D2000092D2D2D3E200053494D43FE
:100140004F4D5F53494D35333230450053494D4390
:100150004F4D5F53494D35333230410053494D388F
:100160003030205231330053494D3830382052312D
:10017000330053494D3830382052313400093C2D7A
:100180002D2D2000092D2D2D3E200041542B4356AE
:1001900048553D3000415445300041544530004100
:1001A000540041540041540054696D656F75743AB0
:1001B000204E6F20726573706F6E736520746F20B0
:1001C00041542E2E2E206C61737420646974636810
:1001D00020617474656D70742E00415400415400A8
:1001E000415400417474656D7074696E6720746F5A
:1001F000206F70656E20636F6D6D20776974682065
:1002000041547300436F756C646E27742066696E89
:100210006420464F4E4100093C2D2D2D2000092D14
:100220002D2D3E20004F4B00464F4E4100464F4E75
:10023000416E65740000000000240027002A0000C1
:10024000000000250028002B00040404040404041A
:100250000402020202020203030303030301020475
:100260000810204080010204081020010204081038
:100270002000000008000201000003040700000045
:1002800000000000006364696E6F70737578585BDE
:10029000004E414E494E495459494E46CDCCCC3D75
:1002A0000AD7233C17B7D13877CC2B329595E62463
:1002B0001FB14F0A000020410000C84200401C4608
:1002C00020BCBE4CCA1B0E5AAEC59D741317E51751
:1002D00011241FBECFEFD8E0DEBFCDBF13E0A0E0FA
:1002E000B1E0EEEDF7E402C005900D92A833B1073E
:1002F000D9F727E0A8E3B3E001C01D92AB30B20705
:10030000E1F711E0C7E6D1E004C02197FE010E94A9
:100310004E18C636D107C9F70E947C160C94E2230A
:100320000C9400002F923F924F925F926F927F92B7
:100330008F929F92AF92BF92CF92DF92EF92FF92F5
:100340000F931F93CF93DF93CDB7DEB7C456D14041
:100350000FB6F894DEBF0FBECDBF86E0E8E0F1E057
:10036000DE01A353BF4F01900D928A95E1F7EDECAA
:10037000F0E0EC0FFD1F36968AE3DF011D928A95AF
:10038000E9F70091020110910301D801ED91FC9170
:100390000480F581E02DC8010995892B09F44FC02F
:1003A0007E01B7EAEB1ABEEFFB0AF7011182108259
:1003B0006E01FDE8CF0ED11C46012FE3820E911C89
:1003C0007C2C6D2C5601D801ED91FC910680F781B3
:1003D000E02DC8010995F60181936F01682F8EE722
:1003E00093E00E94621061E070E080E090E00E9483
:1003F000AA15D5018C918A3069F0D801ED91FC9154
:100400000480F581E02DC8010995892B19F0C814E5
:10041000D904C1F6F5011182FF92EF928AE992E0C8
:100420009F938F936F927F920E948A1A0F900F90E2
:100430000F900F900F900F90019709F472C7C15A57
:10044000DE4F1882CF55D140C05ADE4F1882C056B9
:10045000D1408E0103531F4F68E071E0C8010E9434
:100460002E1A892B11F40C94880BB8018EE793E0B7
:100470000E942B128091950690919606009739F074
:1004800040E855E260E070E00E948B0F29C0E091E7
:100490009706F0919806A089B18982E08C93A48593
:1004A000B5851C92A685B7858FEC8C93108EA48998
:1004B000B58986E08C93A289B3898C9180618C93F5
:1004C000A289B3898C9188608C93A289B3898C911D
:1004D00080688C930288F389E02D80818F7D8083F2
:1004E0006AE070E080E090E00E94AA1524E6C22E47
:1004F000D12CE12CF12C3DE8232E312C2C0E3D1E6D
:10050000E2E02E0E311C68EB7BE080E090E00E9480
:10051000AA15B0911005C55ADE4FB883CB55D1400E
:10052000BB2309F47DC5109210050091930410912E
:100530009404F80101900020E9F731979F01201BF6
:10054000310BA90144505109F801E40FF51F8081D6
:100550008A32E1F5200F311FF90133978081803312
:1005600054F08A3314F4805307C09FEB980F9630F1
:1005700010F4875301C080E0F0E18F9FC001112487
:10058000F90132972081203354F02A3314F4205398
:1005900007C03FEB320F363010F4275301C020E084
:1005A000820F911D62E0262F30E02417350758F4A2
:1005B000F801E20FF31F2081022E000C330B82277B
:1005C00093276F5FF0CF892B09F07DC667E072E05B
:1005D000C8010E944D1A892B09F486C26CE270E0B2
:1005E000C8010E94231A8C010F5F1F4FC8010E948F
:1005F00031202B013C010E943A194B015C0120E1A2
:1006000037E240E050E00E946F2320934A06A701A2
:1006100096010E946F2320934B06C501B401A701E8
:1006200096010E946F2360934C0620E030E040E882
:100630005FE3C301B2010E94741920E030E04AE791
:1006400054E40E94A1220E943A19709351066093CB
:1006500050066CE270E0C8010E94231A4C018C0124
:100660000F5F1F4FDC0111968C918C3209F4B4C0DE
:1006700042E050E0B801CE0183579F4F0E943E1ADE
:10068000C157DF4F1882CF58D040CE0183579F4FBC
:100690000E9453209B01AC0160E876E988E990E074
:1006A0000E945F232B013C01B4016D5F7F4F42E04C
:1006B00050E0CE0183579F4F0E943E1A0B5F1F4FA1
:1006C00044E050E0B801C1010E943E1ACD56DF4F10
:1006D0001882C359D040CE0183579F4F0E945320A8
:1006E0009B01AC01A2E3B0E00E94912323E030E043
:1006F00040E050E00E941B1849015A01D301C20199
:10070000820F931FA41FB51F80935A0690935B0618
:10071000A0935C06B0935D06C301B20120EA36E8FF
:1007200041E050E00E941B18CA01B9010E94422218
:100730002B013C01C501B4010E9442222CE933E5A2
:1007400049EC56E30E94A1229B01AC01C301B20116
:100750000E9455184B015C0160935206709353063A
:10076000809354069093550620E030E048EC52E424
:100770000E94C1180E9433192B013C01B4E6B49DBC
:10078000B001B59D700D1124072E000C880B990B3C
:100790000E9442229B01AC01C501B4010E94541881
:1007A00020E030E040E752E40E94C1184B015C01B8
:1007B000B201550C880B990B0E9442229B01AC019F
:1007C000C501B4010E9455186093620670936306D8
:1007D00080936406909365066CE270E0C8010E9405
:1007E000231AFC019C012F5F3F4F81818C3201F164
:1007F000833589F48091620690916306A091640626
:10080000B0916506B0588093620690936306A093FA
:100810006406B093650691819E3411F0933519F406
:100820009093820605C09C3209F04DC51092820655
:100830006CE270E0C9010E94231A4C018C010F5F29
:100840001F4FFC0181818C3209F4B4C043E050E0B9
:10085000B801CE0183579F4F0E943E1AC057DF4F09
:100860001882C059D040CE0183579F4F0E94532019
:100870009B01AC0160E876E988E990E00E945F2383
:100880002B013C01B4016C5F7F4F42E050E0CE0190
:1008900083579F4F0E943E1A0A5F1F4F44E050E06B
:1008A000B801C1010E943E1ACD56DF4F1882C359CC
:1008B000D040CE0183579F4F0E9453209B01AC0133
:1008C000A2E3B0E00E94912323E030E040E050E05A
:1008D0000E941B1849015A01D301C201820F931FC4
:1008E000A41FB51F80935E0690935F06A0936006D9
:1008F000B0936106C301B20120EA36E841E050E05E
:100900000E941B18CA01B9010E9442222B013C011E
:10091000C501B4010E9442222CE933E549EC56E3BB
:100920000E94A1229B01AC01C301B2010E94551893
:100930004B015C01609356067093570680935806EE
:100940009093590620E030E048EC52E40E94C11830
:100950000E9433192B013C01F4E6F49DB001F59D92
:10096000700D1124072E000C880B990B0E94422257
:100970009B01AC01C501B4010E94541820E030E095
:1009800040E752E40E94C1184B015C01B201550CD2
:10099000880B990B0E9442229B01AC01C501B40156
:1009A0000E945518609366067093670680936806E8
:1009B000909369066CE270E0C8010E94231AFC0162
:1009C0009C012F5F3F4F81818C3201F1873589F483
:1009D0008091660690916706A0916806B0916906BD
:1009E000B0588093660690936706A0936806B0930C
:1009F00069069181973511F0953419F49093830627
:100A000005C09C3209F05FC4109283066CE270E06E
:100A1000C9010E94231A8C010F5F1F4FDC01119640
:100A20008C918C3229F0C8010E9435208093860673
:100A30006CE270E0C8010E94231A8C010F5F1F4F07
:100A4000FC0181818C3229F0C8010E9435208093FD
:100A500087066CE270E0C8010E94231A8C010F5FC8
:100A60001F4FDC0111968C918C3259F0C8010E9405
:100A7000312060937E0670937F068093800690936A
:100A800081066CE270E0C8010E94231A8C010F5F9E
:100A90001F4FFC0181818C3259F0C8010E94312026
:100AA00060936E0670936F06809370069093710644
:100AB0006CE270E0C8010E94231A6CE270E00196BB
:100AC0000E94231ADC0111962C912C3209F4A0C249
:100AD00001960E94312060936A0670936B068093A2
:100AE0006C0690936D0694C26EE072E0C8010E949D
:100AF0004D1A892B09F4E7C36CE270E0C8010E942B
:100B0000231A8C010F5F1F4FC8010E9431202B0157
:100B10003C010E943A194B015C0120E137E240E0C0
:100B200050E00E946F2320934A06A70196010E947D
:100B30006F2320934B06C501B401A70196010E94C3
:100B40006F2360934C0620E030E040E85FE3C30190
:100B5000B2010E94741920E030E04AE754E40E9498
:100B6000A1220E943A1970935106609350066CE2DC
:100B700070E0C8010E94231AFC012181213421F474
:100B8000F1E0F093850605C0263509F09CC310926C
:100B900085066CE270E001960E94231A4C018C01DC
:100BA0000F5F1F4FDC0111968C918C3209F4B4C099
:100BB00042E050E0B801CE0183579F4F0E943E1A99
:100BC000C157DF4F1882CF58D040CE0183579F4F77
:100BD0000E9453209B01AC0160E876E988E990E02F
:100BE0000E945F232B013C01B4016D5F7F4F42E007
:100BF00050E0CE0183579F4F0E943E1A0B5F1F4F5C
:100C000044E050E0B801C1010E943E1ACD56DF4FCA
:100C10001882C359D040CE0183579F4F0E94532062
:100C20009B01AC01A2E3B0E00E94912323E030E0FD
:100C300040E050E00E941B1849015A01D301C20153
:100C4000820F931FA41FB51F80935A0690935B06D3
:100C5000A0935C06B0935D06C301B20120EA36E8BA
:100C600041E050E00E941B18CA01B9010E944222D3
:100C70002B013C01C501B4010E9442222CE933E55D
:100C800049EC56E30E94A1229B01AC01C301B201D1
:100C90000E9455184B015C016093520670935306F5
:100CA000809354069093550620E030E048EC52E4DF
:100CB0000E94C1180E9433192B013C01B4E6B49D77
:100CC000B001B59D700D1124072E000C880B990BF7
:100CD0000E9442229B01AC01C501B4010E9454183C
:100CE00020E030E040E752E40E94C1184B015C0173
:100CF000B201550C880B990B0E9442229B01AC015A
:100D0000C501B4010E945518609362067093630692
:100D100080936406909365066CE270E0C8010E94BF
:100D2000231AFC019C012F5F3F4F81818C3201F11E
:100D3000833589F48091620690916306A0916406E0
:100D4000B0916506B0588093620690936306A093B5
:100D50006406B093650691819E3411F0933519F4C1
:100D60009093820605C09C3209F0ADC210928206B3
:100D70006CE270E0C9010E94231A4C018C010F5FE4
:100D80001F4FFC0181818C3209F4C0C043E050E068
:100D9000B801CE0183579F4F0E943E1AC057DF4FC4
:100DA0001882C059D040CE0183579F4F0E945320D4
:100DB0009B01AC0160E876E988E990E00E945F233E
:100DC0002B013C01B4016C5F7F4F42E050E0CE014B
:100DD00083579F4F0E943E1A0A5F1F4F44E050E026
:100DE000B801C1010E943E1ACD56DF4F1882C35987
:100DF000D040CE0183579F4F0E9453209B01AC01EE
:100E0000A2E3B0E00E94912323E030E040E050E014
:100E10000E941B1849015A01D301C201820F931F7E
:100E2000A41FB51F80935E0690935F06A093600693
:100E3000B0936106C301B20120EA36E841E050E018
:100E40000E941B18CA01B9010E9442222B013C01D9
:100E5000C501B4010E9442222CE933E549EC56E376
:100E60000E94A1229B01AC01C301B2010E9455184E
:100E70004B015C01609356067093570680935806A9
:100E80009093590620E030E048EC52E40E94C118EB
:100E90000E9433192B013C01F4E6F49DB001F59D4D
:100EA000700D1124072E000C880B990B0E94422212
:100EB0009B01AC01C501B4010E94541820E030E050
:100EC00040E752E40E94C118CF59DE4F688379830E
:100ED0008A839B83C156D140B201550C880B990B74
:100EE0000E9442229B01AC01CF59DE4F688179817B
:100EF0008A819B81C156D1400E9455186093660635
:100F00007093670680936806909369066CE270E0C0
:100F1000C8010E94231AFC019C012F5F3F4F818171
:100F20008C3201F1873589F48091660690916706CD
:100F3000A0916806B0916906B058809366069093B8
:100F40006706A0936806B09369069181973511F002
:100F5000953419F49093830605C09C3209F0B3C10F
:100F6000109283066CE270E0C9010E94231A8C0182
:100F70000F5F1F4FDC0111968C918C3259F0C80124
:100F80000E943120609372067093730680937406FA
:100F9000909375066CE270E0C8010E94231A8C01E0
:100FA0000F5F1F4FFC0181818C3259F0C8010E94F4
:100FB000312060937606709377068093780690933D
:100FC00079066CE270E0C8010E94231ADC011196D8
:100FD0002C912C32E9F001960E9431200E943A199E
:100FE0002B013C0120E137E240E050E00E946F23FA
:100FF00020934F06A70196010E946F2320934E066F
:10100000C301B201A70196010E946F2360934D06B0
:10101000C55ADE4FB881CB55D140BB2309F453C12B
:1010200080918506882309F447C165E172E08EE767
:1010300093E00E94D81040914A0650E060E070E0D2
:101040002AE08EE793E00E94ED108AE30E94A91047
:1010500040914B0650E060E070E02AE08EE793E0BC
:101060000E94ED108AE30E94A91040914C0650E0C6
:1010700060E070E02AE08EE793E00E94ED108EE2DF
:101080000E94A910409150065091510660E070E016
:101090002AE08EE793E00E94ED108EE793E00E9435
:1010A00010126DE172E08EE793E00E94D81040913B
:1010B0004F0650E060E070E02AE08EE793E00E9487
:1010C000ED108FE20E94A91040914E0650E060E0C2
:1010D00070E02AE08EE793E00E94ED1064E272E097
:1010E0008EE793E00E94D81060914D068EE793E062
:1010F0000E94141268E272E08EE793E00E94D8101A
:101100006091620670916306809164069091650615
:1011100044E00E94361163E372E08EE793E00E94A0
:10112000D81060916606709167068091680690916C
:10113000690644E00E9436118EE793E00E94101287
:101140004090620650906306609064067090650659
:10115000C0906606D0906706E0906806F090690639
:1011600020E030E0A901C301B2010E943B2287FDCB
:1011700003C001E213E006C00EEA11E077FA7094B2
:1011800077F87094C301B2010E943319C55ADE4F3B
:10119000688379838A839B83CB55D140C55ADE4FC0
:1011A000E881F981CB55D140BF01FF0F880B990B26
:1011B0000E9442229B01AC01C301B2010E9454185B
:1011C00020E030E44CE156E40E94A1220E94D019B4
:1011D0000E9433197F936F93C45ADE4FF881CC5528
:1011E000D140FF93C55ADE4F2881CB55D1402F9374
:1011F0001F930F9386E392E09F938F938E01035D7D
:101200001E4F1F930F930E94671AB801CE01835798
:101210009F4F0E94371A0FB6F894DEBF0FBECDBFA6
:1012200020E030E0A901C701B6010E943B2287FD02
:1012300005C091E2892E93E0992E08C08EEA882E8F
:1012400081E0982EF7FAF094F7F8F094C701B60110
:101250000E9433192B013C01072E000C880B990BBF
:101260000E9442229B01AC01C701B6010E945418A2
:1012700020E030E44CE156E40E94A1220E94D01903
:101280000E9433197F936F935F924F929F928F9238
:1012900086E492E09F938F931F930F930E94671AA7
:1012A000B801CE0183579F4F0E94181A0FB6F894C9
:1012B000DEBF0FBECDBF07C066E572E08EE793E0EC
:1012C0000E942B1220C968E873E180E090E00E9440
:1012D000AA150E949F12AE0143575F4FC15ADE4FBD
:1012E0006881CF55D140C05ADE4F7881C056D14079
:1012F00080910201909103010E94D30D8111F1C1EF
:1013000042E652E06EE872E08091020190910301A2
:101310000E94D30D6CEC70E08EE793E00E944A12BD
:10132000F7C1F701A0806801FAEECF1AFEEFDF0ADD
:10133000D6014D915C9162EC70E0C8010E945C1294
:10134000882309F475C0F6014081518168EB70E093
:10135000C8010E945C12B82E882309F469C06FEAA4
:1013600070E08EE793E00E94B4106A2D8EE793E060
:101370000E94141266EA70E04801F8EE8F1AFEEF40
:101380009F0AD4018D919C910E94B4106A2DF401A2
:10139000808191810E94141240E068EE73E0C801E0
:1013A0000E94170D4801FEE08F0E911CB4018EE7DC
:1013B00093E00E942B126FE970E0C4010E948C2020
:1013C000009781F16CE270E006960E94231A009764
:1013D00049F1DC01119650E040E0252F30E02F313B
:1013E00031050CF5842F90E0FD0101900020E9F714
:1013F0003197EA1BFB0B8E179F0708F081C1FD0197
:10140000E80FF91F80818C3209F47AC1823241F0F1
:10141000EDE2F1E0EC0FFD1FE20FF31F80835F5F51
:101420004F5FDBCFB12CC8010E946D0DB11019C008
:1014300060EB71E08EE793E00E942B128CE0EEE807
:10144000F2E0DE01119601900D928A95E1F7FE011E
:101450003196DE01A35FBE4F9E01235F3F4FCD015A
:101460000EC0FE01E35DFE4FDE01A35FBE4FCF0164
:10147000809621912D93E817F907D9F70CC0419177
:101480004D93E217F307D9F7FC013C968096119231
:10149000E817F907E1F78EE793E00E94101261ED7B
:1014A00071E08EE793E00E942B122E0123EF421A87
:1014B0002EEF520AB2018EE793E00E942B128EE7C4
:1014C00093E00E9410128EE793E00E94101269EEE2
:1014D00071E08EE793E00E942B12D701FC90F60199
:1014E0004081518165E970E0C8010E945C12882347
:1014F00009F4A2C0D6014D915C916BE870E0C8017F
:101500000E945C12882309F497C062E870E08EE7BD
:1015100093E00E94B4106F2D8EE793E00E941412A6
:101520003801B8EE6B1ABEEF7B0A69E770E0F30191
:10153000808191810E94B4106F2DD3018D919C9177
:101540000E94141240E068EE73E0C8010E94170D7B
:101550007801BEE0EB0EF11CB7018EE793E00E942C
:101560002B1262E770E0C7010E948C20009709F4FB
:1015700063C00696ABE0BA2E6CE270E00E94231ABC
:10158000009709F459C00196BA94B110F5CF0E94A2
:1015900035205C011701812C912C8A149B0421F1C8
:1015A0002EEF82169104E9F0F30180819181DC0134
:1015B000ED91FC910480F581E02D0995892B69F36B
:1015C000F30180819181DC01ED91FC910680F7812E
:1015D000E02D0995F10181931F01FFEF8F1A9F0AFA
:1015E000DCCFFEEFAF2EB12CF801EA0DFB1D168605
:1015F000C8010E946D0DF70101900020E9F73197B5
:101600005F01AE18BF083DE8A316B10418F0ECE87E
:10161000AE2EB12CA501B701CE0101960E943E1A53
:10162000E1E0F0E0EC0FFD1FEA0DFB1D1082B701B9
:101630008EE793E00E942B128EE793E00E94101237
:10164000F12C4CE0E42E50E3B52E64E6A62E7AE0B1
:10165000972ED6014D915C9168E670E0C8010E941A
:101660005C12882359F1E9EAF2E0DE01A35BBE4F88
:101670008E2D01900D928A95E1F7CB5ADE4FB882FC
:10168000C555D1408F2D6A2D0E94FB17892F692DDA
:101690000E94FB17805DCA5ADE4F8883C655D14031
:1016A000905DC95ADE4F9883C755D14040ED57E051
:1016B000BE01635B7E4FC8010E949A0DF394B8E0AF
:1016C000FB12C7CFC15ADE4F4882CF55D140C05A16
:1016D000DE4F5882C056D1408E010F5F1F4F0C94D1
:1016E0002C028EE793E00E94101265EE70E08EE708
:1016F00093E00E944A128EE793E00E94101208C005
:10170000EDE2F1E0EC0FFD1FE20FF31F10828BCE34
:10171000CC59DE4F0FB6F894DEBF0FBECDBFDF91C0
:10172000CF911F910F91FF90EF90DF90CF90BF90DE
:10173000AF909F908F907F906F905F904F903F9071
:101740002F900895FC01E85EFE4F80819181DC01BD
:10175000ED91FC910284F385E02D0994FC01E85E93
:10176000FE4F80819181DC01ED91FC910084F18537
:10177000E02D0994FC01E85EFE4F80819181DC013F
:10178000ED91FC910680F781E02D0994FC01E85E63
:10179000FE4F80819181DC01ED91FC910190F081FF
:1017A000E02D0994FC01E85EFE4F80819181DC010F
:1017B000ED91FC910480F581E02D099420917B034B
:1017C00030917C032817390771F490917A03809146
:1017D0007903981741F0E0917A03F0E0E75CFC4F61
:1017E000808190E008958FEF9FEF089508951F93F3
:1017F000CF93DF93DC015C962D913C915D97211591
:10180000310539F481E090E013969C938E93129702
:101810003DC05196ED91FC91529750969C915097F6
:10182000892F80951FB75E964C915E9741FB772775
:1018300070F941FD6095F8944081772311F0492BB0
:1018400001C048234083E9012197F1F748E0508126
:1018500060FF02C0592B01C058235083E901219732
:10186000F1F76695415099F7772321F0908189230C
:10187000808303C08081982B90831FBF5C968D91DD
:101880009C915D970197F1F721E030E0C901DF916C
:10189000CF911F91089520917B0330917C032817ED
:1018A000390771F48091790320917A0390E0805C8C
:1018B0009F4F821B910960E470E00E940718089511
:1018C00080E090E0089520917B0330917C032817FD
:1018D0003907B9F490917A0380917903981789F0C8
:1018E000E0917A03F0E0E75CFC4F808120917A037D
:1018F00030E02F5F3F4F2F73332720937A0390E020
:1019000008958FEF9FEF08951F920F920FB60F92D9
:1019100011242F933F934F935F936F937F938F93F4
:101920009F93AF93BF93EF93FF93809194068111A0
:101930006DC08091950690919606009779F0DC0134
:10194000ED91FC910480F581E02D0995892B09F436
:101950005DC0809195069091960612C08091970681
:1019600090919806DC01ED91FC910480F581E02DC9
:101970000995892B09F44AC08091970690919806A1
:10198000DC01ED91FC910680F781E02D09958A300C
:1019900049F590910F05E0910D05F0910E05E90FC5
:1019A000F11D108220910D0530910E05B4E025390E
:1019B0003B0739F44BE154E050930E0540930D057D
:1019C00008C025E934E030930E0520930D052BE186
:1019D00034E0309394042093930410920F0591E027
:1019E00090931005E0910D05F0910E0590910F0573
:1019F00021E0290F20930F05E90FF11D80838091CD
:101A00000F05883718F087E780930F05FF91EF9156
:101A1000BF91AF919F918F917F916F915F914F9106
:101A20003F912F910F900FBE0F901F901895BF926E
:101A3000CF92DF92EF92FF920F931F93CF93DF939A
:101A40007C01B42E8B01C0E0D0E06C0188EEC81A96
:101A50008EEFD80A0115110589F1CE3FD10570F539
:101A6000F60180819181DC01ED91FC910480F5818A
:101A7000E02D0995892BC1F0D6018D919C91DC0157
:101A8000ED91FC910680F781E02D09958D3041F3B1
:101A90008A3021F4209721F3BB2081F0F701EC0F6D
:101AA000FD1F86872196DCCF0150110939F061E0D6
:101AB00070E080E090E00E94AA15CCCFF701EC0F17
:101AC000FD1F16868C2FDF91CF911F910F91FF90F4
:101AD000EF90DF90CF90BF9008950F931F93CF9317
:101AE000DF938C01C0E0D0E0CE010196A897E8F426
:101AF000EC01D801ED91FC910480F581E02DC80145
:101B00000995892B59F0D801ED91FC910680F78158
:101B1000E02DC8010995C0E0D0E0EBCF61E070E0B6
:101B200080E090E00E94AA15DFCFDF91CF911F9156
:101B30000F910895EF92FF920F931F93CF93DF932E
:101B4000EC018B017A010E946D0D6FE171E08EE76F
:101B500093E00E94B410B8018EE793E00E942B122C
:101B6000FE01E85EFE4FB801808191810E942B1238
:101B700040E0B701CE010E94170D182F68E171E017
:101B80008EE793E00E94B410BE01625F7F4F8EE744
:101B900093E00E942B12812FDF91CF911F910F9123
:101BA000FF90EF900895AF92BF92CF92DF92EF92A5
:101BB000FF920F931F93CF93DF93CDB7DEB76E974E
:101BC0000FB6F894DEBF0FBECDBF8C016B015A017A
:101BD000FC01EA5EFE4F408151816EE071E00E949F
:101BE0005C12882309F48EC08AE0E8E4F1E09E01EB
:101BF0002F5F3F4F7901D90101900D928A95E1F74E
:101C0000FE013B9684E1DF011D928A95E9F743E1ED
:101C100050E0B601CE010A960E943E1AF7010190EB
:101C20000020E9F7319782E2808344EF51E0B70169
:101C3000C8010E949A0D882309F464C06801BEE0BF
:101C4000CB0ED11C6BE071E0C6010E948320892B72
:101C500009F058C068E071E08EE793E00E94B4108C
:101C6000B5018EE793E00E942B12B5017801E8EEF2
:101C7000EE1AEEEFFE0AD7018D919C910E942B1275
:101C8000F701808191810E941012D7018D919C9162
:101C9000DC01ED91FC910190F081E02D6AE1099564
:101CA00067E073E08EE793E00E942B12F8018585D0
:101CB0008450823060F440E068EC70E0C8010E941B
:101CC000170D40E068EC70E0C8010E94170D40E07D
:101CD00060E177E2C8010E94170D6AE073E0C60177
:101CE0000E944D1A892B71F040E068EE73E0C80144
:101CF0000E94170D60E173E0C6010E942E1A21E0D8
:101D0000892B09F020E0822F6E960FB6F894DEBF83
:101D10000FBECDBFDF91CF911F910F91FF90EF903C
:101D2000DF90CF90BF90AF9008950F931F93CF9304
:101D3000DF93EC01162F042F1B821A8288EE93E0AA
:101D4000A0E0B0E08C839D83AE83BF8382EA91E004
:101D5000998388831F8A1E8A198E188E1B8E1A8E6D
:101D60001D8E1C8E6E8D6E7F20FB61F96E8F6695C9
:101D7000617081E06827842F0E94221561E0802F26
:101D80000E946E15402F50E0FA01E35AFD4FE49196
:101D9000E88BFA01E75BFD4FE491F0E0EE0FFF1FE7
:101DA000E15CFD4F859194919A8B898B60E0812F46
:101DB0000E946E158E8D81FD04C061E0812F0E940E
:101DC00022151C87612F70E0FB01E35AFD4FE4915F
:101DD000ED87FB01E75BFD4FE491F0E0EE0FFF1FA5
:101DE000E250FF4F859194919F878E87DF91CF912D
:101DF0001F910F9108951F920F920FB60F92112409
:101E00002F933F934F935F936F937F938F939F9302
:101E1000AF93BF93EF93FF93E0917B03F0917C032B
:101E2000309709F451C0968DA685B785858591FFB9
:101E300004C09C91892329F447C09C91892309F00F
:101E400043C0A389B4899C918589809589238C930B
:101E5000868997890197F1F7608D718DA685B78581
:101E6000558538E020E0CB010197F1F7822F90E013
:101E700095958795282F4C91452309F0206831507E
:101E800091F7868D81FD20958091790390E00196F0
:101E90008F73992730917A03381749F0A09179030D
:101EA000B0E0A75CBC4F2C938093790303C0868D70
:101EB0008160868F828D938D0197F1F7A389B48914
:101EC0009C918589892B8C93FF91EF91BF91AF9164
:101ED0009F918F917F916F915F914F913F912F9142
:101EE0000F900FBE0F901F901895E0917B03F0911B
:101EF0007C03E817F90769F4A389B4899C91858963
:101F0000809589238C9310927C0310927B0381E04F
:101F1000089580E00895CF93DF93EC019A01AB011F
:101F20001B8E1A8E198E188E1F8A1E8A60E079E029
:101F30008DE390E00E941B18F9012430310518F060
:101F4000C901039702C081E090E09D8F8C8F6C8562
:101F5000663108F069C0C90196958795843191056D
:101F600010F0439702C081E090E09F8B8E8B3697F4
:101F700018F0C901059702C081E090E0998F888F21
:101F8000C901880F991F280F391F36952795369557
:101F900027952D30310518F02C50310902C021E071
:101FA00030E03B8F2A8F90916800683050F021E03C
:101FB0006E3008F420E081E001C0880F2A95EAF72E
:101FC00001C084E0892B809368009C85983038F0AC
:101FD0009E3040F0963148F020E030E008C02DE619
:101FE00030E005C02BE630E002C02CE630E03C8B50
:101FF0002B8B983030F481E001C0880F9A95EAF776
:102000000EC0292F30E09E3018F42850310902C04C
:102010002E50310981E001C0880F2A95EAF78D8B97
:102020008C8D9D8D0197F1F78A8D9B8D892BE1F029
:1020300080917B0390917C038C179D07A9F00097FA
:1020400011F00E94750F8E8D8E7F8E8F1092790306
:1020500010927A03D0937C03C0937B03EB89FC89B5
:1020600090818D89892B8083DF91CF910895CF92C4
:10207000DF92EF92FF920F931F93CF93DF936C0148
:102080007A018B01C0E0D0E0CE15DF0589F0D801E0
:102090006D918D01D601ED91FC910190F081E02DC3
:1020A000C6010995892B11F47E0102C02196ECCF5F
:1020B000C701DF91CF911F910F91FF90EF90DF90BB
:1020C000CF900895EF92FF920F931F93CF93DF93DA
:1020D000EC0181E0888F9B8D8C8D981305C0E88979
:1020E000F989808185FD24C0F62E0B8D10E00F5FED
:1020F0001F4F0F731127E02E8C8DE8120CC00FB606
:1021000007FCFACFE889F989808185FFF5CFCE01F8
:102110000E94DF14F1CF8B8DFE01E80FF11DE35A11
:10212000FF4FF0820B8FEA89FB898081806207C0B4
:10213000EE89FF896083E889F989808180648083E2
:1021400081E090E0DF91CF911F910F91FF90EF9090
:102150000895E0917E03F0917F030190F081E02DDE
:10216000682F8EE793E00994EF92FF920F931F93ED
:10217000CF93DF938C017B01C0E0D0E0F701EC0F3F
:10218000FD1F6491662361F0D801ED91FC910190EF
:10219000F081E02DC8010995892B11F02196EECF31
:1021A000CE01DF91CF911F910F91FF90EF90089595
:1021B0006115710579F0FB0101900020E9F7319775
:1021C000AF01461B570BDC01ED91FC910280F381BE
:1021D000E02D099480E090E008954F925F926F9215
:1021E0007F92EF92FF920F931F93CF93DF93CDB720
:1021F000DEB7A1970FB6F894DEBF0FBECDBF7C014E
:10220000FA01CB0119A2223008F42AE08E010F5DF9
:102210001F4F422E512C612C712CBF01A301920142
:102220000E946F23F901CA01015011096A3014F4A8
:10223000605D01C0695CD8016C93232B242B252B96
:1022400061F7B801C7010E94D810A1960FB6F894A3
:10225000DEBF0FBECDBFDF91CF911F910F91FF90D9
:10226000EF907F906F905F904F9008954F925F92A4
:102270006F927F928F929F92AF92BF92CF92DF9296
:10228000EF92FF926B017C01B42E9B01AC010E9486
:10229000DB19882319F063E173E027C026013701B9
:1022A000E89477F82FEF3FEF4FE75FE7C301B20104
:1022B0000E94DB1981110DC02FEF3FEF4FE75FE761
:1022C000C301B2010E943B2218161CF467E173E0BF
:1022D0000CC02FEF3FEF4FE75FE4C701B6010E944C
:1022E000CB19181694F46BE173E08EE793E0FF903E
:1022F000EF90DF90CF90BF90AF909F908F907F90A6
:102300006F905F904F900C94D8102FEF3FEF4FE7F6
:102310005FECC701B6010E943B2287FDE4CF20E0BD
:1023200030E0A901C701B6010E943B2287FF09C026
:102330008DE20E94A9104C01F7FAF094F7F8F0949E
:1023400002C0812C912CA12C60E070E080E09FE322
:10235000AB1441F020E030E040E251E40E94C118AB
:10236000A394F6CF9B01AC01C701B6010E9455189A
:102370002B013C010E943A196B017C010E94402212
:102380009B01AC01C301B2010E9454182B013C0116
:102390002AE0B701A6018EE793E00E94ED107C01D0
:1023A000E80CF91CBB2029F08EE20E94A910E80E6F
:1023B000F91EDB2CDD2031F120E030E040E251E479
:1023C000C301B2010E94A1222B013C010E943A19D3
:1023D0004B01A12CB12C2AE0B501A4018EE793E0BA
:1023E0000E94ED10E80EF91EC501B4010E944022C2
:1023F0009B01AC01C301B2010E9454182B013C01A6
:10240000DA94D8CFC701FF90EF90DF90CF90BF90C4
:10241000AF909F908F907F906F905F904F900895B6
:102420006FE173E00C94D8100F931F93CF93DF9359
:10243000EC01462F50E060E070E02AE00E94ED10D1
:102440008C01CE010E941012800F911FDF91CF915D
:102450001F910F9108950F931F93CF93DF93EC017A
:102460000E94D8108C01CE010E941012800F911F83
:10247000DF91CF911F910F910895BC018091950636
:1024800090919606009721F4809197069091980676
:102490000C942B120F931F93CF93DF93EC010E94A8
:1024A000B4108C01CE010E941012800F911FDF9199
:1024B000CF911F910F910895EF92FF920F931F9369
:1024C000CF93DF93EC018B017A010E946D0D6EE1D9
:1024D00072E08EE793E00E94B410B8018EE793E0BB
:1024E0000E944A12FE01E85EFE4FB8018081918190
:1024F0000E944A1240E064EF71E0CE010E94170D85
:10250000182F67E172E08EE793E00E94B4102E96D8
:10251000BE018EE793E00E942B12112339F0B70120
:10252000CE010E94832021E0892B09F020E0822F38
:10253000DF91CF911F910F91FF90EF900895CF926F
:10254000DF92EF92FF920F931F93CF93DF9340ECB4
:1025500052E160E070E080910001909101010E94E1
:102560008B0FC0910201D09103017E0188EEE81A21
:102570008EEFF80A8091000190910101D7018D93AF
:102580009C9361E08C850E946E1561E08C850E94B1
:1025900022156AE070E080E090E00E94AA1560E0F9
:1025A0008C850E94221564E670E080E090E00E9435
:1025B000AA1561E08C850E94221563EE71E08EE71A
:1025C00093E00E944A128EE0C82ED12C8E010A5E42
:1025D0001E4FF70180819181DC01ED91FC91048017
:1025E000F581E02D0995892B59F0F70180819181C2
:1025F000DC01ED91FC910680F781E02D0995E9CF92
:10260000F8014081518160EE71E0CE010E945C12C0
:1026100081115BC0F70180819181DC01ED91FC911A
:102620000480F581E02D0995892B59F0D7018D9112
:102630009C91DC01ED91FC910680F781E02D0995DC
:10264000E9CF4AED51E06DED71E0CE010E945C12E0
:1026500081113BC064EF71E080E090E00E94AA1518
:10266000B1E0CB1AD10809F0B4CF68EA71E08EE787
:1026700093E00E944A12D8014D915C9165EA71E0A5
:10268000CE010E945C1264E670E080E090E00E945F
:10269000AA15F8014081518162EA71E0CE010E94E1
:1026A0005C1264E670E080E090E00E94AA15D80118
:1026B0004D915C916FE971E0CE010E945C1264E67D
:1026C00070E080E090E00E94AA15F80140815181FD
:1026D0006AE971E0CE010E945C1264E670E080E07D
:1026E00090E00E94AA15D8014D915C9165E971E0D6
:1026F000CE010E945C12882309F496C0F801408143
:1027000051816BE871E0CE010E945C1264E670E0DA
:1027100080E090E00E94AA15CE010E946D0D64E851
:1027200071E08EE793E00E94B41062E273E08EE7FE
:1027300093E00E942B1262E273E0D7018D919C918D
:102740000E942B1241E064EF71E0CE010E94170D50
:102750006DE771E08EE793E00E94B4108E01025F96
:102760001F4FB8018EE793E00E942B1262E771E0E1
:10277000C8010E948C20892B11F083E023C067E6FA
:1027800071E0C8010E948C20892B11F082E01AC0F0
:102790006CE571E0C8010E948C20892B11F081E06A
:1027A00011C06CE471E0C8010E948C20892B11F0EB
:1027B00084E008C06CE371E0C8010E948C20892B82
:1027C00011F085E08D878D858130A9F565E371E095
:1027D0008EE793E00E94B41066E273E08EE793E028
:1027E0000E942B1266E273E0F701808191810E94C2
:1027F0002B1241E064EF71E0CE010E94170D6EE2F2
:1028000071E08EE793E00E94B410B8018EE793E088
:102810000E942B1266E271E0C8010E948C20892B75
:1028200051F086E08D8707C064E072E08EE793E0A8
:102830000E944A12FFCF8EE793E00E9410126DE2D1
:1028400073E08EE793E00E942B128EE793E0DF9116
:10285000CF911F910F91FF90EF90DF90CF900C944C
:1028600010121F920F920FB60F9211242F933F93C5
:102870004F935F936F937F938F939F93AF93BF9388
:10288000EF93FF938EE793E00E94DF14FF91EF91A7
:10289000BF91AF919F918F917F916F915F914F9178
:1028A0003F912F910F900FBE0F901F9018951F9280
:1028B0000F920FB60F9211242F938F939F93EF9344
:1028C000FF93E0918E03F0918F038081E091940358
:1028D000F091950382FD12C09081809197038F5FE4
:1028E0008F7320919803821751F0E0919703F0E0E5
:1028F000E258FC4F958F8093970301C08081FF9130
:10290000EF919F918F912F910F900FBE0F901F907D
:102910001895FC01918D828D981761F0828DDF01F1
:10292000A80FB11D5D968C91928D9F5F9F73928FC2
:1029300090E008958FEF9FEF0895FC01918D828DB7
:10294000981731F0828DE80FF11D858D90E0089584
:102950008FEF9FEF0895FC01918D228D892F90E0DC
:10296000805C9F4F821B91098F73992708953FB711
:10297000F8948091050790910607A0910707B09100
:10298000080726B5A89B05C02F3F19F00196A11D89
:10299000B11D3FBFBA2FA92F982F8827820F911DF5
:1029A000A11DB11DBC01CD0142E0660F771F881F3C
:1029B000991F4A95D1F7089508950E94131AFC01B2
:1029C000848DDF01A80FB11DA35ABF4F2C91848DB8
:1029D00090E001968F739927848FA689B7892C93ED
:1029E000A089B1898C9180648C93938D848D981388
:1029F00006C00288F389E02D80818F7D8083089551
:102A0000CF93DF93EC01888D8823C9F0EA89FB8995
:102A1000808185FD05C0A889B9898C9186FD0FC08C
:102A20000FB607FCF5CF808185FFF2CFA889B98961
:102A30008C9185FFEDCFCE010E94DF14E7CFDF91AF
:102A4000CF91089590E0FC01EF58FD4F3491FC01C7
:102A5000E35AFD4F2491FC01E75BFD4FE491EE2327
:102A600009F43BC0332339F1333091F038F431307D
:102A7000A9F0323001F584B58F7D12C0373091F066
:102A80003830A1F03430B9F4809180008F7D03C0DC
:102A9000809180008F77809380000DC084B58F7700
:102AA00084BD09C08091B0008F7703C08091B000D1
:102AB0008F7D8093B000F0E0EE0FFF1FE15CFD4FD3
:102AC000A591B4918FB7F894EC91611103C0209552
:102AD0002E2301C02E2B2C938FBF0895CF93DF930D
:102AE00090E0FC01E35AFD4F2491FC01E75BFD4FB0
:102AF0008491882361F190E0880F991FFC01EB5CC1
:102B0000FD4FC591D491FC01E15CFD4FA591B491BD
:102B1000611109C09FB7F89488812095822388832A
:102B2000EC912E230BC0623061F49FB7F89438818A
:102B3000822F809583238883EC912E2B2C939FBF2B
:102B400006C08FB7F894E8812E2B28838FBFDF91C2
:102B5000CF9108958F929F92AF92BF92CF92DF92C2
:102B6000EF92FF926B017C010E94B7144B015C0154
:102B7000C114D104E104F104F1F00E94B714DC01A6
:102B8000CB0188199909AA09BB09883E9340A10580
:102B9000B10570F321E0C21AD108E108F10888EE0E
:102BA000880E83E0981EA11CB11CC114D104E1045D
:102BB000F10419F7DDCFFF90EF90DF90CF90BF9039
:102BC000AF909F908F9008951F920F920FB60F9223
:102BD00011242F933F938F939F93AF93BF93809133
:102BE000010790910207A0910307B091040730916B
:102BF000000723E0230F2D3720F40196A11DB11DFE
:102C000005C026E8230F0296A11DB11D20930007E1
:102C10008093010790930207A0930307B0930407E2
:102C20008091050790910607A0910707B0910807CA
:102C30000196A11DB11D8093050790930607A093EF
:102C40000707B0930807BF91AF919F918F913F9174
:102C50002F910F900FBE0F901F9018951F920F92FB
:102C60000FB60F9211242F933F934F935F936F935F
:102C70007F938F939F93AF93BF93EF93FF93E091D5
:102C80000601F09107010995FF91EF91BF91AF9176
:102C90009F918F917F916F915F914F913F912F9174
:102CA0000F900FBE0F901F9018951F920F920FB6A6
:102CB0000F9211242F933F934F935F936F937F93C2
:102CC0008F939F93AF93BF93EF93FF93E091040192
:102CD000F09105010995FF91EF91BF91AF919F91FF
:102CE0008F917F916F915F914F913F912F910F90B5
:102CF0000FBE0F901F901895789484B5826084BDA4
:102D000084B5816084BD85B5826085BD85B58160EF
:102D100085BD80916E00816080936E00109281006D
:102D20008091810082608093810080918100816028
:102D300080938100809180008160809380008091E9
:102D4000B10084608093B1008091B0008160809375
:102D5000B00080917A00846080937A0080917A003C
:102D6000826080937A0080917A00816080937A00FB
:102D700080917A00806880937A001092C100E0917F
:102D80008E03F0918F0382E08083E0918A03F091BB
:102D90008B031082E0918C03F0918D0380E180839E
:102DA00010929603E0919203F091930386E0808362
:102DB000E0919003F0919103808180618083E091A4
:102DC0009003F0919103808188608083E09190036B
:102DD000F0919103808180688083E0919003F0916D
:102DE000910380818F7D80830E949F1285EB92E00A
:102DF0000E943D1287EE92E00E943D1288EF92E021
:102E00000E943D128FEA87BD80916E0082608093A0
:102E10006E0081E080937D030E9492018EE793E033
:102E20000E940015F9CFCF92DF92EF92FF92EEE76A
:102E3000F3E01382128288EEC82E83E0D82EE12CB4
:102E4000F12CC482D582E682F7828AE691E09183F2
:102E5000808385EC90E09587848784EC90E0978769
:102E6000868780EC90E0918B808B81EC90E0938B57
:102E7000828B82EC90E0958B848B86EC90E0978B34
:102E8000868B118E128E138E148E20E047E068E040
:102E900089E996E00E94950EEAE4F6E01092980621
:102EA00010929706109210051092940610920F053A
:102EB00085E994E090930E0580930D058BE194E0F5
:102EC00090939404809393041092870614AE158215
:102ED0001482138212821182108212AE11AE10AED1
:102EE00013AE1782168214AA15AA16AA17AA10AA38
:102EF00011AA12AA13AA14A615A616A617A610A6FA
:102F000011A612A613A614A215A216A217A210A209
:102F100011A212A213A21486158616861786108691
:102F200011861286138689E996E09093960680931F
:102F3000950620E045E066E08BE296E00E94950E63
:102F4000E1E1F5E013821282C482D582E682F78243
:102F50008AE791E09183808384E084878DE292E028
:102F600090931F0680931E06109221061092200651
:102F7000109223061092220610922A061092290619
:102F80001092240688E292E090932606809325060C
:102F900085E292E09093280680932706E8EBF6E01E
:102FA000168217821086118612861386148615865D
:102FB00016861786108A118A128A138A148A158A2D
:102FC000FF90EF90DF90CF900895CF93DF93C2EA08
:102FD000D1E0D0932C06C0932B068BE296E00E94A2
:102FE000750FD0939A06C093990689E996E0DF9110
:102FF000CF910C94750F991B79E004C0991F961717
:1030000008F0961B881F7A95C9F78095089597FB5D
:10301000072E16F4009407D077FD09D00E943A18C5
:1030200007FC05D03EF4909581959F4F08957095CB
:1030300061957F4F0895052E97FB1EF400940E9422
:10304000321857FD07D00E946F2307FC03D04EF4BF
:103050000C94321850954095309521953F4F4F4F25
:103060005F4F089590958095709561957F4F8F4F34
:103070009F4F0895AA1BBB1B51E107C0AA1FBB1F8E
:10308000A617B70710F0A61BB70B881F991F5A95F4
:10309000A9F780959095BC01CD010895EE0FFF1F13
:1030A0000590F491E02D09945058BB27AA270E945F
:1030B0006C180C9425230E94172338F00E941E23BD
:1030C00020F039F49F3F19F426F40C9414230EF4E5
:1030D000E095E7FB0C940E23E92F0E94362358F36A
:1030E000BA17620773078407950720F079F4A6F5ED
:1030F0000C9458230EF4E0950B2EBA2FA02D0B0143
:10310000B90190010C01CA01A0011124FF27591B2C
:1031100099F0593F50F4503E68F11A16F040A22F32
:10312000232F342F4427585FF3CF469537952795A3
:10313000A795F0405395C9F77EF41F16BA0B620BA2
:10314000730B840BBAF09150A1F0FF0FBB1F661FE9
:10315000771F881FC2F70EC0BA0F621F731F841F2C
:1031600048F4879577956795B795F7959E3F08F052
:10317000B0CF9395880F08F09927EE0F9795879514
:1031800008950E94D5180C9425230E941E2358F000
:103190000E94172340F029F45F3F29F00C940E237E
:1031A00051110C9459230C9414230E94362368F374
:1031B0009923B1F3552391F3951B550BBB27AA27F0
:1031C00062177307840738F09F5F5F4F220F331F2A
:1031D000441FAA1FA9F335D00E2E3AF0E0E832D0F2
:1031E00091505040E695001CCAF72BD0FE2F29D0F5
:1031F000660F771F881FBB1F261737074807AB07C7
:10320000B0E809F0BB0B802DBF01FF2793585F4F3B
:103210003AF09E3F510578F00C940E230C945923FC
:103220005F3FE4F3983ED4F3869577956795B7951D
:10323000F7959F5FC9F7880F911D9695879597F928
:103240000895E1E0660F771F881FBB1F62177307A1
:103250008407BA0720F0621B730B840BBA0BEE1FB6
:1032600088F7E09508950E943A196894B1110C947A
:10327000592308950E943E2388F09F5798F0B92F54
:103280009927B751B0F0E1F0660F771F881F991F9B
:103290001AF0BA95C9F714C0B13091F00E945823C2
:1032A000B1E008950C945823672F782F8827B85FD2
:1032B00039F0B93FCCF3869577956795B395D9F7F3
:1032C0003EF490958095709561957F4F8F4F9F4FFD
:1032D00008950E94172320F019F00E941E2350F435
:1032E0000C9414230C945923E92F0E94362388F35D
:1032F0005523B1F3E7FB6217730784079507A8F11D
:1033000089F3E92FFF2788232AF03197660F771F6B
:10331000881FDAF7952F5527442332F091505040FB
:10332000220F331F441FD2F7BB27E91BF50B621B8B
:10333000730B840BB109B1F222F4620F731F841F67
:10334000B11D31972AF0660F771F881FBB1FEFCF83
:103350009150504062F041F0882332F0660F771FA1
:10336000881F91505040C1F793950C94BD198695D4
:10337000779567959F5FD9F7F7CF9F3F31F09150D1
:1033800020F4879577956795B795880F911D969549
:10339000879597F908950E947D2208F48FEF08958C
:1033A0000E94FB1930F09F3710F40C9459230C94B1
:1033B000E0190C94BD190E947D22880B990B089589
:1033C000882371F4772321F09850872B762F07C03C
:1033D000662311F499270DC09051862B70E060E0B0
:1033E0002AF09A95660F771F881FDAF7880F96954F
:1033F000879597F908950E943E23A0F0BEE7B9177C
:1034000088F4BB279F3860F41616B11D672F782FFC
:103410008827985FF7CF869577956795B11D939527
:103420009639C8F3089581E090E0F8940C94E22373
:10343000FB01DC010D900020E9F7119701900D923E
:103440000020E1F70895FC018191861721F088237F
:10345000D9F7992708953197CF010895FB01DC0131
:103460008D91019080190110D9F3990B0895FB01FA
:10347000DC0101900D920020E1F70895FB01DC01D1
:103480004150504048F001900D920020C9F701C012
:103490001D9241505040E0F70895FB015191552392
:1034A000A9F0BF01DC014D9145174111E1F759F435
:1034B000CD010190002049F04D9140154111C9F313
:1034C000FB014111EFCF81E090E001970895AEE05C
:1034D000B0E0EDE6FAE10C94AA230D891E8986E09E
:1034E0008C831A8309838FEF9FE79E838D83AE01C0
:1034F000475E5F4F6F89788DCE0101960E94A31AB7
:103500002F813885F801E20FF31F10822E96E4E038
:103510000C94C623AEE0B0E0E0E9FAE10C94AC23F1
:1035200085E08C838B899C899A838983AE01495E6F
:103530005F4F6D897E89CE0101960E94F51D2E9602
:10354000E2E00C94C823ACE0B0E0E9EAFAE10C94C4
:103550009C237C016B018A01FC0117821682838106
:1035600081FFBDC1CE0101964C01F7019381F601A7
:1035700093FD859193FF81916F01882309F4ABC17D
:10358000853239F493FD859193FF81916F018532E6
:1035900029F4B70190E00E94821FE7CF512C312C13
:1035A00020E02032A0F48B3269F030F4803259F000
:1035B000833269F420612CC08D3239F0803339F4C4
:1035C000216026C02260246023C0286021C027FD1E
:1035D00027C030ED380F3A3078F426FF06C0FAE005
:1035E0005F9E300D1124532E13C08AE0389E300D9B
:1035F0001124332E20620CC08E3221F426FD6BC1C3
:10360000206406C08C3611F4206802C0883641F46C
:10361000F60193FD859193FF81916F018111C1CFD7
:10362000982F9F7D9554933028F40C5F1F4FFFE334
:10363000F9830DC0833631F0833771F0833509F09B
:103640005BC022C0F801808189830E5F1F4F442434
:103650004394512C540115C03801F2E06F0E711CD7
:10366000F801A080B18026FF03C0652D70E002C084
:103670006FEF7FEFC5012C870E94391F2C0183015A
:103680002C852F77222E17C03801F2E06F0E711CA7
:10369000F801A080B18026FF03C0652D70E002C054
:1036A0006FEF7FEFC5012C870E942E1F2C012C8508
:1036B0002068222E830123FC1BC0832D90E0481636
:1036C0005906B0F4B70180E290E00E94821F3A945C
:1036D000F4CFF50127FC859127FE81915F01B701A9
:1036E00090E00E94821F31103A94F1E04F1A510885
:1036F0004114510471F7E5C0843611F0893639F56B
:10370000F80127FF07C060817181828193810C5F7E
:103710001F4F08C060817181072E000C880B990B28
:103720000E5F1F4F2F76722E97FF09C090958095E0
:10373000709561957F4F8F4F9F4F2068722E2AE0C2
:1037400030E0A4010E94D31FA82EA81844C08537DA
:1037500029F42F7EB22E2AE030E025C0F22FF97F27
:10376000BF2E8F36C1F018F4883579F0B4C0803799
:1037700019F0883721F0AFC02F2F2061B22EB4FE90
:103780000DC08B2D8460B82E09C024FF0AC09F2F66
:103790009660B92E06C028E030E005C020E130E098
:1037A00002C020E132E0F801B7FE07C060817181FC
:1037B000828193810C5F1F4F06C06081718180E020
:1037C00090E00E5F1F4FA4010E94D31FA82EA818DF
:1037D000FB2DFF777F2E76FE0BC0372D3E7FA51485
:1037E00050F474FE0AC072FC08C0372D3E7E05C03E
:1037F000BA2C372D03C0BA2C01C0B52C34FF0DC034
:10380000FE01EA0DF11D8081803311F4397E09C07B
:1038100032FF06C0B394B39404C0832F867809F0B6
:10382000B39433FD13C030FF06C05A2CB31418F400
:10383000530C5B18B32CB31468F4B70180E290E02A
:103840003C870E94821FB3943C85F5CFB31410F4DB
:103850003B1801C0312C34FF12C0B70180E390E067
:103860003C870E94821F3C8532FF17C031FD03C098
:1038700088E790E002C088E590E0B7010CC0832F94
:10388000867859F031FF02C08BE201C080E237FD3B
:103890008DE2B70190E00E94821FA51438F4B701B1
:1038A00080E390E00E94821F5A94F7CFAA94F4011B
:1038B000EA0DF11D8081B70190E00E94821FA110E6
:1038C000F5CF332009F451CEB70180E290E00E9499
:1038D000821F3A94F6CFF7018681978102C08FEF5D
:1038E0009FEF2C96E2E10C94B82320FD09C0FC0167
:1038F00023FD05C022FF02C073836283518340838E
:10390000089544FD10C046FD10C0DB01FC01AA0F64
:10391000BB1FEE1FFF1F1094D1F76A0F7B1F8E1F76
:103920009F1F31E003C033E001C034E0660F771F12
:10393000881F991F3150D1F7620F711D811D911D94
:1039400008950F931F93CF93DF938C01C8010E94BA
:10395000441FEC0197FD08C00E947A20892BB1F723
:10396000B801CE010E94BA1FCE01DF91CF911F9105
:103970000F910895A1E0B0E0E0ECFCE10C94A223EB
:103980008C01C62E7A0129830E94441FAC01552761
:1039900029814B32510521F04D32510569F42068DF
:1039A000CA94C11002C080E076C0C80129830E9479
:1039B000441F298197FDF7CF322F3D7FD32E322F21
:1039C000307349F5803339F5BB24BA94BC0C09F443
:1039D0004EC0C80129830E94441F298197FD47C01A
:1039E000382F3F7D383569F48D2D8264D82ECA94E6
:1039F000CA94CC20E1F1C8010E94441F97FF0BC07C
:103A000036C026FF04C02D2D2260D22E03C03D2DCE
:103A10003261D32ECB2C812C912C540120ED280F18
:103A2000283080F0D4FE04C0B8010E94BA1F1CC028
:103A30002A3040F0D6FEF8CF2F7D3FEE320F3630E1
:103A400098F727504D2DC501B4010E94811C4B01F0
:103A50005C018D2D8260D82ECA94CC2059F0C8010B
:103A60000E94441F97FFDACFD1FC04C09CCF812C69
:103A7000912C5401D7FE08C0B094A09490948094E7
:103A8000811C911CA11CB11C2D2DB501A401C701E5
:103A90000E94751C81E02196ECE00C94BE23A1E20B
:103AA000B0E0E5E5FDE10C94A0235C017A01CE01D4
:103AB00001966C0180E2F60111928A95E9F7F50111
:103AC000838040E050E0912C712C70E0A1E0B0E0E8
:103AD000F90183FC859183FE81918F01982F9F01CD
:103AE000811103C080E090E07CC08E3519F441154F
:103AF000510549F1E72FF0E0E417F5073CF48D3567
:103B000059F18D3219F4772001F103C0711001C011
:103B1000982E892F8695869586958601080F111D0A
:103B2000892F87703D0101C0660C8A95EAF7F8017C
:103B3000808186298083991559F0991510F49F5F2B
:103B4000E8CF9150E6CF71E004C07724739401C0B0
:103B5000712C4F5F5F4FBCCF772019F08E81806250
:103B60008E83711103C09924939416C0F6019E01AF
:103B70002F5D3F4F808180958193E217F307D1F746
:103B8000F2CFE114F10429F0F7018083C701019617
:103B90007C016150912CF9F0C50169A30E94441F7A
:103BA00069A197FD16C0282F269526952695F60122
:103BB000E20FF11D208130E0AC014770552702C0B3
:103BC000359527954A95E2F720FDDBCFB5010E9498
:103BD000BA1F911087CFE114F10411F0F7011082A0
:103BE000C801A196EEE00C94BC234F925F927F92A5
:103BF0008F929F92AF92BF92CF92DF92EF92FF92FD
:103C00000F931F93CF93DF931F92CDB7DEB76C0155
:103C10002B015A01FC0117821682712CF601F380E8
:103C2000F201F3FC8591F3FE8191382F2F01882357
:103C300009F4F3C090E039830E947A203981892BFE
:103C400021F0C6010E94A11CE9CF353241F4F201F6
:103C5000F3FC3591F3FE31912F01353269F4C60141
:103C600039830E94441F398197FDD5C03817B1F2BE
:103C7000B6010E94BA1FD1C03A3239F4F3FC359133
:103C8000F3FE31912F0151E001C050E0420110E0FC
:103C900020ED230F2A3090F45260612F70E080E015
:103CA00090E040E259830E94811C162FF401F3FC3E
:103CB0003591F3FE31914F015981EACF052F232F22
:103CC000240151FF03C0111102C0A7C01FEF3836F5
:103CD00019F03C3659F011C0F401F3FC2591F3FEC4
:103CE00021912F01283649F4052F08600460F20164
:103CF000F3FC2591F3FE21912F01222309F48DC0BD
:103D0000622F70E085E892E029830E94231F2981B9
:103D1000892B09F482C000FD07C0F501E080F18025
:103D2000C50102965C0102C0E12CF12C2E3651F443
:103D3000F6014681578160E070E0202FC7010E94A4
:103D4000751C6CCF233691F401FF11E0C6010E946F
:103D5000441F97FD60C0E114F10429F0F70180834E
:103D6000C70101967C01115089F751C02B3559F4D8
:103D70009201A701612FC6010E944F1D2C01892BC2
:103D800009F045C03FC0C60129830E94A11C2981BA
:103D900097FD41C02F3659F128F4243631F12936E8
:103DA00049F127C0233769F02537F9F022C0E11423
:103DB000F10429F0F7018082C70101967C011150BE
:103DC00071F0C6010E94441F4C0197FD08C00E947B
:103DD0007A20892B61F3B601C4010E94BA1FE11455
:103DE000F104A9F0F701108212C0006203C0006163
:103DF00001C00064202FA701612FC6010E94BA1CD8
:103E0000811105C0F6018381807329F406C000FD8D
:103E100005CF739403CF772019F0872D90E002C06F
:103E20008FEF9FEF0F90DF91CF911F910F91FF9038
:103E3000EF90DF90CF90BF90AF909F908F907F904A
:103E40005F904F900895FC010590061621F0002028
:103E5000D9F7C00108953197CF010895FC0105906D
:103E6000615070400110D8F7809590958E0F9F1F7C
:103E70000895FC016150704001900110D8F78095C1
:103E800090958E0F9F1F0895CF93DF93EC012B81A8
:103E900020FF33C026FF0AC02F7B2B838E819F819A
:103EA00001969F838E838A8190E029C022FF0FC0F4
:103EB000E881F9818081082E000C990B009719F494
:103EC00020622B831AC03196F983E8830EC0EA85FD
:103ED000FB85099597FF09C02B81019611F080E2BF
:103EE00001C080E1822B8B8308C02E813F812F5F30
:103EF0003F4F3F832E83992702C08FEF9FEFDF91C3
:103F0000CF9108950F931F93CF93DF93FB012381EC
:103F100021FD03C08FEF9FEF28C022FF16C046810E
:103F20005781248135814217530744F4A081B18120
:103F30009D012F5F3F4F318320838C9326813781F2
:103F40002F5F3F4F3783268310C0EB01092F182FB7
:103F50000084F185E02D0995892BE1F68E819F8102
:103F600001969F838E83812F902FDF91CF911F9198
:103F70000F910895FB01238120FF12C026FD10C080
:103F80008F3F3FEF930761F082832F7D206423836F
:103F90002681378121503109378326839927089557
:103FA0008FEF9FEF0895FA01AA27283051F12031B1
:103FB00081F1E8946F936E7F6E5F7F4F8F4F9F4FBD
:103FC000AF4FB1E03ED0B4E03CD0670F781F891FFF
:103FD0009A1FA11D680F791F8A1F911DA11D6A0FCD
:103FE000711D811D911DA11D20D009F468943F9180
:103FF0002AE0269F11243019305D3193DEF6CF017F
:104000000895462F4770405D4193B3E00FD0C9F744
:10401000F6CF462F4F70405D4A3318F0495D31FDB1
:104020004052419302D0A9F7EACFB4E0A695979504
:10403000879577956795BA95C9F7009761057105DA
:1040400008959B01AC010A2E069457954795379524
:104050002795BA95C9F7620F731F841F951FA01D7E
:104060000895662777270C94C320FC018827992799
:10407000E89421912032E9F3293010F02E30C8F372
:104080002B3241F02D3239F4689404C00E94BB20D9
:10409000820F911D219120532A30C0F31EF4909578
:1040A00081959F4F08951F93FC0199278827BC0194
:1040B000E89411911032E9F3193010F01E30C8F372
:1040C0001B3251F01D3249F4689406C00E94A620AC
:1040D000610F711D811D911D119110531A30B0F3A4
:1040E0003EF490958095709561957F4F8F4F9F4FCF
:1040F0001F91089591110C942022803219F089505B
:104100008550C8F70895FB01DC018D910590801959
:104110000110D9F3990B0895FB0155915523A9F08E
:10412000BF01DC014D9145174111E1F759F4CD0173
:104130000590002049F04D9140154111C9F3FB0154
:104140004111EFCF81E090E001970895592F482F5A
:10415000372F262F660F771F881F991F660F771F2F
:10416000881F991F620F731F841F951F660F771F8B
:10417000881F991F08957AE0979F902D879F802D23
:10418000910D11240895A0E0B0E0E9ECF0E20C9468
:10419000A023EC017B016115710519F0DB018D9302
:1041A0009C938E010F5F1F4F7880872D90E00E94B7
:1041B0007A20892B11F0E801F4CFBDE27B1205C013
:1041C0000F5F1F4F7980C1E008C0EBE27E1204C090
:1041D0008E010E5F1F4F7980C0E06801F1E0CF1AB9
:1041E000D10843E050E069E972E0C6010E94232251
:1041F000892BF1F4680122E0C20ED11C45E050E0A9
:1042000064E972E0C6010E942322892B21F468012F
:1042100087E0C80ED11CE114F10419F0D701CD924A
:10422000DC92C111FFC060E070E080E89FE703C14D
:1042300043E050E061E972E0C6010E942322892B2D
:1042400051F4E114F10409F4F2C00E5F1F4FF701BD
:1042500011830083ECC0680160E070E0CB0100E0F6
:1042600010E0F601D0EDD70DDA3058F52C2F226092
:10427000622E2C2F2870C2FF05C0211128C00F5FAD
:104280001F4F25C0222311F001501109A5E0B0E015
:104290009B01AC010E9491234B015C01880C991C8D
:1042A000AA1CBB1CC501B4016D0F711D811D911DA0
:1042B0006839A9E97A078A07A9E19A0740F0C66038
:1042C00005C0DE3F51F4C3FD44C0C8606C2EBFEF93
:1042D000CB1ADB0A7080C62DC4CF2D2F2F7D253140
:1042E000C1F540814D3211F4C06106C04B3221F05E
:1042F000319621E030E006C03296D60111964C91FD
:1043000022E030E0A0EDA40FAA3018F0E21BF30B7E
:1043100020C040E050E04038BCE05B075CF49A010C
:10432000220F331F220F331F420F531F440F551FFD
:104330004A0F511D3196DF0111972C91A0EDA20F6C
:10434000AA3048F3C4FF03C0519541955109040FA9
:10435000151FC1FF07C0E114F10421F03197D70107
:10436000ED93FC930E944022C370C33019F06B019F
:104370007C0106C06B017C01F7FAF094F7F8F09429
:1043800020E030E0A901C701B6010E943B2288234A
:1043900009F445C017FF06C0119501951109C0EB3E
:1043A000D2E002C0C8ECD2E05E01B8E1AB1AB108BD
:1043B0004601BE2DAF2D90E2E92EF12C0E151F0502
:1043C00084F0FE012591359145915491B4018B2FD4
:1043D0009A2F0E94A1224B01B82FA92F0E191F0955
:1043E000EDCF2497F594E794CA15DB0539F76401FE
:1043F000EB2EFA2E8E2D880F8F2D881F8F3F49F0C0
:1044000020E030E0A901C701B6010E943B228111E2
:1044100006C082E290E090930A0780930907C701E3
:10442000B60109C060E070E080E89FEF04C060E082
:1044300070E080EC9FE7CDB7DEB7EEE00C94BC23D4
:10444000992788270895FB01DC014150504088F0EE
:104450008D9181341CF08B350CF4805E6591613454
:104460001CF06B350CF4605E861B611171F3990BC7
:104470000895881BFCCF0E947D2208F481E00895F6
:10448000E89409C097FB3EF49095809570956195EE
:104490007F4F8F4F9F4F9923A9F0F92F96E9BB27A4
:1044A0009395F695879577956795B795F111F8CF20
:1044B000FAF4BB0F11F460FF1BC06F5F7F4F8F4F8B
:1044C0009F4F16C0882311F096E911C0772321F081
:1044D0009EE8872F762F05C0662371F096E8862F19
:1044E00070E060E02AF09A95660F771F881FDAF770
:1044F000880F9695879597F90895990F0008550F9D
:10450000AA0BE0E8FEEF16161706E807F907C0F059
:1045100012161306E407F50798F0621B730B840B61
:10452000950B39F40A2661F0232B242B252B21F43B
:1045300008950A2609F4A140A6958FEF811D811DDB
:1045400008950E94B4220C9425230E94172338F06A
:104550000E941E2320F0952311F00C940E230C943E
:10456000142311240C9459230E94362370F3959F31
:10457000C1F3950F50E0551F629FF001729FBB275A
:10458000F00DB11D639FAA27F00DB11DAA1F649FF6
:104590006627B00DA11D661F829F2227B00DA11DA9
:1045A000621F739FB00DA11D621F839FA00D611D2F
:1045B000221F749F3327A00D611D231F849F600D50
:1045C000211D822F762F6A2F11249F5750409AF079
:1045D000F1F088234AF0EE0FFF1FBB1F661F771F05
:1045E000881F91505040A9F79E3F510580F00C94D0
:1045F0000E230C9459235F3FE4F3983ED4F3869541
:1046000077956795B795F795E7959F5FC1F7FE2B6F
:10461000880F911D9695879597F9089597F99F674B
:1046200080E870E060E008959FEF80EC089500243A
:104630000A941616170618060906089500240A9407
:1046400012161306140605060895092E0394000C8D
:1046500011F4882352F0BB0F40F4BF2B11F460FF1C
:1046600004C06F5F7F4F8F4F9F4F089557FD905845
:10467000440F551F59F05F3F71F04795880F97FB26
:10468000991F61F09F3F79F08795089512161306E0
:104690001406551FF2CF4695F1DF08C0161617060F
:1046A0001806991FF1CF8695710561050894089544
:1046B000E894BB2766277727CB0197F90895DB019C
:1046C0008F939F930E949123BF91AF91A29F800DE2
:1046D000911DA39F900DB29F900D11240895A1E20A
:1046E0001A2EAA1BBB1BFD010DC0AA1FBB1FEE1F6C
:1046F000FF1FA217B307E407F50720F0A21BB30BB7
:10470000E40BF50B661F771F881F991F1A9469F732
:1047100060957095809590959B01AC01BD01CF018E
:1047200008950E94D323A59F900DB49F900DA49F40
:10473000800D911D112408952F923F924F925F9208
:104740006F927F928F929F92AF92BF92CF92DF92A1
:10475000EF92FF920F931F93CF93DF93CDB7DEB706
:10476000CA1BDB0B0FB6F894DEBF0FBECDBF09949A
:104770002A88398848885F846E847D848C849B84F1
:10478000AA84B984C884DF80EE80FD800C811B81FF
:10479000AA81B981CE0FD11D0FB6F894DEBF0FBE2E
:1047A000CDBFED010895A29FB001B39FC001A39FAB
:1047B000700D811D1124911DB29F700D811D11245A
:1047C000911D089511E0C7E6D1E004C0FE010E94EA
:0E47D0004E182196C836D107C9F7F894FFCFCE
:1047DE002B061105DC14DC14456D70747900000095
:1047EE0000000000000000000000000000000000BB
:1047FE0000000000000000000000000000000000AB
:10480E00000000000000000000000000000000009A
:10481E00000000000000000041542B434D47533D63
:10482E002200000000000000000000000000000058
:10483E000000000000000000000062103710AB14F2
:10484E0089149D14001500000000C60B3710D20B02
:10485E00BA0BAE0BA20B00000000DD143710DD14F6
:10486E00DD14DD14DD1400000000DD14371000002F
:10487E000000F70B37104B0C630CDE0BF60B2D0004
:10488E004469646E27742066696E6420534D53200C
:10489E006D65737361676520696E20736C6F74212B
:1048AE00005265636569766564206D657373616733
:1048BE00652066726F6D3A20004D65737361676592
:1048CE002072656365697665642066726F6D20730C
:1048DE00656E6465723A002447504747410024478D
:1048EE0050524D43000A54696D653A20004461747C
:1048FE00653A20002F3230004C6F636174696F6E21
:10490E003A20002C20006C61743A20257325642E09
:10491E00253034640A006C6F6E673A202573256467
:10492E002E25303464004E6F2067707320666978D0
:10493E002E00436F756C646E742073656E64206D0B
:10494E0065737361676520746F20696E74656E643C
:10495E00656420726563697069656E742E0031330B
:10496E00353238353737333130002B434D54493AD1
:10497E002022534D222C25640041542B434D474495
:10498E003D3030300024504D544B3331342C302CCC
:10499E00312C302C312C302C302C302C302C302C27
:1049AE00302C302C302C302C302C302C302C302C19
:1049BE00302C302A32380024504D544B3232302CA9
:1049CE00313030302A314600245047434D442C3389
:1049DE00332C312A3643005E5A002B434D47530089
:1049EE004F4B006E616E00696E66006F7666000D4D
:1049FE000A004154490041542B474D4D00464F4E3D
:084A0E0041205265616479004A
:107E0000112484B714BE81FFF0D085E080938100F7
:107E100082E08093C00088E18093C10086E0809377
:107E2000C20080E18093C4008EE0C9D0259A86E02C
:107E300020E33CEF91E0309385002093840096BBD3
:107E4000B09BFECF1D9AA8958150A9F7CC24DD24C4
:107E500088248394B5E0AB2EA1E19A2EF3E0BF2EE7
:107E6000A2D0813461F49FD0082FAFD0023811F036
:107E7000013811F484E001C083E08DD089C08234E0
:107E800011F484E103C0853419F485E0A6D080C0E4
:107E9000853579F488D0E82EFF2485D0082F10E0AE
:107EA000102F00270E291F29000F111F8ED06801E7
:107EB0006FC0863521F484E090D080E0DECF843638
:107EC00009F040C070D06FD0082F6DD080E0C81688
:107ED00080E7D80618F4F601B7BEE895C0E0D1E017
:107EE00062D089930C17E1F7F0E0CF16F0E7DF06D8
:107EF00018F0F601B7BEE89568D007B600FCFDCFD4
:107F0000A601A0E0B1E02C9130E011968C91119780
:107F100090E0982F8827822B932B1296FA010C0160
:107F200087BEE89511244E5F5F4FF1E0A038BF0790
:107F300051F7F601A7BEE89507B600FCFDCF97BE46
:107F4000E89526C08437B1F42ED02DD0F82E2BD052
:107F50003CD0F601EF2C8F010F5F1F4F84911BD097
:107F6000EA94F801C1F70894C11CD11CFA94CF0C13
:107F7000D11C0EC0853739F428D08EE10CD085E9AC
:107F80000AD08FE07ACF813511F488E018D01DD067
:107F900080E101D065CF982F8091C00085FFFCCF94
:107FA0009093C60008958091C00087FFFCCF809118
:107FB000C00084FD01C0A8958091C6000895E0E648
:107FC000F0E098E1908380830895EDDF803219F02E
:107FD00088E0F5DFFFCF84E1DECF1F93182FE3DFCA
:107FE0001150E9F7F2DF1F91089580E0E8DFEE27F6
:047FF000FF270994CA
:027FFE00040479
:0400000300007E007B
:00000001FF