:100000000C944B010C94F9040C94D2040C94C50A82
:100010000C94C50A0C94C50A0C9473010C947301DA
:100020000C9473010C9473010C9473010C94730180
:100030000C9473010C9473010C9473010C94730170
:100040000C9488040C9473010C9494030C946E0328
:100050000C9473010C9473010C9473010C94730150
:100060000C9473010C9473012B434D47523A004199
:10007000542B434D47523D0041542B434D47523D75
:100080000041542B435344483D310041542B434DD0
:1000900047463D31002B434D47523A0041542B43D4
:1000A0004D47523D0041542B434D47523D00415472
:1000B0002B435344483D310041542B434D47463D6B
:1000C00031005265706C792073656E7420737563AE
:1000D0006365737366756C6C792E005265706C790C
:1000E0002073656E74207375636365737366756CD6
:1000F0006C792E0000000000240027002A00000078
:100100000000250028002B00040404040404040457
:1001100002020202020203030303030301020408B2
:100120001020408001020408102001020408102061
:1001300000000008000201000003040700000000A6
:1001400000000000093C2D2D2D2000092D2D2D3EF5
:1001500020004F4B00464F4E4100464F4E416E65CA
:100160007400000000002300260029003E20003E0D
:10017000200041542B434D47463D310041542B4311
:100180004D47463D3100093C2D2D2D2000092D2DD8
:100190002D3E200053494D3830304800093C2D2D6C
:1001A0002D2000092D2D2D3E200053494D434F4D4C
:1001B0005F53494D35333230450053494D434F4D20
:1001C0005F53494D35333230410053494D3830305B
:1001D000205231330053494D3830382052313300EA
:1001E00053494D3830382052313400093C2D2D2DE3
:1001F0002000092D2D2D3E200041542B43564855FB
:100200003D300041544530004154453000415400D8
:1002100041540041540054696D656F75743A204E25
:100220006F20726573706F6E736520746F20415418
:100230002E2E2E206C6173742064697463682061B3
:100240007474656D70742E00415400415400415423
:1002500000417474656D7074696E6720746F206FEF
:1002600070656E20636F6D6D2077697468204154EE
:100270007300436F756C646E27742066696E64202A
:10028000464F4E41006364696E6F70737578585BBA
:100290000000550B270C11241FBECFEFD8E0DEBFA6
:1002A000CDBF12E0A0E0B1E0EAE3F6E202C00590C3
:1002B0000D92AE37B107D9F726E0AEE7B2E001C044
:1002C0001D92AE34B207E1F711E0CAE4D1E004C0F8
:1002D0002197FE010E94F10EC934D107C9F70E948F
:1002E0003D0C0C9410130C940000CF92DF92EF920F
:1002F000FF920F931F93CF93DF936C017A018B01D1
:10030000C0E0D0E0CE15DF0589F0D8016D918D01F8
:10031000D601ED91FC910190F081E02DC601099587
:10032000892B11F47E0102C02196ECCFC701DF9129
:10033000CF911F910F91FF90EF90DF90CF90089594
:10034000FC01918D828D981761F0828DDF01A80FDD
:10035000B11D5D968C91928D9F5F9F73928F90E0FF
:1003600008958FEF9FEF0895FC01918D828D98176E
:1003700031F0828DE80FF11D858D90E008958FEFAB
:100380009FEF0895FC01918D228D892F90E0805C74
:100390009F4F821B91098F7399270895FC01848DCB
:1003A000DF01A80FB11DA35ABF4F2C91848D90E09F
:1003B00001968F739927848FA689B7892C93A0897A
:1003C000B1898C9180648C93938D848D981306C031
:1003D0000288F389E02D80818F7D80830895EF92DC
:1003E000FF920F931F93CF93DF93EC0181E0888FEF
:1003F0009B8D8C8D981305C0E889F989808185FDD6
:1004000024C0F62E0B8D10E00F5F1F4F0F731127C6
:10041000E02E8C8DE8120CC00FB607FCFACFE889ED
:10042000F989808185FFF5CFCE010E94CE01F1CF01
:100430008B8DFE01E80FF11DE35AFF4FF0820B8F09
:10044000EA89FB898081806207C0EE89FF89608329
:10045000E889F98980818064808381E090E0DF9180
:10046000CF911F910F91FF90EF900895CF93DF935D
:10047000EC01888D8823C9F0EA89FB89808185FD9C
:1004800005C0A889B9898C9186FD0FC00FB607FCFD
:10049000F5CF808185FFF2CFA889B9898C9185FF3E
:1004A000EDCFCE010E94CE01E7CFDF91CF9108952D
:1004B0003FB7F8948091200390912103A0912203EB
:1004C000B091230326B5A89B05C02F3F19F00196D4
:1004D000A11DB11D3FBFBA2FA92F982F8827820FCA
:1004E000911DA11DB11DBC01CD0142E0660F771F1A
:1004F000881F991F4A95D1F70895089561157105D0
:1005000079F0FB0101900020E9F73197AF01461B1C
:10051000570BDC01ED91FC910280F381E02D0994F1
:1005200080E090E008950E94F70E6EEA71E00C946E
:100530007E028F929F92AF92BF92EF92FF920F93A3
:100540001F93CF93DF93CDB7DEB7A1970FB6F89483
:10055000DEBF0FBECDBF7C01262F30E040E050E073
:1005600019A28E010F5D1F4F8AE0882E912CA12CBD
:10057000B12CCA01B901A50194010E94B712605DB6
:10058000F80162938F01211531054105510589F765
:10059000BF01C7010E947E028C01C7010E94950223
:1005A000800F911FA1960FB6F894DEBF0FBECDBF8E
:1005B000DF91CF911F910F91FF90EF90BF90AF907F
:1005C0009F908F9008950F931F93CF93DF93EC012B
:1005D0000E947E028C01CE010E949502800F911F25
:1005E000DF91CF911F910F910895EF92FF920F939A
:1005F0001F93CF93DF938C017B01C0E0D0E0F70124
:10060000EC0FFD1F6491662361F0D801ED91FC9120
:100610000190F081E02DC8010995892B11F02196F8
:10062000EECFCE01DF91CF911F910F91FF90EF9010
:1006300008950F931F93CF93DF93EC010E94F5026F
:100640008C01CE010E949502800F911FDF91CF9106
:100650001F910F910895EF92FF920F931F93CF93E5
:10066000DF93EC018B017A010E94D9086BE471E001
:100670008EE792E00E94F502B8018EE792E00E94B8
:100680001903FE01E85EFE4FB801808191810E944E
:10069000190340E064EF71E0CE010E948308182F37
:1006A00064E471E08EE792E00E94F5022E96BE01AE
:1006B0008EE792E00E94E302112339F0B701CE01E8
:1006C0000E94891221E0892B09F020E0822FDF911E
:1006D000CF911F910F91FF90EF9008951F920F926D
:1006E0000FB60F9211242F933F934F935F936F9305
:1006F0007F938F939F93AF93BF93EF93FF938EE777
:1007000092E00E94CE01FF91EF91BF91AF919F9136
:100710008F917F916F915F914F913F912F910F90AA
:100720000FBE0F901F9018951F920F920FB60F9249
:1007300011242F938F939F93EF93FF93E0918E0259
:10074000F0918F028081E0919402F091950282FDF8
:1007500012C09081809197028F5F8F7320919802D1
:10076000821751F0E0919702F0E0E258FD4F958F2B
:100770008093970201C08081FF91EF919F918F91AB
:100780002F910F900FBE0F901F90189590E0FC01D5
:10079000E05DFE4F3491FC01E45EFE4F2491FC01CC
:1007A000E85FFE4FE491EE2309F43BC0332339F1B7
:1007B000333091F038F43130A9F0323001F584B59E
:1007C0008F7D12C0373091F03830A1F03430B9F459
:1007D000809180008F7D03C0809180008F7780930F
:1007E00080000DC084B58F7784BD09C08091B000B2
:1007F0008F7703C08091B0008F7D8093B000F0E0D0
:10080000EE0FFF1FE250FF4FA591B4918FB7F89400
:10081000EC91611103C020952E2301C02E2B2C9347
:100820008FBF0895CF93DF9390E0FC01E45EFE4F0D
:100830002491FC01E85FFE4F8491882361F190E0F0
:10084000880F991FFC01EC50FF4FC591D491FC011A
:10085000E250FF4FA591B491611109C09FB7F89480
:100860008881209582238883EC912E230BC06230EF
:1008700061F49FB7F8943881822F80958323888311
:10088000EC912E2B2C939FBF06C08FB7F894E88174
:100890002E2B28838FBFDF91CF9108958F929F9247
:1008A000AF92BF92CF92DF92EF92FF926B017C01E9
:1008B0000E9458024B015C01C114D104E104F1040F
:1008C000F1F00E945802DC01CB0188199909AA09AC
:1008D000BB09883E9340A105B10570F321E0C21A1F
:1008E000D108E108F10888EE880E83E0981EA11C6B
:1008F000B11CC114D104E104F10419F7DDCFFF905C
:10090000EF90DF90CF90BF90AF909F908F90089521
:100910001F920F920FB60F9211242F933F938F9334
:100920009F93AF93BF9380911C0390911D03A0915F
:100930001E03B0911F0330911B0323E0230F2D37BB
:1009400020F40196A11DB11D05C026E8230F0296D3
:10095000A11DB11D20931B0380931C0390931D03C5
:10096000A0931E03B0931F03809120039091210355
:10097000A0912203B09123030196A11DB11D809384
:10098000200390932103A0932203B0932303BF91EC
:10099000AF919F918F913F912F910F900FBE0F902C
:1009A0001F9018951F920F920FB60F9211242F933C
:1009B0003F934F935F936F937F938F939F93AF93E7
:1009C000BF93EF93FF93E0910601F0910701099522
:1009D000FF91EF91BF91AF919F918F917F916F9117
:1009E0005F914F913F912F910F900FBE0F901F90ED
:1009F00018951F920F920FB60F9211242F933F93C9
:100A00004F935F936F937F938F939F93AF93BF9316
:100A1000EF93FF93E0910401F09105010995FF9197
:100A2000EF91BF91AF919F918F917F916F915F9166
:100A30004F913F912F910F900FBE0F901F901895DF
:100A40004F925F926F927F928F929F92AF92BF92DE
:100A5000CF92DF92EF92FF920F931F93CF93DF938A
:100A6000CDB7DEB7CE54D1400FB6F894DEBF0FBE7F
:100A7000CDBF86E0E8E0F1E0DE01A353BF4F019077
:100A80000D928A95E1F7EDECF0E0EC0FFD1F369644
:100A90008AE3DF011D928A95E9F700910201109126
:100AA0000301D801ED91FC910480F581E02DC8018E
:100AB0000995892B09F44EC06E01B3EBCB1ABEEF3A
:100AC000DB0AF601118210827E01FDE8EF0EF11CB7
:100AD00047018FE3880E911C7E2C6F2C5701D801A3
:100AE000ED91FC910680F781E02DC8010995F70191
:100AF00081937F01682F8EE792E00E94EF0161E011
:100B000070E080E090E00E944E04D5018C918A3024
:100B100069F0D801ED91FC910480F581E02DC801C8
:100B20000995892B19F0E814F904C1F6F501118231
:100B3000DF92CF9280E492E09F938F936F927F92A7
:100B40000E94390F0F900F900F900F900F900F9001
:100B5000019759F1E12CF12C8E0103531F4F68E0EE
:100B600071E0C8010E94070F892B09F4D2C1B801B6
:100B70008EE792E00E94E302C0900201D090030150
:100B8000A801B701C6010E949D098111ABC148E0CF
:100B900052E064E372E0C6010E949D0962EC70E0DD
:100BA0008EE792E00E941903B4C1F601A08078019B
:100BB000FAEEEF1AFEEFFF0AD7014D915C9168EB58
:100BC00070E0C8010E942B03882309F475C0F70167
:100BD000408151816EEA70E0C8010E942B03B82E5B
:100BE000882309F469C065EA70E08EE792E00E940C
:100BF000F5026A2D8EE792E00E9499026CE970E09E
:100C00004801F8EE8F1AFEEF9F0AD4018D919C9156
:100C10000E94F5026A2DF401808191810E9499025F
:100C200040E068EE73E0C8010E9483084801FEE0DE
:100C30008F0E911CB4018EE792E00E94E30265E9F9
:100C400070E0C4010E949212009781F16CE270E0A2
:100C500006960E94FC0E009749F1FC01319650E087
:100C600040E0252F30E02F3131050CF5842F90E046
:100C7000DF010D900020E9F71197AE1BBF0B8A171B
:100C80009B0708F03EC1DF01A80FB91F8C918C3281
:100C900009F437C1823241F0ADE2B1E0AC0FBD1FC3
:100CA000A20FB31F8C935F5F4F5FDBCFB12CC801E6
:100CB0000E94D908B11019C061EB71E08EE792E093
:100CC0000E94E3028CE0E4E3F2E0DE011196019081
:100CD0000D928A95E1F7FE013196DE01A35FBE4FCA
:100CE0009E01235F3F4FCD010EC0FE01E35DFE4F2D
:100CF000DE01A35FBE4FCF01809621912D93E817AF
:100D0000F907D9F70CC041914D93E217F307D9F7D2
:100D1000FC013C9680961192E817F907E1F78EE7FF
:100D200092E00E94950262ED71E08EE792E00E94EF
:100D3000E3024E0183EF881A8EEF980AB4018EE722
:100D400092E00E94E3028EE792E00E9495028EE715
:100D500092E00E9495026AEE71E08EE792E00E94B6
:100D6000E302D601DC90F701408151816BE870E02D
:100D7000C8010E942B03882309F4A2C0D7014D911A
:100D80005C9161E870E0C8010E942B03882309F49C
:100D900097C068E770E08EE792E00E94F5026D2D43
:100DA0008EE792E00E9499023801B8EE6B1ABEEF0E
:100DB0007B0A6FE670E0F301808191810E94F50269
:100DC0006D2DD3018D919C910E94990240E068EEB7
:100DD00073E0C8010E9483087801BEE0EB0EF11CAD
:100DE000B7018EE792E00E94E30268E670E0C70177
:100DF0000E949212009709F463C006962BE0D22E4F
:100E00006CE270E00E94FC0E009709F459C0019654
:100E1000DA94D110F5CF0E9462126C012701A12C47
:100E2000B12CAC14BD0421F18EEFA816B104E9F089
:100E3000F30180819181DC01ED91FC910480F581C9
:100E4000E02D0995892B69F3F30180819181DC0103
:100E5000ED91FC910680F781E02D0995F2018193D7
:100E60002F01FFEFAF1ABF0ADCCF9EEFC92ED12CA6
:100E7000F801EC0DFD1D1686C8010E94D908F70186
:100E800001900020E9F731976F01CE18DF08ADE837
:100E9000CA16D10418F08CE8C82ED12CA601B701CF
:100EA000CE0101960E94100FE1E0F0E0EC0FFD1F73
:100EB000EC0DFD1D1082B7018EE792E00E94E30267
:100EC0008EE792E00E949502F12C6F2DC8010E94DE
:100ED0003F09F394B8E0FB12F8CF74018E010F5F65
:100EE0001F4F3DCE8EE792E00E9495026BED70E0C1
:100EF0008EE792E00E9419038EE792E00E9495022D
:100F000008C0EDE2F1E0EC0FFD1FE20FF31F1082CD
:100F1000CECEC25BDE4F0FB6F894DEBF0FBECDBFA4
:100F2000DF91CF911F910F91FF90EF90DF90CF90C5
:100F3000BF90AF909F908F907F906F905F904F90F9
:100F40000895FC01E85EFE4F80819181DC01ED9106
:100F5000FC910284F385E02D0994FC01E85EFE4FCC
:100F600080819181DC01ED91FC910084F185E02D7F
:100F70000994FC01E85EFE4F80819181DC01ED91D6
:100F8000FC910680F781E02D0994FC01E85EFE4F9C
:100F900080819181DC01ED91FC910190F081E02D47
:100FA0000994FC01E85EFE4F80819181DC01ED91A6
:100FB000FC910480F581E02D099420914C0630913C
:100FC0004D062817390771F490914A0680914B0617
:100FD000981741F0E0914A06F0E0E65FF94F808112
:100FE00090E008958FEF9FEF089508951F93CF939A
:100FF000DF93DC015C962D913C915D9721153105C5
:1010000039F481E090E013969C938E9312973DC043
:101010005196ED91FC91529750969C915097892F43
:1010200080951FB75E964C915E9741FB772770F9CC
:1010300041FD6095F8944081772311F0492B01C060
:1010400048234083E9012197F1F748E0508160FF90
:1010500002C0592B01C058235083E9012197F1F7B1
:101060006695415099F7772321F0908189238083F9
:1010700003C08081982B90831FBF5C968D919C91BB
:101080005D970197F1F721E030E0C901DF91CF9141
:101090001F91089520914C0630914D06281739076D
:1010A00071F480914B0620914A0690E0805C9F4F3E
:1010B000821B910960E470E00E94C90E089580E0EF
:1010C00090E0089520914C0630914D06281739077D
:1010D000B9F490914A0680914B06981789F0E091F7
:1010E0004A06F0E0E65FF94F808120914A0630E041
:1010F0002F5F3F4F2F73332720934A0690E00895C8
:101100008FEF9FEF0895BF92CF92DF92EF92FF9201
:101110000F931F93CF93DF937C01B42E8B01C0E01C
:10112000D0E06C0188EEC81A8EEFD80A01151105BF
:1011300089F1CE3FD10570F5F60180819181DC0106
:10114000ED91FC910480F581E02D0995892BC1F08A
:10115000D6018D919C91DC01ED91FC910680F78187
:10116000E02D09958D3041F38A3021F4209721F349
:10117000BB2081F0F701EC0FFD1F86872196DCCFA5
:101180000150110939F061E070E080E090E00E94C8
:101190004E04CCCFF701EC0FFD1F16868C2FDF918C
:1011A000CF911F910F91FF90EF90DF90CF90BF9064
:1011B00008950F931F93CF93DF938C01C0E0D0E08D
:1011C000CE010196A897E8F4EC01D801ED91FC91CD
:1011D0000480F581E02DC8010995892B59F0D801CB
:1011E000ED91FC910680F781E02DC8010995C0E0E2
:1011F000D0E0EBCF61E070E080E090E00E944E0430
:10120000DFCFDF91CF911F910F910895EF92FF9261
:101210000F931F93CF93DF93EC018B017A010E9410
:10122000D9086DE871E08EE792E00E94F502B801FE
:101230008EE792E00E94E302FE01E85EFE4FB801F5
:10124000808191810E94E30240E0B701CE010E94BB
:101250008308182F66E871E08EE792E00E94F5029D
:10126000BE01625F7F4F8EE792E00E94E302812F12
:10127000DF91CF911F910F91FF90EF900895DF9232
:10128000EF92FF920F931F93CF93DF93CDB7DEB70B
:101290002C970FB6F894DEBF0FBECDBF8C01D62EB3
:1012A0007C018AEEE81A8EEFF80AF701408151813D
:1012B0006CE771E0C8010E942B03282F882371F18D
:1012C0009CE0EFE4F2E0DE01119601900D929A9518
:1012D000E1F78D2D64E60E94BD0E20E3280F2987DB
:1012E000892F6AE00E94BD0E805D8A87905D9B8792
:1012F000F701E080F18040ED57E0BE016F5F7F4F66
:10130000C8010E940609882341F0B701C8010E9662
:101310000E94891221E0892B09F020E0822F2C966F
:101320000FB6F894DEBF0FBECDBFDF91CF911F91F6
:101330000F91FF90EF90DF900895AF92BF92CF9200
:10134000DF92EF92FF920F931F93CF93DF93CDB76E
:10135000DEB76E970FB6F894DEBF0FBECDBF8C011F
:101360006B015A01FC01EA5EFE4F4081518162E748
:1013700071E00E942B03882309F48EC08AE0E0E923
:10138000F1E09E012F5F3F4F7901D90101900D924D
:101390008A95E1F7FE013B9684E1DF011D928A9573
:1013A000E9F743E150E0B601CE010A960E94100F22
:1013B000F70101900020E9F7319782E2808344EF42
:1013C00051E0B701C8010E940609882309F464C0EE
:1013D0006801BEE0CB0ED11C6FE671E0C6010E9431
:1013E0008912892B09F058C06CE671E08EE792E013
:1013F0000E94F502B5018EE792E00E94E302B5017A
:101400007801E8EEEE1AEEEFFE0AD7018D919C917D
:101410000E94E302F701808191810E949502D70129
:101420008D919C91DC01ED91FC910190F081E02D7A
:101430006AE109956BE572E08EE792E00E94E302B3
:10144000F80185858450823060F440E068EC70E0FB
:10145000C8010E94830840E068EC70E0C8010E9467
:10146000830840E060E177E2C8010E9483086EE5EE
:1014700072E0C6010E941F0F892B71F040E068EEF8
:1014800073E0C8010E94830864E672E0C6010E940E
:10149000070F21E0892B09F020E0822F6E960FB60E
:1014A000F894DEBF0FBECDBFDF91CF911F910F919A
:1014B000FF90EF90DF90CF90BF90AF9008950F9383
:1014C0001F93CF93DF93EC01162F042F1B821A82F8
:1014D00088EE93E0A0E0B0E08C839D83AE83BF8371
:1014E0008CE491E0998388831F8A1E8A198E188E56
:1014F0001B8E1A8E1D8E1C8E6E8D6E7F20FB61F9E9
:101500006E8F6695617081E06827842F0E94C60304
:1015100061E0802F0E941204402F50E0FA01E45E47
:10152000FE4FE491E88BFA01E85FFE4FE491F0E0B2
:10153000EE0FFF1FE250FF4F859194919A8B898B9C
:1015400060E0812F0E9412048E8D81FD04C061E055
:10155000812F0E94C6031C87612F70E0FB01E45EAF
:10156000FE4FE491ED87FB01E85FFE4FE491F0E070
:10157000EE0FFF1FEE59FE4F859194919F878E8746
:10158000DF91CF911F910F9108951F920F920FB687
:101590000F9211242F933F934F935F936F937F93F9
:1015A0008F939F93AF93BF93EF93FF93E0914C067C
:1015B000F0914D06309709F451C0968DA685B785F8
:1015C000858591FF04C09C91892329F447C09C9193
:1015D000892309F043C0A389B4899C9185898095AA
:1015E00089238C93868997890197F1F7608D718D96
:1015F000A685B785558538E020E0CB010197F1F746
:10160000822F90E095958795282F4C91452309F0DE
:101610002068315091F7868D81FD209580914B0691
:1016200090E001968F73992730914A06381749F058
:10163000A0914B06B0E0A65FB94F2C9380934B0668
:1016400003C0868D8160868F828D938D0197F1F71F
:10165000A389B4899C918589892B8C93FF91EF9103
:10166000BF91AF919F918F917F916F915F914F91BA
:101670003F912F910F900FBE0F901F901895E09102
:101680004C06F0914D06E817F90769F4A389B4896F
:101690009C918589809589238C9310924D06109298
:1016A0004C0681E0089580E00895CF92DF92EF929A
:1016B000FF92EEE7F2E01382128288EEC82E83E0FA
:1016C000D82EE12CF12CC482D582E682F7828CE5FB
:1016D00091E09183808385EC90E09587848784EC0A
:1016E00090E09787868780EC90E0918B808B81ECEF
:1016F00090E0938B828B82EC90E0958B848B86ECD0
:1017000090E0978B868B118E128E138E148E20E0B4
:1017100047E068E082EA95E00E945F0AE3E5F5E0D1
:101720001092A1051092A0051092190410929D0527
:10173000109218048EE993E0909317048093160496
:1017400084E293E090939D0380939C031092900514
:1017500014AE15821482138212821182108212AE8C
:1017600011AE10AE13AE1782168214AA15AA16AACD
:1017700017AA10AA11AA12AA13AA14A615A616A689
:1017800017A610A611A612A613A614A215A216A299
:1017900017A210A211A212A213A2148615861686F1
:1017A0001786108611861286138682EA95E090933A
:1017B0009F0580939E0520E045E066E084E395E088
:1017C0000E945F0AEAE1F4E013821282C482D582A9
:1017D000E682F7828CE691E09183808384E08487BF
:1017E0008AE591E0909328058093270510922A05B9
:1017F0001092290510922C0510922B05109233059A
:101800001092320510922D0585E591E090932F05F9
:1018100080932E0582E591E0909331058093300509
:10182000E1ECF5E016821782108611861286138687
:101830001486158616861786108A118A128A138ACC
:10184000148A158AFF90EF90DF90CF900895CF9380
:10185000DF93CCE4D1E0D0933505C093340584E325
:1018600095E00E943F0BD093A305C093A20582EAA6
:1018700095E0DF91CF910C943F0B789484B5826012
:1018800084BD84B5816084BD85B5826085BD85B524
:10189000816085BD80916E00816080936E001092A2
:1018A000810080918100826080938100809181001D
:1018B00081608093810080918000816080938000AE
:1018C0008091B10084608093B1008091B00081600C
:1018D0008093B00080917A00846080937A00809138
:1018E0007A00826080937A0080917A008160809390
:1018F0007A0080917A00806880937A001092C1000B
:10190000E0918E02F0918F0282E08083E0918A0262
:10191000F0918B021082E0918C02F0918D0280E1B7
:10192000808310929602E0919202F091930286E0F9
:101930008083E0919002F0919102808180618083A8
:10194000E0919002F0919102808188608083E09123
:101950009002F0919102808180688083E0919002F2
:10196000F091910280818F7D8083C0910001D091A0
:1019700001011B8E1A8E198E188E1F8A1E8A8EE305
:1019800093E09D8F8C8F8C85863108F04DC02DE8BB
:1019900031E03F8B2E8B2CE333E0398F288F24E608
:1019A00032E03B8F2A8F90916800883050F021E020
:1019B0008E3008F420E081E001C0880F2A95EAF714
:1019C00001C084E0892B809368009C85983038F0B2
:1019D0009E3040F0963148F020E030E008C02DE61F
:1019E00030E005C02BE630E002C02CE630E03C8B56
:1019F0002B8B983030F481E001C0880F9A95EAF77C
:101A00000EC0292F30E09E3018F42850310902C052
:101A10002E50310981E001C0880F2A95EAF78D8B9D
:101A20008C8D9D8D0197F1F78A8D9B8D892BE1F02F
:101A300080914C0690914D068C179D07A9F0009758
:101A400011F00E943F0B8E8D8E7F8E8F10924B0671
:101A500010924A06D0934D06C0934C06EB89FC8940
:101A600090818D89892B8083C0910201D0910301DF
:101A70007E0188EEE81A8EEFF80A809100019091BD
:101A80000101D7018D939C9361E08C850E94120423
:101A900061E08C850E94C6036AE070E080E090E01F
:101AA0000E944E0460E08C850E94C60364E670E0EC
:101AB00080E090E00E944E0461E08C850E94C603A5
:101AC00061E572E08EE792E00E9419038EE0C82E75
:101AD000D12C8E010A5E1E4FF70180819181DC01BD
:101AE000ED91FC910480F581E02D0995892B59F049
:101AF000F70180819181DC01ED91FC910680F781F5
:101B0000E02D0995E9CFF801408151816EE472E042
:101B1000CE010E942B0381115BC0F701808191816E
:101B2000DC01ED91FC910480F581E02D0995892B74
:101B300059F0D7018D919C91DC01ED91FC910680CB
:101B4000F781E02D0995E9CF48E452E06BE472E0BB
:101B5000CE010E942B0381113BC064EF71E080E055
:101B600090E00E944E04B1E0CB1AD10809F0B4CF46
:101B700066E172E08EE792E00E941903D8014D9170
:101B80005C9163E172E0CE010E942B0364E670E099
:101B900080E090E00E944E04F8014081518160E1B4
:101BA00072E0CE010E942B0364E670E080E090E0DA
:101BB0000E944E04D8014D915C916DE072E0CE011F
:101BC0000E942B0364E670E080E090E00E944E04E7
:101BD000F8014081518168E072E0CE010E942B0340
:101BE00064E670E080E090E00E944E04D8014D91E0
:101BF0005C9163E072E0CE010E942B03882309F41C
:101C0000B5C0F8014081518169EF71E0CE010E94B9
:101C10002B0364E670E080E090E00E944E04CE0169
:101C20000E94D90862EF71E08EE792E00E94F5020F
:101C300067E672E08EE792E00E94E30267E672E0F8
:101C4000D7018D919C910E94E30241E064EF71E025
:101C5000CE010E9483086BEE71E08EE792E00E9455
:101C6000F5028E01025F1F4FB8018EE792E00E94DD
:101C7000E30260EE71E0C8010E949212892B11F01C
:101C800083E023C065ED71E0C8010E949212892BA8
:101C900011F082E01AC06AEC71E0C8010E94921251
:101CA000892B11F081E011C06AEB71E0C8010E943C
:101CB0009212892B11F084E008C06AEA71E0C80131
:101CC0000E949212892B11F085E08D878D858130DD
:101CD00069F563EA71E08EE792E00E94F5026BE637
:101CE00072E08EE792E00E94E3026BE672E0F70199
:101CF000808191810E94E30241E064EF71E0CE01B6
:101D00000E9483086CE971E08EE792E00E94F50280
:101D1000B8018EE792E00E94E30264E971E0C80135
:101D20000E949212892B11F086E08D878EE792E057
:101D30000E94950262E772E08EE792E00E94E30261
:101D40008EE792E00E949502C0E06C2F8091020124
:101D5000909103010E943F09CF5FC032B1F70E940A
:101D600020058EE792E00E943602F9CF62E772E02A
:101D70008EE792E00E941903FFCF991B79E004C01F
:101D8000991F961708F0961B881F7A95C9F78095BA
:101D9000089597FB072E16F4009407D077FD09D01D
:101DA0000E94DD0E07FC05D03EF4909581959F4F73
:101DB0000895709561957F4F0895AA1BBB1B51E153
:101DC00007C0AA1FBB1FA617B70710F0A61BB70BAB
:101DD000881F991F5A95A9F780959095BC01CD0150
:101DE0000895EE0FFF1F0590F491E02D099481E016
:101DF00090E0F8940C941013FC018191861721F067
:101E00008823D9F7992708953197CF010895FB01C9
:101E1000DC018D91019080190110D9F3990B08957F
:101E2000FB01DC014150504048F001900D92002030
:101E3000C9F701C01D9241505040E0F70895FB01E1
:101E400051915523A9F0BF01DC014D914517411176
:101E5000E1F759F4CD010190002049F04D91401572
:101E60004111C9F3FB014111EFCF81E090E00197EF
:101E70000895AEE0B0E0EFE3FFE00C94E91285E0F6
:101E80008C838B899C899A838983AE01495E5F4FDD
:101E90006D897E89CE0101960E94D2102E96E2E0D5
:101EA0000C94051320FD09C0FC0123FD05C022FF91
:101EB00002C07383628351834083089544FD10C040
:101EC00046FD10C0DB01FC01AA0FBB1FEE1FFF1F68
:101ED0001094D1F76A0F7B1F8E1F9F1F31E003C044
:101EE00033E001C034E0660F771F881F991F31501F
:101EF000D1F7620F711D811D911D08950F931F93DE
:101F0000CF93DF938C01C8010E940B12EC0197FD67
:101F100008C00E948012892BB1F7B801CE010E943F
:101F20004912CE01DF91CF911F910F910895A1E049
:101F3000B0E0EDE9FFE00C94DF128C01C62E7A01CF
:101F400029830E940B12AC01552729814B32510580
:101F500021F04D32510569F42068CA94C11002C0C5
:101F600080E076C0C80129830E940B12298197FD69
:101F7000F7CF322F3D7FD32E322F307349F5803388
:101F800039F5BB24BA94BC0C09F44EC0C8012983AE
:101F90000E940B12298197FD47C0382F3F7D3835AD
:101FA00069F48D2D8264D82ECA94CA94CC20E1F1B4
:101FB000C8010E940B1297FF0BC036C026FF04C059
:101FC0002D2D2260D22E03C03D2D3261D32ECB2C7D
:101FD000812C912C540120ED280F283080F0D4FE64
:101FE00004C0B8010E9449121CC02A3040F0D6FE3D
:101FF000F8CF2F7D3FEE320F363098F727504D2D1A
:10200000C501B4010E945E0F4B015C018D2D826001
:10201000D82ECA94CC2059F0C8010E940B1297FF09
:10202000DACFD1FC04C09CCF812C912C5401D7FE77
:1020300008C0B094A09490948094811C911CA11C21
:10204000B11C2D2DB501A401C7010E94520F81E0E2
:102050002196ECE00C94FB12A1E2B0E0E2E3F0E1A7
:102060000C94DD125C017A01CE0101966C0180E2D4
:10207000F60111928A95E9F7F501838040E050E07E
:10208000912C712C70E0A1E0B0E0F90183FC859106
:1020900083FE81918F01982F9F01811103C080E001
:1020A00090E07CC08E3519F44115510549F1E72FB8
:1020B000F0E0E417F5073CF48D3559F18D3219F451
:1020C000772001F103C0711001C0982E892F8695E9
:1020D000869586958601080F111D892F87703D0111
:1020E00001C0660C8A95EAF7F80180818629808311
:1020F000991559F0991510F49F5FE8CF9150E6CFEC
:1021000071E004C07724739401C0712C4F5F5F4F5E
:10211000BCCF772019F08E8180628E83711103C04D
:102120009924939416C0F6019E012F5D3F4F808144
:1021300080958193E217F307D1F7F2CFE114F10410
:1021400029F0F7018083C70101967C016150912C31
:10215000F9F0C50169A30E940B1269A197FD16C091
:10216000282F269526952695F601E20FF11D208150
:1021700030E0AC014770552702C0359527954A9548
:10218000E2F720FDDBCFB5010E944912911087CF05
:10219000E114F10411F0F7011082C801A196EEE0FC
:1021A0000C94F9124F925F927F928F929F92AF920E
:1021B000BF92CF92DF92EF92FF920F931F93CF9334
:1021C000DF931F92CDB7DEB76C012B015A01FC01E2
:1021D00017821682712CF601F380F201F3FC8591CF
:1021E000F3FE8191382F2F01882309F4F3C090E08A
:1021F00039830E9480123981892B21F0C6010E9407
:102200007E0FE9CF353241F4F201F3FC3591F3FE54
:1022100031912F01353269F4C60139830E940B12C6
:10222000398197FDD5C03817B1F2B6010E94491225
:10223000D1C03A3239F4F3FC3591F3FE31912F01DC
:1022400051E001C050E0420110E020ED230F2A30A0
:1022500090F45260612F70E080E090E040E259839A
:102260000E945E0F162FF401F3FC3591F3FE3191BD
:102270004F015981EACF052F232F240151FF03C0BD
:10228000111102C0A7C01FEF383619F03C3659F0C3
:1022900011C0F401F3FC2591F3FE21912F012836A2
:1022A00049F4052F08600460F201F3FC2591F3FE68
:1022B00021912F01222309F48DC0622F70E085E85F
:1022C00092E029830E9400122981892B09F482C09F
:1022D00000FD07C0F501E080F180C50102965C01B8
:1022E00002C0E12CF12C2E3651F4F60146815781C3
:1022F00060E070E0202FC7010E94520F6CCF2336A0
:1023000091F401FF11E0C6010E940B1297FD60C01D
:10231000E114F10429F0F7018083C70101967C01E3
:10232000115089F751C02B3559F49201A701612F43
:10233000C6010E942C102C01892B09F045C03FC01A
:10234000C60129830E947E0F298197FD41C02F3647
:1023500059F128F4243631F1293649F127C02337C1
:1023600069F02537F9F022C0E114F10429F0F701F2
:102370008082C70101967C01115071F0C6010E9454
:102380000B124C0197FD08C00E948012892B61F34B
:10239000B601C4010E944912E114F104A9F0F70149
:1023A000108212C0006203C0006101C00064202FCF
:1023B000A701612FC6010E94970F811105C0F60188
:1023C0008381807329F406C000FD05CF739403CF89
:1023D000772019F0872D90E002C08FEF9FEF0F90CC
:1023E000DF91CF911F910F91FF90EF90DF90CF90F1
:1023F000BF90AF909F908F907F905F904F90089587
:10240000FC010590061621F00020D9F7C0010895BF
:102410003197CF010895CF93DF93EC012B8120FFFB
:1024200033C026FF0AC02F7B2B838E819F810196AC
:102430009F838E838A8190E029C022FF0FC0E881AC
:10244000F9818081082E000C990B009719F4206205
:102450002B831AC03196F983E8830EC0EA85FB8589
:10246000099597FF09C02B81019611F080E201C008
:1024700080E1822B8B8308C02E813F812F5F3F4FED
:102480003F832E83992702C08FEF9FEFDF91CF917B
:102490000895FB01238120FF12C026FD10C08F3F4D
:1024A0003FEF930761F082832F7D20642383268191
:1024B00037812150310937832683992708958FEF7B
:1024C0009FEF0895FC0188279927E89421912032F5
:1024D000E9F3293010F02E30C8F32B3241F02D32C1
:1024E00039F4689404C00E94AC12820F911D2191AE
:1024F00020532A30C0F31EF4909581959F4F089584
:1025000091110C94B412803219F089508550C8F79B
:102510000895FB01DC018D91059080190110D9F31C
:10252000990B0895FB0155915523A9F0BF01DC01DA
:102530004D9145174111E1F759F4CD010590002067
:1025400049F04D9140154111C9F3FB014111EFCF05
:1025500081E090E0019708957AE0979F902D879F02
:10256000802D910D11240895992788270895A1E2BF
:102570001A2EAA1BBB1BFD010DC0AA1FBB1FEE1FFD
:10258000FF1FA217B307E407F50720F0A21BB30B48
:10259000E40BF50B661F771F881F991F1A9469F7C4
:1025A00060957095809590959B01AC01BD01CF0120
:1025B00008952F923F924F925F926F927F928F92E7
:1025C0009F92AF92BF92CF92DF92EF92FF920F93C2
:1025D0001F93CF93DF93CDB7DEB7CA1BDB0B0FB6CC
:1025E000F894DEBF0FBECDBF09942A883988488889
:1025F0005F846E847D848C849B84AA84B984C8841F
:10260000DF80EE80FD800C811B81AA81B981CE0F15
:10261000D11D0FB6F894DEBF0FBECDBFED010895FA
:1026200011E0CAE4D1E004C0FE010E94F10E21963F
:0A263000CB34D107C9F7F894FFCFAF
:10263A0034051A047D027D02456D7074790000002C
:10264A000000000000000000000000000000000080
:10265A000000000000000000000000000000000070
:10266A000000000000000000000000000000000060
:10267A00000000000000000000000000F6077501DD
:10268A004A086208DD07F50700000000EF0175013E
:10269A00C201A001B401360200000000C50775019D
:1026AA00D107B907AD07A107000000009302750121
:1026BA0093029302930293020000000093027501B1
:1026CA0041542B434D47533D2200000000000000B7
:1026DA0000000000000000000000000000000D0AD9
:1026EA00004469646E27742066696E6420534D53F2
:1026FA00206D65737361676520696E20736C6F74F2
:10270A0021005265636569766564206D657373613E
:10271A0067652066726F6D3A20004D657373616755
:10272A00652072656365697665642066726F6D20DF
:10273A0073656E6465723A00436F756C646E7420DB
:10274A0073656E64206D65737361676520746F20AD
:10275A00696E74656E646564207265636970696523
:10276A006E742E0031333532383537373331300015
:10277A002B434D54493A2022534D222C25640041C3
:10278A00542B434D47443D303030005E5A002B43B2
:10279A004D4753004F4B004154490041542B474D7C
:0E27AA004D00464F4E4120526561647900009B
:107E0000112484B714BE81FFF0D085E080938100F7
:107E100082E08093C00088E18093C10086E0809377
:107E2000C20080E18093C4008EE0C9D0259A86E02C
:107E300020E33CEF91E0309385002093840096BBD3
:107E4000B09BFECF1D9AA8958150A9F7CC24DD24C4
:107E500088248394B5E0AB2EA1E19A2EF3E0BF2EE7
:107E6000A2D0813461F49FD0082FAFD0023811F036
:107E7000013811F484E001C083E08DD089C08234E0
:107E800011F484E103C0853419F485E0A6D080C0E4
:107E9000853579F488D0E82EFF2485D0082F10E0AE
:107EA000102F00270E291F29000F111F8ED06801E7
:107EB0006FC0863521F484E090D080E0DECF843638
:107EC00009F040C070D06FD0082F6DD080E0C81688
:107ED00080E7D80618F4F601B7BEE895C0E0D1E017
:107EE00062D089930C17E1F7F0E0CF16F0E7DF06D8
:107EF00018F0F601B7BEE89568D007B600FCFDCFD4
:107F0000A601A0E0B1E02C9130E011968C91119780
:107F100090E0982F8827822B932B1296FA010C0160
:107F200087BEE89511244E5F5F4FF1E0A038BF0790
:107F300051F7F601A7BEE89507B600FCFDCF97BE46
:107F4000E89526C08437B1F42ED02DD0F82E2BD052
:107F50003CD0F601EF2C8F010F5F1F4F84911BD097
:107F6000EA94F801C1F70894C11CD11CFA94CF0C13
:107F7000D11C0EC0853739F428D08EE10CD085E9AC
:107F80000AD08FE07ACF813511F488E018D01DD067
:107F900080E101D065CF982F8091C00085FFFCCF94
:107FA0009093C60008958091C00087FFFCCF809118
:107FB000C00084FD01C0A8958091C6000895E0E648
:107FC000F0E098E1908380830895EDDF803219F02E
:107FD00088E0F5DFFFCF84E1DECF1F93182FE3DFCA
:107FE0001150E9F7F2DF1F91089580E0E8DFEE27F6
:047FF000FF270994CA
:027FFE00040479
:0400000300007E007B
:00000001FF