:100000000C9489000C9413070C94EC060C94D90200
:100010000C94D9020C94D9020C94B1000C94B10048
:100020000C94B1000C94B1000C94B1000C94B1008C
:100030000C94B1000C94B1000C9495010C94B10097
:100040000C94A2060C94B1000C94EA050C94C4051F
:100050000C94B1000C94B1000C94B1000C94B1005C
:100060000C94B1000C94B1000000000024002700A3
:100070002A000000000023002600290000000000E4
:10008000250028002B0004040404040404040202D4
:100090000202020203030303030301020408102007
:1000A0004080010204081020010204081020000012
:1000B0000008000201000003040700000000000027
:1000C00000004F4B00464F4E4100464F4E416E657B
:1000D00074004E414E494E495459494E46CDCCCC00
:1000E0003D0AD7233C17B7D13877CC2B329595E60C
:1000F000241FB14F0A000020410000C84200401CEC
:100100004620BCBE4CCA1B0E5AAEC59D7400940E50
:10011000660F11241FBECFEFD8E0DEBFCDBF11E0C8
:10012000A0E0B1E0ECE3FAE202C005900D92AC3D34
:10013000B107D9F725E0ACEDB1E001C01D92AF3AAF
:10014000B207E1F710E0C8E8D0E004C02197FE0153
:100150000E94C30FC738D107C9F70E943A070C9411
:1001600011150C940000FC01E85EFE4F8081918126
:10017000DC01ED91FC910284F385E02D0994FC01F2
:10018000E85EFE4F80819181DC01ED91FC9100845D
:10019000F185E02D0994FC01E85EFE4F808191819C
:1001A000DC01ED91FC910680F781E02D0994FC01C2
:1001B000E85EFE4F80819181DC01ED91FC91019020
:1001C000F081E02D0994FC01E85EFE4F8081918171
:1001D000DC01ED91FC910480F581E02D09942091E2
:1001E0002002309121022817390771F490911E02E4
:1001F00080911F02981741F0E0911E02F0E0E35257
:10020000FE4F808190E008958FEF9FEF089508954D
:100210001F93CF93DF93DC015C962D913C915D970A
:100220002115310539F481E090E013969C938E936B
:1002300012973DC05196ED91FC91529750969C912A
:100240005097892F80951FB75E964C915E9741FB22
:10025000772770F941FD6095F8944081772311F07C
:10026000492B01C048234083E9012197F1F748E079
:10027000508160FF02C0592B01C058235083E9010F
:100280002197F1F76695415099F7772321F09081F6
:100290008923808303C08081982B90831FBF5C9645
:1002A0008D919C915D970197F1F721E030E0C901B4
:1002B000DF91CF911F91089520912002309121026A
:1002C0002817390771F480911F0220911E0290E0D7
:1002D000805C9F4F821B910960E470E00E947C0F5C
:1002E000089580E090E0089520912002309121024D
:1002F00028173907B9F490911E0280911F029817B0
:1003000089F0E0911E02F0E0E352FE4F80812091DF
:100310001E0230E02F5F3F4F2F73332720931E02C2
:1003200090E008958FEF9FEF08951F920F920FB600
:100330000F9211242F933F934F935F936F937F936B
:100340008F939F93AF93BF93EF93FF938091FF039E
:1003500081116DC08091000490910104009779F0A3
:10036000DC01ED91FC910480F581E02D0995892B4C
:1003700009F45DC0809100049091010412C0809145
:10038000020490910304DC01ED91FC910480F5815D
:10039000E02D0995892B09F44AC0809102049091BF
:1003A0000304DC01ED91FC910680F781E02D0995B5
:1003B0008A3049F59091B303E091B103F091B20313
:1003C000E90FF11D10822091B1033091B203B3E027
:1003D00029333B0739F44FEB52E05093B20340937B
:1003E000B10308C029E333E03093B2032093B10393
:1003F0002FEB32E030933803209337031092B3038E
:1004000091E09093B403E091B103F091B203909125
:10041000B30321E0290F2093B303E90FF11D80837B
:100420008091B303883718F087E78093B303FF9177
:10043000EF91BF91AF919F918F917F916F915F915C
:100440004F913F912F910F900FBE0F901F901895D5
:10045000AF92BF92CF92DF92FF920F931F93CF93F1
:10046000DF931F92CDB7DEB75C01F62EFC0113823D
:10047000128288EE93E0A0E0B0E084839583A683A7
:10048000B78388E091E091838083178A168A118E62
:10049000108E138E128E158E148E668D6E7F20FB3D
:1004A00061F9668F6695617081E06827842F4983C2
:1004B0000E941C06498150E0BA0166567F4FFB013D
:1004C000A4914A575F4FFA0184918823A9F090E0E4
:1004D000880F991F9C0128593F4FF90105911491EC
:1004E00084589F4FFC01259134918FB7F894F801FF
:1004F0009081A92BA0838FBFFB016491F501608BD4
:10050000FA014491E42FF0E0EE0FFF1FE458FF4F93
:1005100085919491F501928B818B0F2D10E0C8018C
:1005200086569F4F6C01FC0184910A571F4FF801BA
:1005300024912223C1F030E0220F331FF901E85942
:10054000FF4FA591B49124583F4FF9014591549123
:100550002FB7F8949C91809598239C93FA019081F1
:10056000892380832FBFF501868D81FD04C061E062
:100570008F2D0E941C06F501F486F601C490F5014A
:10058000C586F8010491E02FF0E0EE0FFF1FEE5852
:10059000FF4F85919491F501978786870F90DF91A2
:1005A000CF911F910F91FF90DF90CF90BF90AF90B0
:1005B00008951F920F920FB60F9211242F933F931D
:1005C0004F935F936F937F938F939F93AF93BF935B
:1005D000EF93FF93E0912002F0912102309709F40C
:1005E00051C0968DA685B785858591FF04C09C91E5
:1005F000892329F447C09C91892309F043C0A3892A
:10060000B4899C918589809589238C938689978963
:100610000197F1F7608D718DA685B785558538E016
:1006200020E0CB010197F1F7822F90E09595879517
:10063000282F4C91452309F02068315091F7868D81
:1006400081FD209580911F0290E001968F7399277C
:1006500030911E02381749F0A0911F02B0E0A3525A
:10066000BE4F2C9380931F0203C0868D8160868FBE
:10067000828D938D0197F1F7A389B4899C91858927
:10068000892B8C93FF91EF91BF91AF919F918F91A7
:100690007F916F915F914F913F912F910F900FBE7E
:1006A0000F901F901895E0912002F0912102E81719
:1006B000F90769F4A389B4899C9185898095892378
:1006C0008C93109221021092200281E0089580E024
:1006D0000895CF92DF92EF92FF920F931F93CF93E3
:1006E000DF936C017A018B01C0E0D0E0CE15DF050D
:1006F00089F0D8016D918D01D601ED91FC910190A9
:10070000F081E02DC6010995892B11F47E0102C00C
:100710002196ECCFC701DF91CF911F910F91FF90F0
:10072000EF90DF90CF900895FC01918D828D981706
:1007300061F0828DDF01A80FB11D5D968C91928DC5
:100740009F5F9F73928F90E008958FEF9FEF0895C2
:10075000FC01918D828D981731F0828DE80FF11D8B
:10076000858D90E008958FEF9FEF0895FC01918DA6
:10077000228D892F90E0805C9F4F821B91098F739F
:1007800099270895FC01848DDF01A80FB11DA35A9C
:10079000BF4F2C91848D90E001968F739927848FA1
:1007A000A689B7892C93A089B1898C9180648C9398
:1007B000938D848D981306C00288F389E02D808183
:1007C0008F7D80830895EF92FF920F931F93CF93B5
:1007D000DF93EC0181E0888F9B8D8C8D981305C091
:1007E000E889F989808185FD24C0F62E0B8D10E003
:1007F0000F5F1F4F0F731127E02E8C8DE8120CC076
:100800000FB607FCFACFE889F989808185FFF5CF1B
:10081000CE010E94C203F1CF8B8DFE01E80FF11DC6
:10082000E35AFF4FF0820B8FEA89FB898081806257
:1008300007C0EE89FF896083E889F9898081806437
:10084000808381E090E0DF91CF911F910F91FF9025
:10085000EF900895CF93DF93EC01888D8823C9F042
:10086000EA89FB89808185FD05C0A889B9898C91B9
:1008700086FD0FC00FB607FCF5CF808185FFF2CF54
:10088000A889B9898C9185FFEDCFCE010E94C20362
:10089000E7CFDF91CF9108953FB7F8948091090495
:1008A00090910A04A0910B04B0910C0426B5A89B6A
:1008B00005C02F3F19F00196A11DB11D3FBFBA2FF2
:1008C000A92F982F8827820F911DA11DB11DBC0152
:1008D000CD0142E0660F771F881F991F4A95D1F717
:1008E000089508950E944A11E0912202F091230296
:1008F0000190F081E02D682F82E292E00994611569
:10090000710579F0FB0101900020E9F73197AF0103
:10091000461B570BDC01ED91FC910280F381E02D29
:10092000099480E090E00895CF93DF93BC01C091DB
:100930000004D0910104209721F4C0910204D091C9
:100940000304CE010E947F0466EA71E0CE01DF91CC
:10095000CF910C947F048F929F92AF92BF920F938E
:100960001F93CF93DF93CDB7DEB7A1970FB6F8945F
:10097000DEBF0FBECDBF19A2423008F44AE08E019F
:100980000F5D1F4F842E912CA12CB12CA501940139
:100990000E949E14E62FB901CA0101501109EA30E4
:1009A00014F4E05D01C0E95CD801EC93232B242B07
:1009B000252B61F7B80182E292E00E947F04A196A4
:1009C0000FB6F894DEBF0FBECDBFDF91CF911F9160
:1009D0000F91BF90AF909F908F9008954F925F922C
:1009E0006F927F928F929F92AF92BF92CF92DF923F
:1009F000EF92FF926B017C01B42E9B01AC010E942F
:100A00004511882319F060ED71E027C026013701F8
:100A1000E89477F82FEF3FEF4FE75FE7C301B201AC
:100A20000E94451181110DC02FEF3FEF4FE75FE7A7
:100A3000C301B2010E946A1318161CF464ED71E040
:100A40000CC02FEF3FEF4FE75FE4C701B6010E94F4
:100A50004011181694F468ED71E082E292E0FF9084
:100A6000EF90DF90CF90BF90AF909F908F907F904E
:100A70006F905F904F900C947F042FEF3FEF4FE704
:100A80005FECC701B6010E946A1387FDE4CF20E046
:100A900030E0A901C701B6010E946A1387FF09C0AF
:100AA0008DE20E9474044C01F7FAF094F7F8F09488
:100AB00002C0812C912CA12C60E070E080E09FE3CB
:100AC000AB1441F020E030E040E251E40E943610E7
:100AD000A394F6CF9B01AC01C701B6010E94CA0FD7
:100AE0002B013C010E94AF106B017C010E946F132F
:100AF0009B01AC01C301B2010E94C90F2B013C0153
:100B00004AE0C701B6010E94AB047C01E80CF91C65
:100B1000BB2029F08EE20E947404E80EF91EDB2C43
:100B2000DD2021F120E030E040E251E4C301B201D8
:100B30000E94D0132B013C010E94AF104B01A12C4D
:100B4000B12C4AE0C501B4010E94AB04E80EF91EC5
:100B5000C501B4010E946F139B01AC01C301B20136
:100B60000E94C90F2B013C01DA94DACFC701FF9034
:100B7000EF90DF90CF90BF90AF909F908F907F903D
:100B80006F905F904F9008951F920F920FB60F9243
:100B900011242F933F934F935F936F937F938F9382
:100BA0009F93AF93BF93EF93FF9382E292E00E94F3
:100BB000C203FF91EF91BF91AF919F918F917F9170
:100BC0006F915F914F913F912F910F900FBE0F90BA
:100BD0001F9018951F920F920FB60F9211242F930A
:100BE0008F939F93EF93FF93E0913202F091330242
:100BF0008081E0913802F091390282FD12C090812B
:100C000080913B028F5F8F7320913C02821751F0DD
:100C1000E0913B02F0E0EE5DFD4F958F80933B024B
:100C200001C08081FF91EF919F918F912F910F9043
:100C30000FBE0F901F90189590E0FC01E255FF4FFA
:100C40003491FC01E656FF4F2491FC01EA57FF4F17
:100C5000E491EE2309F43BC0332339F1333091F0B2
:100C600038F43130A9F0323001F584B58F7D12C0EF
:100C7000373091F03830A1F03430B9F480918000F1
:100C80008F7D03C0809180008F77809380000DC09E
:100C900084B58F7784BD09C08091B0008F7703C081
:100CA0008091B0008F7D8093B000F0E0EE0FFF1FC9
:100CB000E458FF4FA591B4918FB7F894EC9161116E
:100CC00003C020952E2301C02E2B2C938FBF089597
:100CD0008F929F92AF92BF92CF92DF92EF92FF924C
:100CE0006B017C010E944C044B015C01C114D104D6
:100CF000E104F104F1F00E944C04DC01CB018819FD
:100D00009909AA09BB09883E9340A105B10570F372
:100D100021E0C21AD108E108F10888EE880E83E0CC
:100D2000981EA11CB11CC114D104E104F10419F7EF
:100D3000DDCFFF90EF90DF90CF90BF90AF909F906E
:100D40008F9008951F920F920FB60F9211242F9338
:100D50003F938F939F93AF93BF938091050490919E
:100D60000604A0910704B09108043091040423E024
:100D7000230F2D3720F40196A11DB11D05C026E8D3
:100D8000230F0296A11DB11D209304048093050436
:100D900090930604A0930704B0930804809109047B
:100DA00090910A04A0910B04B0910C040196A11D2E
:100DB000B11D8093090490930A04A0930B04B0938F
:100DC0000C04BF91AF919F918F913F912F910F9004
:100DD0000FBE0F901F9018951F920F920FB60F9293
:100DE00011242F933F934F935F936F937F938F9330
:100DF0009F93AF93BF93EF93FF93E0910201F09124
:100E000003010995FF91EF91BF91AF919F918F9150
:100E10007F916F915F914F913F912F910F900FBEF6
:100E20000F901F9018951F920F920FB60F921124DA
:100E30002F933F934F935F936F937F938F939F93E2
:100E4000AF93BF93EF93FF93E0910001F091010105
:100E50000995FF91EF91BF91AF919F918F917F91F4
:100E60006F915F914F913F912F910F900FBE0F9017
:100E70001F901895CF93DF93CDB7DEB72A970FB6A3
:100E8000F894DEBF0FBECDBF789484B5826084BD78
:100E900084B5816084BD85B5826085BD85B581607E
:100EA00085BD80916E00816080936E0010928100FC
:100EB00080918100826080938100809181008160B7
:100EC0008093810080918000816080938000809178
:100ED000B10084608093B1008091B0008160809304
:100EE000B00080917A00846080937A0080917A00CB
:100EF000826080937A0080917A00816080937A008A
:100F000080917A00806880937A001092C100E0910D
:100F10003202F091330282E08083E0912E02F09160
:100F20002F021082E0913002F091310280E1808343
:100F300010923A02E0913602F091370286E0808307
:100F4000E0913402F0913502808180618083E091EC
:100F50003402F0913502808188608083E091340210
:100F6000F0913502808180688083E0913402F091B5
:100F7000350280818F7D80838CE491E00E9494040F
:100F80008EE791E00E9494048FE891E00E9494041F
:100F90008FEA87BD80916E00826080936E0081E051
:100FA00080931D0268EE73E080E090E00E94680686
:100FB0003324339484E6C82ED12CE12CF12C0091FB
:100FC0000004109101040115110509F4A0C0D80115
:100FD0005B961C921E925A9759961C921E92589795
:100FE00057961C921E925697EDE9F1E05D96FC93A0
:100FF000EE935C971C969C911C97963108F05CC010
:101000002DEB30E057963C932E935697EBE9F1E0A9
:101010005996FC93EE9358972CE231E05B963C9303
:101020002E935A9780916800983050F021E09E30BE
:1010300008F420E0932D01C0990F2A95EAF701C02A
:1010400094E0892B80936800D8011C968C9188309D
:1010500038F08E3040F0863148F020E030E008C0B3
:101060002DE630E005C02BE630E002C02CE630E093
:10107000F801348B238B883038F4F32D01C0FF0F37
:101080008A95EAF78F2F0EC0282F30E08E3018F4A3
:101090002850310902C02E503109832D01C0880F1C
:1010A0002A95EAF7D80155968C9355975C968D91C1
:1010B0009C915D970197F1F7F801828D938D892BB3
:1010C00009F44EC08091200290912102801791076F
:1010D00009F446C0009711F00E945303D8015E96B0
:1010E0008C915E978E7F5E968C935E9710921F0216
:1010F00010921E0210932102009320025396ED914C
:10110000FC915497908155968C91892B28C0E09141
:101110000204F0910304A089B18982E08C93A48534
:10112000B5851C92A685B7858FEC8C93108EA4890B
:10113000B58986E08C93A289B3898C9180618C9368
:10114000A289B3898C9188608C93A289B3898C9190
:1011500080688C930288F389E02D80818F7D808365
:101160006AE070E080E090E00E94680668EB7BE057
:1011700080E090E00E9468062090B403211091C0A6
:101180006EE971E082E292E00E947F046091B50313
:1011900070E080E090E04AE00E94AB048AE30E94A5
:1011A00074046091B60370E080E090E04AE00E9431
:1011B000AB048AE30E9474046091B70370E080E09E
:1011C00090E04AE00E94AB048EE20E9474046091B9
:1011D000BB037091BC0380E090E04AE00E94AB0446
:1011E00066EA71E082E292E00E947F0469EA71E0BF
:1011F00082E292E00E947F046091BA0370E080E096
:1012000090E04AE00E94AB048FE20E947404609177
:10121000B90370E080E090E04AE00E94AB0460EB2C
:1012200071E082E292E00E947F046091B80370E076
:1012300080E090E04AE00E94AB0466EA71E082E25E
:1012400092E00E947F048091F003882309F467C52F
:1012500062EC71E082E292E00E947F046091CD0333
:101260007091CE038091CF039091D00344E00E940F
:10127000EE046DEC71E082E292E00E947F046091E6
:10128000D1037091D2038091D3039091D40344E0B1
:101290000E94EE0466EA71E082E292E00E947F041E
:1012A0003EC51092B4030091370310913803F80142
:1012B00001900020E9F731979F01201B310BA90114
:1012C00044505109F801E40FF51F80818A32E1F59D
:1012D000200F311FF90133978081803354F08A3316
:1012E00014F4805307C09FEB980F963010F4875387
:1012F00001C080E0B0E18B9FC0011124F901329759
:101300002081203354F02A3314F4205307C03FEBDC
:10131000320F363010F4275301C020E0820F911DA8
:1013200062E0262F30E02417350758F4F801E20F69
:10133000F31F2081022E000C330B822793276F5F4F
:10134000F0CF892B09F0EBC464EB71E0C8010E9477
:101350006911892B09F46FC26CE270E0C8010E9428
:101360004F118C010F5F1F4FC8010E9483114B0169
:101370005C010E94AF102B013C0120E137E240E00C
:1013800050E00E949E142093B503A70196010E948D
:101390009E142093B603C301B201A70196010E94D7
:1013A0009E146093B70320E030E040E85FE3C5019E
:1013B000B4010E94E91020E030E04AE754E40E94C2
:1013C000D0130E94AF107093BC036093BB036CE218
:1013D00070E0C8010E944F115C018C010F5F1F4F2C
:1013E000FC0181818C3209F4A9C042E050E0B801CF
:1013F000CE0101960E945A111B82CE0101960E94D5
:10140000A5119B01AC0160E876E988E990E00E94B3
:101410008E142B013C01B5016D5F7F4F42E050E01F
:10142000CE0101960E945A110B5F1F4F44E050E01D
:10143000B801CE0103960E945A111F82CE01019677
:101440000E94A5119B01AC01A2E3B0E00E94C01470
:1014500023E030E040E050E00E94900F49015A0143
:10146000D301C201820F931FA41FB51F8093C50330
:101470009093C603A093C703B093C803C301B201FE
:1014800020EA36E841E050E00E94900FCA01B9011D
:101490000E9471132B013C01C501B4010E9471131C
:1014A0002CE933E549EC56E30E94D0139B01AC01D3
:1014B000C301B2010E94CA0F2B013C016093BD031E
:1014C0007093BE038093BF039093C00320E030E08D
:1014D00048EC52E40E9436100E94A8104B015C01B7
:1014E00084E6889DB001899D700D1124072E000CA3
:1014F000880B990B0E9471139B01AC01C301B201CF
:101500000E94C90F20E030E040E752E40E9436100C
:101510002B013C01B401990C880B990B0E947113AB
:101520009B01AC01C301B2010E94CA0F6093CD03BD
:101530007093CE038093CF039093D0036CE270E05E
:10154000C8010E944F11FC019C012F5F3F4F818118
:101550008C3201F1833589F48091CD039091CE03D3
:10156000A091CF03B091D003B0588093CD03909356
:10157000CE03A093CF03B093D00391819E3411F09A
:10158000933519F49093ED0305C09C3209F0C7C35D
:101590001092ED036CE270E0C9010E944F115C01F2
:1015A0008C010F5F1F4FDC0111968C918C3209F476
:1015B000A9C043E050E0B801CE0101960E945A1143
:1015C0001C82CE0101960E94A5119B01AC0160E82E
:1015D00076E988E990E00E948E142B013C01B50168
:1015E0006C5F7F4F42E050E0CE0101960E945A119D
:1015F0000A5F1F4F44E050E0B801CE0103960E94FD
:101600005A111F82CE0101960E94A5119B01AC01C7
:10161000A2E3B0E00E94C01423E030E040E050E0DC
:101620000E94900F49015A01D301C201820F931FFA
:10163000A41FB51F8093C9039093CA03A093CB0343
:10164000B093CC03C301B20120EA36E841E050E098
:101650000E94900FCA01B9010E9471132B013C0135
:10166000C501B4010E9471132CE933E549EC56E33E
:101670000E94D0139B01AC01C301B2010E94CA0FAA
:101680002B013C016093C1037093C2038093C30399
:101690009093C40320E030E048EC52E40E943610FE
:1016A0000E94A8104B015C0184E6889DB001899DD1
:1016B000700D1124072E000C880B990B0E947113DA
:1016C0009B01AC01C301B2010E94C90F20E030E0D0
:1016D00040E752E40E9436102B013C01B401990C02
:1016E000880B990B0E9471139B01AC01C301B201DD
:1016F0000E94CA0F6093D1037093D2038093D303E7
:101700009093D4036CE270E0C8010E944F11FC0179
:101710009C012F5F3F4F81818C3201F1873589F425
:101720008091D1039091D203A091D303B091D403BF
:10173000B0588093D1039093D203A093D303B09376
:10174000D4039181973511F0953419F49093EE03F9
:1017500005C09C3209F0E3C21092EE036CE270E027
:10176000C9010E944F118C010F5F1F4FFC01818145
:101770008C3229F0C8010E9487118093F1036CE23A
:1017800070E0C8010E944F118C010F5F1F4FDC01F8
:1017900011968C918C3229F0C8010E948711809398
:1017A000F2036CE270E0C8010E944F118C010F5FE0
:1017B0001F4FFC0181818C3259F0C8010E948311B6
:1017C0006093E9037093EA038093EB039093EC0337
:1017D0006CE270E0C8010E944F118C010F5F1F4F37
:1017E000DC0111968C918C3259F0C8010E94831152
:1017F0006093D9037093DA038093DB039093DC0347
:101800006CE270E0C8010E944F116CE270E001963A
:101810000E944F11FC0121812C3209F47EC20196F5
:101820000E9483116093D5037093D6038093D703EE
:101830009093D80372C26BEB71E0C8010E946911EA
:10184000892B09F46CC26CE270E0C8010E944F1150
:101850008C010F5F1F4FC8010E9483114B015C0177
:101860000E94AF102B013C0120E137E240E050E044
:101870000E949E142093B503A70196010E949E1416
:101880002093B603C301B201A70196010E949E14E2
:101890006093B70320E030E040E85FE3C501B401A6
:1018A0000E94E91020E030E04AE754E40E94D0139F
:1018B0000E94AF107093BC036093BB036CE270E0B6
:1018C000C8010E944F11DC0111962C91213421F4A2
:1018D00021E02093F00305C0263509F020C21092C4
:1018E000F0036CE270E001960E944F115C018C01E4
:1018F0000F5F1F4FFC0181818C3209F4A9C042E0C7
:1019000050E0B801CE0101960E945A111B82CE010F
:1019100001960E94A5119B01AC0160E876E988E977
:1019200090E00E948E142B013C01B5016D5F7F4F4A
:1019300042E050E0CE0101960E945A110B5F1F4F0A
:1019400044E050E0B801CE0103960E945A111F8274
:10195000CE0101960E94A5119B01AC01A2E3B0E06B
:101960000E94C01423E030E040E050E00E94900F5D
:1019700049015A01D301C201820F931FA41FB51F51
:101980008093C5039093C603A093C703B093C80385
:10199000C301B20120EA36E841E050E00E94900F16
:1019A000CA01B9010E9471132B013C01C501B401A8
:1019B0000E9471132CE933E549EC56E30E94D013E1
:1019C0009B01AC01C301B2010E94CA0F2B013C0173
:1019D0006093BD037093BE038093BF039093C003D5
:1019E00020E030E048EC52E40E9436100E94A8103B
:1019F0004B015C0184E6889DB001899D700D112426
:101A0000072E000C880B990B0E9471139B01AC01EF
:101A1000C301B2010E94C90F20E030E040E752E468
:101A20000E9436102B013C01B401990C880B990BD4
:101A30000E9471139B01AC01C301B2010E94CA0F45
:101A40006093CD037093CE038093CF039093D00324
:101A50006CE270E0C8010E944F11FC019C012F5FF5
:101A60003F4F81818C3201F1833589F48091CD0320
:101A70009091CE03A091CF03B091D003B058809342
:101A8000CD039093CE03A093CF03B093D003918165
:101A90009E3411F0933519F49093ED0305C09C32F8
:101AA00009F03DC11092ED036CE270E0C9010E94A3
:101AB0004F115C018C010F5F1F4FDC0111968C915F
:101AC0008C3209F4A9C043E050E0B801CE01019680
:101AD0000E945A111C82CE0101960E94A5119B0101
:101AE000AC0160E876E988E990E00E948E142B0151
:101AF0003C01B5016C5F7F4F42E050E0CE010196A2
:101B00000E945A110A5F1F4F44E050E0B801CE0115
:101B100003960E945A111F82CE0101960E94A511C0
:101B20009B01AC01A2E3B0E00E94C01423E030E0CE
:101B300040E050E00E94900F49015A01D301C201D8
:101B4000820F931FA41FB51F8093C9039093CA03EC
:101B5000A093CB03B093CC03C301B20120EA36E8D3
:101B600041E050E00E94900FCA01B9010E94711338
:101B70002B013C01C501B4010E9471132CE933E52E
:101B800049EC56E30E94D0139B01AC01C301B201A2
:101B90000E94CA0F2B013C016093C1037093C203E2
:101BA0008093C3039093C40320E030E048EC52E4F8
:101BB0000E9436100E94A8104B015C0184E6889DAB
:101BC000B001899D700D1124072E000C880B990B14
:101BD0000E9471139B01AC01C301B2010E94C90FA5
:101BE00020E030E040E752E40E9436102B013C0137
:101BF000B401990C880B990B0E9471139B01AC01E5
:101C0000C301B2010E94CA0F6093D1037093D20343
:101C10008093D3039093D4036CE270E0C8010E94D8
:101C20004F11FC019C012F5F3F4F81818C3201F1EC
:101C3000873589F48091D1039091D203A091D30389
:101C4000B091D403B0588093D1039093D203A09362
:101C5000D303B093D4039181973511F0953419F4DF
:101C60009093EE0305C09C3209F059C01092EE0328
:101C70006CE270E0C9010E944F118C010F5F1F4F91
:101C8000FC0181818C3259F0C8010E94831160935C
:101C9000DD037093DE038093DF039093E0036CE237
:101CA00070E0C8010E944F118C010F5F1F4FDC01D3
:101CB00011968C918C3259F0C8010E948311609367
:101CC000E1037093E2038093E3039093E4036CE2F7
:101CD00070E0C8010E944F11FC0121812C32E9F013
:101CE00001960E9483110E94AF104B015C0120E11C
:101CF00037E240E050E00E949E142093BA03A7010F
:101D000096010E949E142093B903C501B401A70156
:101D100096010E949E146093B803211031CA82E29A
:101D200092E00E942A044BC9CF92DF92EF92FF9279
:101D3000E2E2F2E01382128288EEC82E83E0D82E0F
:101D4000E12CF12CC482D582E682F78288E191E011
:101D50009183808385EC90E09587848784EC90E084
:101D60009787868780EC90E0918B808B81EC90E068
:101D7000938B828B82EC90E0958B848B86EC90E049
:101D8000978B868B118E128E138E148E20E047E077
:101D900068E086E495E00E942802E5EBF3E010920B
:101DA0000304109202041092B4031092FF031092E5
:101DB000B30389E393E09093B2038093B1038FEB75
:101DC00092E090933803809337031092F20314AE9D
:101DD00015821482138212821182108212AE11AE09
:101DE00010AE13AE1782168214AA15AA16AA17AA45
:101DF00010AA11AA12AA13AA14A615A616A617A607
:101E000010A611A612A613A614A215A216A217A216
:101E100010A211A212A213A2148615861686178686
:101E2000108611861286138686E495E0909301044D
:101E30008093000420E045E066E087E295E00E94A0
:101E40002802EDE0F4E013821282C482D582E68299
:101E5000F78288E291E09183808384E084878AEC32
:101E600090E090931B0580931A0510921D05109227
:101E70001C0510921F0510921E0510922605109247
:101E800025051092200585EC90E090932205809323
:101E9000210582EC90E09093240580932305E5E6EC
:101EA000F5E0168217821086118612861386148634
:101EB000158616861786108A118A128A138A148A42
:101EC000158AFF90EF90DF90CF900895CF93DF9326
:101ED000C8E0D1E0D0932805C093270587E295E0BC
:101EE0000E945303D0934705C093460586E495E0CE
:101EF000DF91CF910C94530397FB072E16F40094B7
:101F000007D077FD09D00E94AF0F07FC05D03EF443
:101F1000909581959F4F0895709561957F4F089595
:101F2000052E97FB1EF400940E94A70F57FD07D0C3
:101F30000E949E1407FC03D04EF40C94A70F5095FA
:101F40004095309521953F4F4F4F5F4F08959095A5
:101F50008095709561957F4F8F4F9F4F0895AA1B75
:101F6000BB1B51E107C0AA1FBB1FA617B70710F084
:101F7000A61BB70B881F991F5A95A9F780959095B6
:101F8000BC01CD010895EE0FFF1F0590F491E02DE7
:101F900009945058BB27AA270E94E10F0C945414AF
:101FA0000E94461438F00E944D1420F039F49F3FEF
:101FB00019F426F40C9443140EF4E095E7FB0C940A
:101FC0003D14E92F0E94651458F3BA17620773078E
:101FD0008407950720F079F4A6F50C9487140EF485
:101FE000E0950B2EBA2FA02D0B01B90190010C0129
:101FF000CA01A0011124FF27591B99F0593F50F441
:10200000503E68F11A16F040A22F232F342F442798
:10201000585FF3CF469537952795A795F040539590
:10202000C9F77EF41F16BA0B620B730B840BBAF060
:102030009150A1F0FF0FBB1F661F771F881FC2F7CB
:102040000EC0BA0F621F731F841F48F487957795DF
:102050006795B795F7959E3F08F0B0CF9395880F99
:1020600008F09927EE0F9795879508950E944A10DA
:102070000C9454140E944D1458F00E94461440F0E1
:1020800029F45F3F29F00C943D1451110C948814ED
:102090000C9443140E94651468F39923B1F35523FB
:1020A00091F3951B550BBB27AA276217730784076B
:1020B00038F09F5F5F4F220F331F441FAA1FA9F301
:1020C00035D00E2E3AF0E0E832D091505040E695EF
:1020D000001CCAF72BD0FE2F29D0660F771F881F50
:1020E000BB1F261737074807AB07B0E809F0BB0B43
:1020F000802DBF01FF2793585F4F3AF09E3F510557
:1021000078F00C943D140C9488145F3FE4F3983EEF
:10211000D4F3869577956795B795F7959F5FC9F73F
:10212000880F911D9695879597F90895E1E0660FC0
:10213000771F881FBB1F621773078407BA0720F039
:10214000621B730B840BBA0BEE1F88F7E0950895A2
:102150000E94AF106894B1110C94881408950E94E5
:102160006D1488F09F5798F0B92F9927B751B0F0A8
:10217000E1F0660F771F881F991F1AF0BA95C9F70B
:1021800014C0B13091F00E948714B1E008950C940E
:102190008714672F782F8827B85F39F0B93FCCF3C1
:1021A000869577956795B395D9F73EF49095809588
:1021B000709561957F4F8F4F9F4F08950E944614F1
:1021C00020F019F00E944D1450F40C9443140C9418
:1021D0008814E92F0E94651488F35523B1F3E7FBB7
:1021E0006217730784079507A8F189F3E92FFF2782
:1021F00088232AF03197660F771F881FDAF7952F0B
:102200005527442332F091505040220F331F441F72
:10221000D2F7BB27E91BF50B621B730B840BB109CB
:10222000B1F222F4620F731F841FB11D31972AF09F
:10223000660F771F881FBB1FEFCF9150504062F091
:1022400041F0882332F0660F771F881F915050406D
:10225000C1F793950C9432118695779567959F5F9A
:10226000D9F7F7CF9F3F31F0915020F487957795BC
:102270006795B795880F911D9695879597F908955D
:102280000E94AC1308F48FEF08950E94AC13880BE2
:10229000990B089581E090E0F8940C941115FC01DD
:1022A0008191861721F08823D9F7992708953197CE
:1022B000CF010895FB01DC014150504048F00190EE
:1022C0000D920020C9F701C01D9241505040E0F727
:1022D0000895FB0151915523A9F0BF01DC014D91F7
:1022E00045174111E1F759F4CD010190002049F063
:1022F0004D9140154111C9F3FB014111EFCF81E030
:1023000090E001970895662777270C94F211FC015D
:1023100088279927E89421912032E9F3293010F099
:102320002E30C8F32B3241F02D3239F4689404C0BA
:102330000E94EA11820F911D219120532A30C0F38F
:102340001EF4909581959F4F08951F93FC01992746
:102350008827BC01E89411911032E9F3193010F08C
:102360001E30C8F31B3251F01D3249F4689406C088
:102370000E94D511610F711D811D911D1191105386
:102380001A30B0F33EF490958095709561957F4F2B
:102390008F4F9F4F1F91089591110C944F138032CE
:1023A00019F089508550C8F70895592F482F372FB5
:1023B000262F660F771F881F991F660F771F881FAC
:1023C000991F620F731F841F951F660F771F881F49
:1023D000991F08957AE0979F902D879F802D910DEA
:1023E00011240895A0E0B0E0E8EFF1E10C94CF14DF
:1023F000EC017B016115710519F0DB018D939C9354
:102400008E010F5F1F4F7880872D90E00E94CC11C6
:10241000892B11F0E801F4CFBDE27B1205C00F5FFC
:102420001F4F7980C1E008C0EBE27E1204C08E012C
:102430000E5F1F4F7980C0E06801F1E0CF1AD1082C
:1024400043E050E06AED70E0C6010E945213892B10
:10245000F1F4680122E0C20ED11C45E050E065EDC8
:1024600070E0C6010E945213892B21F4680187E0B5
:10247000C80ED11CE114F10419F0D701CD92DC9201
:10248000C111FFC060E070E080E89FE703C143E056
:1024900050E062ED70E0C6010E945213892B51F4A6
:1024A000E114F10409F4F2C00E5F1F4FF70111832C
:1024B0000083ECC0680160E070E0CB0100E010E058
:1024C000F601D0EDD70DDA3058F52C2F2260622EB0
:1024D0002C2F2870C2FF05C0211128C00F5F1F4F8D
:1024E00025C0222311F001501109A5E0B0E09B01A5
:1024F000AC010E94C0144B015C01880C991CAA1C01
:10250000BB1CC501B4016D0F711D811D911D683982
:10251000A9E97A078A07A9E19A0740F0C66005C0D1
:10252000DE3F51F4C3FD44C0C8606C2EBFEFCB1A30
:10253000DB0A7080C62DC4CF2D2F2F7D2531C1F52C
:1025400040814D3211F4C06106C04B3221F031960A
:1025500021E030E006C03296D60111964C9122E07F
:1025600030E0A0EDA40FAA3018F0E21BF30B20C05E
:1025700040E050E04038BCE05B075CF49A01220F79
:10258000331F220F331F420F531F440F551F4A0F93
:10259000511D3196DF0111972C91A0EDA20FAA30A9
:1025A00048F3C4FF03C0519541955109040F151F0D
:1025B000C1FF07C0E114F10421F03197D701ED9379
:1025C000FC930E946F13C370C33019F06B017C0140
:1025D00006C06B017C01F7FAF094F7F8F09420E064
:1025E00030E0A901C701B6010E946A13882309F4EB
:1025F00045C017FF06C0119501951109C1EFD0E044
:1026000002C0C9E0D1E05E01B8E1AB1AB1084601F1
:10261000BE2DAF2D90E2E92EF12C0E151F0584F092
:10262000FE012591359145915491B4018B2F9A2F3C
:102630000E94D0134B01B82FA92F0E191F09EDCFFF
:102640002497F594E794CA15DB0539F76401EB2E5E
:10265000FA2E8E2D880F8F2D881F8F3F49F020E096
:1026600030E0A901C701B6010E946A13811106C0BA
:1026700082E290E09093AE058093AD05C701B6016C
:1026800009C060E070E080E89FEF04C060E070E0A7
:1026900080EC9FE7CDB7DEB7EEE00C94EB14992702
:1026A00088270895FB01DC014150504088F08D914E
:1026B00081341CF08B350CF4805E659161341CF024
:1026C0006B350CF4605E861B611171F3990B0895F4
:1026D000881BFCCF0E94AC1308F481E00895E894B5
:1026E00009C097FB3EF490958095709561957F4F5A
:1026F0008F4F9F4F9923A9F0F92F96E9BB27939508
:10270000F695879577956795B795F111F8CFFAF417
:10271000BB0F11F460FF1BC06F5F7F4F8F4F9F4F48
:1027200016C0882311F096E911C0772321F09EE8A6
:10273000872F762F05C0662371F096E8862F70E00C
:1027400060E02AF09A95660F771F881FDAF7880FE6
:102750009695879597F90895990F0008550FAA0B3C
:10276000E0E8FEEF16161706E807F907C0F01216A4
:102770001306E407F50798F0621B730B840B950BA7
:1027800039F40A2661F0232B242B252B21F40895FC
:102790000A2609F4A140A6958FEF811D811D089599
:1027A0000E94E3130C9454140E94461438F00E94C3
:1027B0004D1420F0952311F00C943D140C94431407
:1027C00011240C9488140E94651470F3959FC1F332
:1027D000950F50E0551F629FF001729FBB27F00DCF
:1027E000B11D639FAA27F00DB11DAA1F649F662724
:1027F000B00DA11D661F829F2227B00DA11D621F73
:10280000739FB00DA11D621F839FA00D611D221F2C
:10281000749F3327A00D611D231F849F600D211D10
:10282000822F762F6A2F11249F5750409AF0F1F093
:1028300088234AF0EE0FFF1FBB1F661F771F881FFC
:1028400091505040A9F79E3F510580F00C943D14E3
:102850000C9488145F3FE4F3983ED4F38695779503
:102860006795B795F795E7959F5FC1F7FE2B880FA2
:10287000911D9695879597F9089597F99F6780E838
:1028800070E060E008959FEF80EC089500240A94C2
:102890001616170618060906089500240A9412163B
:1028A0001306140605060895092E0394000C11F46E
:1028B000882352F0BB0F40F4BF2B11F460FF04C01B
:1028C0006F5F7F4F8F4F9F4F089557FD9058440F74
:1028D000551F59F05F3F71F04795880F97FB991F7F
:1028E00061F09F3F79F0879508951216130614063C
:1028F000551FF2CF4695F1DF08C0161617061806C9
:10290000991FF1CF86957105610508940895E894A3
:10291000BB2766277727CB0197F90895DB018F93B3
:102920009F930E94C014BF91AF91A29F800D911DF3
:10293000A39F900DB29F900D11240895A1E21A2E2D
:10294000AA1BBB1BFD010DC0AA1FBB1FEE1FFF1F53
:10295000A217B307E407F50720F0A21BB30BE40BA3
:10296000F50B661F771F881F991F1A9469F76095EA
:102970007095809590959B01AC01BD01CF010895A4
:102980000E940215A59F900DB49F900DA49F800DED
:10299000911D112408952F923F924F925F926F9252
:1029A0007F928F929F92AF92BF92CF92DF92EF92DF
:1029B000FF920F931F93CF93DF93CDB7DEB7CA1B60
:1029C000DB0B0FB6F894DEBF0FBECDBF09942A888B
:1029D000398848885F846E847D848C849B84AA8433
:1029E000B984C884DF80EE80FD800C811B81AA81C0
:1029F000B981CE0FD11D0FB6F894DEBF0FBECDBF8B
:102A0000ED010895A29FB001B39FC001A39F700D77
:102A1000811D1124911DB29F700D811D1124911DE6
:102A2000089510E0C8E8D0E004C0FE010E94C30F82
:0C2A30002196C938D107C9F7F894FFCFF0
:102A3C007104710400000000080169035C01740159
:102A4C00EF00070100000000E3036903B6039403E1
:102A5C00A8032A0400000000D7006903E300CB00A0
:102A6C00BF00B3000000000072046903720472041A
:102A7C0072047204000000007204690324504D5467
:102A8C004B3331342C302C312C302C312C302C302D
:102A9C002C302C302C302C302C302C302C302C304A
:102AAC002C302C302C302C302C302A323800245046
:102ABC004D544B3232302C313030302A31460024D8
:102ACC005047434D442C33332C312A3643000A549F
:102ADC00696D653A20000D0A00446174653A200066
:102AEC002F32300024475047474100244750524D65
:102AFC0043004C6F636174696F6E3A20002C2000A8
:0C2B0C006E616E00696E66006F766600F8
:107E0000112484B714BE81FFF0D085E080938100F7
:107E100082E08093C00088E18093C10086E0809377
:107E2000C20080E18093C4008EE0C9D0259A86E02C
:107E300020E33CEF91E0309385002093840096BBD3
:107E4000B09BFECF1D9AA8958150A9F7CC24DD24C4
:107E500088248394B5E0AB2EA1E19A2EF3E0BF2EE7
:107E6000A2D0813461F49FD0082FAFD0023811F036
:107E7000013811F484E001C083E08DD089C08234E0
:107E800011F484E103C0853419F485E0A6D080C0E4
:107E9000853579F488D0E82EFF2485D0082F10E0AE
:107EA000102F00270E291F29000F111F8ED06801E7
:107EB0006FC0863521F484E090D080E0DECF843638
:107EC00009F040C070D06FD0082F6DD080E0C81688
:107ED00080E7D80618F4F601B7BEE895C0E0D1E017
:107EE00062D089930C17E1F7F0E0CF16F0E7DF06D8
:107EF00018F0F601B7BEE89568D007B600FCFDCFD4
:107F0000A601A0E0B1E02C9130E011968C91119780
:107F100090E0982F8827822B932B1296FA010C0160
:107F200087BEE89511244E5F5F4FF1E0A038BF0790
:107F300051F7F601A7BEE89507B600FCFDCF97BE46
:107F4000E89526C08437B1F42ED02DD0F82E2BD052
:107F50003CD0F601EF2C8F010F5F1F4F84911BD097
:107F6000EA94F801C1F70894C11CD11CFA94CF0C13
:107F7000D11C0EC0853739F428D08EE10CD085E9AC
:107F80000AD08FE07ACF813511F488E018D01DD067
:107F900080E101D065CF982F8091C00085FFFCCF94
:107FA0009093C60008958091C00087FFFCCF809118
:107FB000C00084FD01C0A8958091C6000895E0E648
:107FC000F0E098E1908380830895EDDF803219F02E
:107FD00088E0F5DFFFCF84E1DECF1F93182FE3DFCA
:107FE0001150E9F7F2DF1F91089580E0E8DFEE27F6
:047FF000FF270994CA
:027FFE00040479
:0400000300007E007B
:00000001FF