:100000000C9468010C9478160C9451160C941E0FE5
:100010000C941E0F0C941E0F0C9490010C949001E4
:100020000C9490010C9490010C9490010C9490010C
:100030000C9490010C9490010C94A70C0C949001DA
:100040000C9407160C9490010C947A140C9454148C
:100050000C9490010C9490010C9490010C949001DC
:100060000C9490010C94900141542B434D47463D14
:1000700031002B434D47523A0041542B434D4752D8
:100080003D0041542B434D47523D0041542B4353B7
:1000900044483D310041542B434D47463D31002BF0
:1000A000434D47523A0041542B434D47523D004186
:1000B000542B434D47523D0041542B435344483D3C
:1000C000310041542B434D47463D31005265706C21
:1000D000792073656E7420737563636573736675D9
:1000E0006C6C792E005265706C792073656E74208B
:1000F0007375636365737366756C6C792E000000AD
:1001000000002300260029003E20003E200041542C
:100110002B434D47463D3100093C2D2D2D20000934
:100120002D2D2D3E200053494D3830304800093CDC
:100130002D2D2D2000092D2D2D3E200053494D43FE
:100140004F4D5F53494D35333230450053494D4390
:100150004F4D5F53494D35333230410053494D388F
:100160003030205231330053494D3830382052312D
:10017000330053494D3830382052313400093C2D7A
:100180002D2D2000092D2D2D3E200041542B4356AE
:1001900048553D3000415445300041544530004100
:1001A000540041540041540054696D656F75743AB0
:1001B000204E6F20726573706F6E736520746F20B0
:1001C00041542E2E2E206C61737420646974636810
:1001D00020617474656D70742E00415400415400A8
:1001E000415400417474656D7074696E6720746F5A
:1001F000206F70656E20636F6D6D20776974682065
:1002000041547300436F756C646E27742066696E89
:100210006420464F4E4100093C2D2D2D2000092D14
:100220002D2D3E20004F4B00464F4E4100464F4E75
:10023000416E65740000000000240027002A0000C1
:10024000000000250028002B00040404040404041A
:100250000402020202020203030303030301020475
:100260000810204080010204081020010204081038
:100270002000000008000201000003040700000045
:1002800000000000006364696E6F70737578585BDE
:10029000004E414E494E495459494E46CDCCCC3D75
:1002A0000AD7233C17B7D13877CC2B329595E62463
:1002B0001FB14F0A000020410000C84200401C4608
:1002C00020BCBE4CCA1B0E5AAEC59D742017F21737
:1002D00011241FBECFEFD8E0DEBFCDBF13E0A0E0FA
:1002E000B1E0E8EFF7E402C005900D92A834B10741
:1002F000D9F727E0A8E4B3E001C01D92AB31B20703
:10030000E1F711E0C7E6D1E004C02197FE010E94A9
:100310005B18C636D107C9F70E949F160C94EF23CD
:100320000C9400002F923F924F925F926F927F92B7
:100330008F929F92AF92BF92CF92DF92EF92FF92F5
:100340000F931F93CF93DF93CDB7DEB7C456D14041
:100350000FB6F894DEBF0FBECDBF86E0E8E0F1E057
:10036000DE01A353BF4F01900D928A95E1F7EDECAA
:10037000F0E0EC0FFD1F36968AE3DF011D928A95AF
:10038000E9F70091020110910301D801ED91FC9170
:100390000480F581E02DC8010995892B09F44FC02F
:1003A0007E01B7EAEB1ABEEFFB0AF7011182108259
:1003B0006E01FDE8CF0ED11C46012FE3820E911C89
:1003C0007C2C6D2C5601D801ED91FC910680F781B3
:1003D000E02DC8010995F60181936F01682F8EE821
:1003E00093E00E94851061E070E080E090E00E9460
:1003F000CD15D5018C918A3069F0D801ED91FC9131
:100400000480F581E02DC8010995892B19F0C814E5
:10041000D904C1F6F5011182FF92EF928BEF92E0C1
:100420009F938F936F927F920E94971A0F900F90D5
:100430000F900F900F900F90019709F495C7C15A34
:10044000DE4F1882CF55D140C05ADE4F1882C056B9
:10045000D1408E0103531F4F68E071E0C8010E9434
:100460003B1A892B11F40C94AB0BB8018EE893E086
:100470000E944E1287E092E00E94601289E392E0AF
:100480000E9460128AE492E00E9460128FEA87BDA7
:1004900080916E00826080936E0081E080934803BB
:1004A0008091A5069091A606009739F040E855E2A4
:1004B00060E070E00E94AE0F29C0E091A706F091C5
:1004C000A806A089B18982E08C93A485B5851C9289
:1004D000A685B7858FEC8C93108EA489B58986E0AC
:1004E0008C93A289B3898C9180618C93A289B38902
:1004F0008C9188608C93A289B3898C9180688C934D
:100500000288F389E02D80818F7D80836AE070E02E
:1005100080E090E00E94CD1568EE73E080E090E00E
:100520000E94CD1524E6C22ED12CE12CF12C3DE801
:10053000232E312C2C0E3D1EE2E02E0E311CB091EC
:100540002005C55ADE4FB883CB55D140BB2309F4F3
:100550007DC5109220050091A3041091A404F80118
:1005600001900020E9F731979F01201B310BA90171
:1005700044505109F801E40FF51F80818A32E1F5FA
:10058000200F311FF90133978081803354F08A3373
:1005900014F4805307C09FEB980F963010F48753E4
:1005A00001C080E0F0E18F9FC0011124F901329772
:1005B0002081203354F02A3314F4205307C03FEB3A
:1005C000320F363010F4275301C020E0820F911D06
:1005D00062E0262F30E02417350758F4F801E20FC7
:1005E000F31F2081022E000C330B822793276F5FAD
:1005F000F0CF892B09F08AC669E572E0C8010E9434
:100600005A1A892B09F486C26CE270E0C8010E9474
:10061000301A8C010F5F1F4FC8010E943E202B0132
:100620003C010E9447194B015C0120E137E240E0A8
:1006300050E00E947C2320935A06A70196010E9455
:100640007C2320935B06C501B401A70196010E949B
:100650007C2360935C0620E030E040E85FE3C30168
:10066000B2010E94811920E030E04AE754E40E9480
:10067000AE220E94471970936106609360066CE297
:1006800070E0C8010E94301A4C018C010F5F1F4FAF
:10069000DC0111968C918C3209F4B4C042E050E038
:1006A000B801CE0183579F4F0E944B1AC157DF4FAD
:1006B0001882CF58D040CE0183579F4F0E946020B0
:1006C0009B01AC0160E876E988E990E00E946C2328
:1006D0002B013C01B4016D5F7F4F42E050E0CE0141
:1006E00083579F4F0E944B1A0B5F1F4F44E050E00F
:1006F000B801C1010E944B1ACD56DF4F1882C35971
:10070000D040CE0183579F4F0E9460209B01AC01D7
:10071000A2E3B0E00E949E2323E030E040E050E0FE
:100720000E94281849015A01D301C201820F931F68
:10073000A41FB51F80936A0690936B06A0936C0666
:10074000B0936D06C301B20120EA36E841E050E003
:100750000E942818CA01B9010E944F222B013C01B6
:10076000C501B4010E944F222CE933E549EC56E360
:100770000E94AE229B01AC01C301B2010E9462182B
:100780004B015C016093620670936306809364067C
:100790009093650620E030E048EC52E40E94CE18C9
:1007A0000E9440192B013C01B4E6B49DB001B59DF7
:1007B000700D1124072E000C880B990B0E944F22FC
:1007C0009B01AC01C501B4010E94611820E030E03A
:1007D00040E752E40E94CE184B015C01B201550C77
:1007E000880B990B0E944F229B01AC01C501B401FB
:1007F0000E94621860937206709373068093740669
:10080000909375066CE270E0C8010E94301AFC01FA
:100810009C012F5F3F4F81818C3201F1833589F438
:100820008091720690917306A0917406B09175063E
:10083000B0588093720690937306A0937406B09399
:10084000750691819E3411F0933519F490939206B8
:1008500005C09C3209F05AC5109292066CE270E015
:10086000C9010E94301A4C018C010F5F1F4FFC011F
:1008700081818C3209F4B4C043E050E0B801CE016C
:1008800083579F4F0E944B1AC057DF4F1882C059A1
:10089000D040CE0183579F4F0E9460209B01AC0146
:1008A00060E876E988E990E00E946C232B013C0126
:1008B000B4016C5F7F4F42E050E0CE0183579F4F01
:1008C0000E944B1A0A5F1F4F44E050E0B801C1017B
:1008D0000E944B1ACD56DF4F1882C359D040CE012B
:1008E00083579F4F0E9460209B01AC01A2E3B0E0C0
:1008F0000E949E2323E030E040E050E00E94281850
:1009000049015A01D301C201820F931FA41FB51FD1
:1009100080936E0690936F06A0937006B093710655
:10092000C301B20120EA36E841E050E00E942818F5
:10093000CA01B9010E944F222B013C01C501B4013B
:100940000E944F222CE933E549EC56E30E94AE2287
:100950009B01AC01C301B2010E9462184B015C0112
:1009600060936606709367068093680690936906A5
:1009700020E030E048EC52E40E94CE180E9440197A
:100980002B013C01F4E6F49DB001F59D700D11249E
:10099000072E000C880B990B0E944F229B01AC0183
:1009A000C501B4010E94611820E030E040E752E444
:1009B0000E94CE184B015C01B201550C880B990BBB
:1009C0000E944F229B01AC01C501B4010E94621834
:1009D00060937606709377068093780690937906F5
:1009E0006CE270E0C8010E94301AFC019C012F5F8C
:1009F0003F4F81818C3201F1873589F480917606F1
:100A000090917706A0917806B0917906B0588093BE
:100A1000760690937706A0937806B0937906918135
:100A2000973511F0953419F49093930605C09C32D4
:100A300009F06CC4109293066CE270E0C9010E9448
:100A4000301A8C010F5F1F4FDC0111968C918C3294
:100A500029F0C8010E944220809396066CE270E063
:100A6000C8010E94301A8C010F5F1F4FFC01818169
:100A70008C3229F0C8010E944220809397066CE2D4
:100A800070E0C8010E94301A8C010F5F1F4FDC011B
:100A900011968C918C3259F0C8010E943E206093CF
:100AA0008E0670938F0680939006909391066CE269
:100AB00070E0C8010E94301A8C010F5F1F4FFC01CB
:100AC00081818C3259F0C8010E943E2060937E06DD
:100AD00070937F0680938006909381066CE270E0AD
:100AE000C8010E94301A6CE270E001960E94301A30
:100AF000DC0111962C912C3209F4A0C201960E94BF
:100B00003E2060937A0670937B0680937C069093D8
:100B10007D0694C260E672E0C8010E945A1A892BD1
:100B200009F4F4C36CE270E0C8010E94301A8C0131
:100B30000F5F1F4FC8010E943E202B013C010E9405
:100B400047194B015C0120E137E240E050E00E9490
:100B50007C2320935A06A70196010E947C232093B0
:100B60005B06C501B401A70196010E947C23609336
:100B70005C0620E030E040E85FE3C301B2010E9480
:100B8000811920E030E04AE754E40E94AE220E943E
:100B9000471970936106609360066CE270E0C801CB
:100BA0000E94301AFC012181213421F4F1E0F093FC
:100BB000950605C0263509F0A9C3109295066CE28A
:100BC00070E001960E94301A4C018C010F5F1F4F9C
:100BD000DC0111968C918C3209F4B4C042E050E0F3
:100BE000B801CE0183579F4F0E944B1AC157DF4F68
:100BF0001882CF58D040CE0183579F4F0E9460206B
:100C00009B01AC0160E876E988E990E00E946C23E2
:100C10002B013C01B4016D5F7F4F42E050E0CE01FB
:100C200083579F4F0E944B1A0B5F1F4F44E050E0C9
:100C3000B801C1010E944B1ACD56DF4F1882C3592B
:100C4000D040CE0183579F4F0E9460209B01AC0192
:100C5000A2E3B0E00E949E2323E030E040E050E0B9
:100C60000E94281849015A01D301C201820F931F23
:100C7000A41FB51F80936A0690936B06A0936C0621
:100C8000B0936D06C301B20120EA36E841E050E0BE
:100C90000E942818CA01B9010E944F222B013C0171
:100CA000C501B4010E944F222CE933E549EC56E31B
:100CB0000E94AE229B01AC01C301B2010E946218E6
:100CC0004B015C0160936206709363068093640637
:100CD0009093650620E030E048EC52E40E94CE1884
:100CE0000E9440192B013C01B4E6B49DB001B59DB2
:100CF000700D1124072E000C880B990B0E944F22B7
:100D00009B01AC01C501B4010E94611820E030E0F4
:100D100040E752E40E94CE184B015C01B201550C31
:100D2000880B990B0E944F229B01AC01C501B401B5
:100D30000E94621860937206709373068093740623
:100D4000909375066CE270E0C8010E94301AFC01B5
:100D50009C012F5F3F4F81818C3201F1833589F4F3
:100D60008091720690917306A0917406B0917506F9
:100D7000B0588093720690937306A0937406B09354
:100D8000750691819E3411F0933519F49093920673
:100D900005C09C3209F0BAC2109292066CE270E073
:100DA000C9010E94301A4C018C010F5F1F4FFC01DA
:100DB00081818C3209F4C0C043E050E0B801CE011B
:100DC00083579F4F0E944B1AC057DF4F1882C0595C
:100DD000D040CE0183579F4F0E9460209B01AC0101
:100DE00060E876E988E990E00E946C232B013C01E1
:100DF000B4016C5F7F4F42E050E0CE0183579F4FBC
:100E00000E944B1A0A5F1F4F44E050E0B801C10135
:100E10000E944B1ACD56DF4F1882C359D040CE01E5
:100E200083579F4F0E9460209B01AC01A2E3B0E07A
:100E30000E949E2323E030E040E050E00E9428180A
:100E400049015A01D301C201820F931FA41FB51F8C
:100E500080936E0690936F06A0937006B093710610
:100E6000C301B20120EA36E841E050E00E942818B0
:100E7000CA01B9010E944F222B013C01C501B401F6
:100E80000E944F222CE933E549EC56E30E94AE2242
:100E90009B01AC01C301B2010E9462184B015C01CD
:100EA0006093660670936706809368069093690660
:100EB00020E030E048EC52E40E94CE180E94401935
:100EC0002B013C01F4E6F49DB001F59D700D112459
:100ED000072E000C880B990B0E944F229B01AC013E
:100EE000C501B4010E94611820E030E040E752E4FF
:100EF0000E94CE18CF59DE4F688379838A839B8303
:100F0000C156D140B201550C880B990B0E944F225B
:100F10009B01AC01CF59DE4F688179818A819B8129
:100F2000C156D1400E94621860937606709377068E
:100F300080937806909379066CE270E0C8010E9475
:100F4000301AFC019C012F5F3F4F81818C3201F1EF
:100F5000873589F48091760690917706A09178067E
:100F6000B0917906B0588093760690937706A09357
:100F70007806B09379069181973511F0953419F47C
:100F80009093930605C09C3209F0C0C1109293065D
:100F90006CE270E0C9010E94301A8C010F5F1F4F94
:100FA000DC0111968C918C3259F0C8010E943E20D0
:100FB00060938206709383068093840690938506DF
:100FC0006CE270E0C8010E94301A8C010F5F1F4F65
:100FD000FC0181818C3259F0C8010E943E2060934F
:100FE00086067093870680938806909389066CE244
:100FF00070E0C8010E94301ADC0111962C912C324D
:10100000E9F001960E943E200E9447192B013C0105
:1010100020E137E240E050E00E947C2320935F060D
:10102000A70196010E947C2320935E06C301B201B2
:10103000A70196010E947C2360935D06C55ADE4F8E
:10104000B881CB55D140BB2309F460C1809195068E
:10105000882309F454C167E672E08EE893E00E94A9
:10106000FB1040915A0650E060E070E02AE08EE804
:1010700093E00E9410118AE30E94CC1040915B061D
:1010800050E060E070E02AE08EE893E00E941011EA
:101090008AE30E94CC1040915C0650E060E070E072
:1010A0002AE08EE893E00E9410118EE20E94CC109C
:1010B000409160065091610660E070E02AE08EE8A1
:1010C00093E00E9410118EE893E00E9433126FE6C5
:1010D00072E08EE893E00E94FB1040915F0650E0C2
:1010E00060E070E02AE08EE893E00E9410118FE249
:1010F0000E94CC1040915E0650E060E070E02AE073
:101100008EE893E00E94101166E772E08EE893E0AB
:101110000E94FB1060915D068EE893E00E943712FA
:101120006AE772E08EE893E00E94FB10609172061D
:1011300070917306809174069091750644E00E9448
:10114000591165E872E08EE893E00E94FB1060910F
:10115000760670917706809178069091790644E042
:101160000E9459118EE893E00E943312409072065B
:10117000509073066090740670907506C090760665
:10118000D0907706E0907806F090790620E030E085
:10119000A901C301B2010E94482287FD03C000E3F8
:1011A00013E006C00EEA11E077FA709477F87094B5
:1011B000C301B2010E944019C55ADE4F688379838A
:1011C0008A839B83CB55D140C55ADE4FE881F98194
:1011D000CB55D140BF01FF0F880B990B0E944F22C6
:1011E0009B01AC01C301B2010E94611820E030E410
:1011F0004CE156E40E94AE220E94DD190E94401983
:101200007F936F93C45ADE4FF881CC55D140FF9342
:10121000C55ADE4F2881CB55D1402F931F930F9392
:1012200088E892E09F938F938E01035D1E4F1F937A
:101230000F930E94741AB801CE0183579F4F0E94EA
:10124000441A0FB6F894DEBF0FBECDBF20E030E0E9
:10125000A901C701B6010E94482287FD05C090E39D
:10126000892E93E0992E08C08EEA882E81E0982E70
:10127000F7FAF094F7F8F094C701B6010E9440190C
:101280002B013C01072E000C880B990B0E944F226A
:101290009B01AC01C701B6010E94611820E030E457
:1012A0004CE156E40E94AE220E94DD190E944019D2
:1012B0007F936F935F924F929F928F9288E992E013
:1012C0009F938F931F930F930E94741AB801CE01BE
:1012D00083579F4F0E94251A68EA72E08EE893E0D8
:1012E0000E944E12BE0163577F4F8EE893E00E942A
:1012F0004E120FB6F894DEBF0FBECDBF07C067EB2E
:1013000072E08EE893E00E944E1219C968E873E11A
:1013100080E090E00E94CD150E94C212AE014357BA
:101320005F4FC15ADE4F6881CF55D140C05ADE4F62
:101330007881C056D14080910201909103010E94B2
:10134000F60D8111F1C143EC52E06FEE72E0809135
:101350000201909103010E94F60D6CEC70E08EE8A2
:1013600093E00E946D12F7C1F701A0806801FAEEC8
:10137000CF1AFEEFDF0AD6014D915C9162EC70E06E
:10138000C8010E947F12882309F475C0F6014081CC
:10139000518168EB70E0C8010E947F12B82E88234B
:1013A00009F469C06FEA70E08EE893E00E94D710FC
:1013B0006A2D8EE893E00E94371266EA70E04801D9
:1013C000F8EE8F1AFEEF9F0AD4018D919C910E9436
:1013D000D7106A2DF401808191810E94371240E07C
:1013E00068EE73E0C8010E943A0D4801FEE08F0EDE
:1013F000911CB4018EE893E00E944E126FE970E0F8
:10140000C4010E949920009781F16CE270E0069679
:101410000E94301A009749F1DC01119650E040E03B
:10142000252F30E02F3131050CF5842F90E0FD01A0
:1014300001900020E9F73197EA1BFB0B8E179F07FD
:1014400008F081C1FD01E80FF91F80818C3209F499
:101450007AC1823241F0EDE2F1E0EC0FFD1FE20FC4
:10146000F31F80835F5F4F5FDBCFB12CC8010E9409
:10147000900DB11019C060EB71E08EE893E00E940E
:101480004E128CE0EFEEF2E0DE01119601900D922B
:101490008A95E1F7FE013196DE01A35FBE4F9E0102
:1014A000235F3F4FCD010EC0FE01E35DFE4FDE0125
:1014B000A35FBE4FCF01809621912D93E817F907C6
:1014C000D9F70CC041914D93E217F307D9F7FC010E
:1014D0003C9680961192E817F907E1F78EE893E0C1
:1014E0000E94331261ED71E08EE893E00E944E128B
:1014F0002E0123EF421A2EEF520AB2018EE893E03A
:101500000E944E128EE893E00E9433128EE893E020
:101510000E94331269EE71E08EE893E00E944E1251
:10152000D701FC90F6014081518165E970E0C80166
:101530000E947F12882309F4A2C0D6014D915C91CC
:101540006BE870E0C8010E947F12882309F497C0FD
:1015500062E870E08EE893E00E94D7106F2D8EE86D
:1015600093E00E9437123801B8EE6B1ABEEF7B0A87
:1015700069E770E0F301808191810E94D7106F2D9F
:10158000D3018D919C910E94371240E068EE73E088
:10159000C8010E943A0D7801BEE0EB0EF11CB701C4
:1015A0008EE893E00E944E1262E770E0C7010E944D
:1015B0009920009709F463C00696ABE0BA2E6CE25E
:1015C00070E00E94301A009709F459C00196BA944D
:1015D000B110F5CF0E9442205C011701812C912CA3
:1015E0008A149B0421F12EEF82169104E9F0F30195
:1015F00080819181DC01ED91FC910480F581E02DE9
:101600000995892B69F3F30180819181DC01ED91CA
:10161000FC910680F781E02D0995F10181931F016E
:10162000FFEF8F1A9F0ADCCFFEEFAF2EB12CF8012F
:10163000EA0DFB1D1686C8010E94900DF70101906E
:101640000020E9F731975F01AE18BF083DE8A31607
:10165000B10418F0ECE8AE2EB12CA501B701CE0113
:1016600001960E944B1AE1E0F0E0EC0FFD1FEA0D3D
:10167000FB1D1082B7018EE893E00E944E128EE8A7
:1016800093E00E943312F12C4CE0E42E50E3B52E8F
:1016900064E6A62E7AE0972ED6014D915C9168E61D
:1016A00070E0C8010E947F12882359F1EAE0F3E05C
:1016B000DE01A35BBE4F8E2D01900D928A95E1F75E
:1016C000CB5ADE4FB882C555D1408F2D6A2D0E946E
:1016D0000818892F692D0E940818805DCA5ADE4FAC
:1016E0008883C655D140905DC95ADE4F9883C7554F
:1016F000D14040ED57E0BE01635B7E4FC8010E94C0
:10170000BD0DF394B8E0FB12C7CFC15ADE4F48823B
:10171000CF55D140C05ADE4F5882C056D1408E01BD
:101720000F5F1F4F0C942C028EE893E00E9433123F
:1017300065EE70E08EE893E00E946D128EE893E013
:101740000E94331208C0EDE2F1E0EC0FFD1FE20F42
:10175000F31F10828BCECC59DE4F0FB6F894DEBF4C
:101760000FBECDBFDF91CF911F910F91FF90EF90F2
:10177000DF90CF90BF90AF909F908F907F906F90B1
:101780005F904F903F902F900895FC01E85EFE4FD0
:1017900080819181DC01ED91FC910284F385E02D43
:1017A0000994FC01E85EFE4F80819181DC01ED919E
:1017B000FC910084F185E02D0994FC01E85EFE4F68
:1017C00080819181DC01ED91FC910680F781E02D13
:1017D0000994FC01E85EFE4F80819181DC01ED916E
:1017E000FC910190F081E02D0994FC01E85EFE4F30
:1017F00080819181DC01ED91FC910480F581E02DE7
:10180000099420918C0330918D032817390771F4C6
:1018100090918B0380918A03981741F0E0918B039C
:10182000F0E0E65BFC4F808190E008958FEF9FEF42
:10183000089508951F93CF93DF93DC015C962D915B
:101840003C915D972115310539F481E090E01396C4
:101850009C938E9312973DC05196ED91FC915297B7
:1018600050969C915097892F80951FB75E964C910A
:101870005E9741FB772770F941FD6095F8944081B0
:10188000772311F0492B01C048234083E9012197B8
:10189000F1F748E0508160FF02C0592B01C0582386
:1018A0005083E9012197F1F76695415099F7772325
:1018B00021F090818923808303C08081982B9083BD
:1018C0001FBF5C968D919C915D970197F1F721E088
:1018D00030E0C901DF91CF911F91089520918C03D1
:1018E00030918D032817390771F480918A03209174
:1018F0008B0390E0805C9F4F821B910960E470E055
:101900000E941418089580E090E0089520918C03BF
:1019100030918D0328173907B9F490918B0380918A
:101920008A03981789F0E0918B03F0E0E65BFC4FA7
:10193000808120918B0330E02F5F3F4F2F7333273F
:1019400020938B0390E008958FEF9FEF08951F92EF
:101950000F920FB60F9211242F933F934F935F93E3
:101960006F937F938F939F93AF93BF93EF93FF9367
:101970008091A40681116DC08091A5069091A60664
:10198000009779F0DC01ED91FC910480F581E02D68
:101990000995892B09F45DC08091A5069091A60652
:1019A00012C08091A7069091A806DC01ED91FC91F0
:1019B0000480F581E02D0995892B09F44AC08091B6
:1019C000A7069091A806DC01ED91FC910680F781B5
:1019D000E02D09958A3049F590911F05E0911D058C
:1019E000F0911E05E90FF11D108220911D05309127
:1019F0001E05B4E0253A3B0739F44BE254E050931E
:101A00001E0540931D0508C025EA34E030931E05ED
:101A100020931D052BE234E03093A4042093A3040B
:101A200010921F0591E090932005E0911D05F09123
:101A30001E0590911F0521E0290F20931F05E90F36
:101A4000F11D808380911F05883718F087E7809308
:101A50001F05FF91EF91BF91AF919F918F917F9162
:101A60006F915F914F913F912F910F900FBE0F900B
:101A70001F901895BF92CF92DF92EF92FF920F9333
:101A80001F93CF93DF937C01B42E8B01C0E0D0E095
:101A90006C0188EEC81A8EEFD80A0115110589F17C
:101AA000CE3FD10570F5F60180819181DC01ED9189
:101AB000FC910480F581E02D0995892BC1F0D601B8
:101AC0008D919C91DC01ED91FC910680F781E02DD8
:101AD00009958D3041F38A3021F4209721F3BB2002
:101AE00081F0F701EC0FFD1F86872196DCCF0150B6
:101AF000110939F061E070E080E090E00E94CD15BE
:101B0000CCCFF701EC0FFD1F16868C2FDF91CF9104
:101B10001F910F91FF90EF90DF90CF90BF900895AD
:101B20000F931F93CF93DF938C01C0E0D0E0CE01E1
:101B30000196A897E8F4EC01D801ED91FC9104809E
:101B4000F581E02DC8010995892B59F0D801ED9157
:101B5000FC910680F781E02DC8010995C0E0D0E036
:101B6000EBCF61E070E080E090E00E94CD15DFCF28
:101B7000DF91CF911F910F910895EF92FF920F93F4
:101B80001F93CF93DF93EC018B017A010E94900D9C
:101B90006FE171E08EE893E00E94D710B8018EE803
:101BA00093E00E944E12FE01E85EFE4FB801808174
:101BB00091810E944E1240E0B701CE010E943A0D81
:101BC000182F68E171E08EE893E00E94D710BE0103
:101BD000625F7F4F8EE893E00E944E12812FDF916B
:101BE000CF911F910F91FF90EF900895AF92BF9208
:101BF000CF92DF92EF92FF920F931F93CF93DF93D9
:101C0000CDB7DEB76E970FB6F894DEBF0FBECDBF6F
:101C10008C016B015A01FC01EA5EFE4F408151814B
:101C20006EE071E00E947F12882309F48EC08AE082
:101C3000E8E4F1E09E012F5F3F4F7901D901019067
:101C40000D928A95E1F7FE013B9684E1DF011D923A
:101C50008A95E9F743E150E0B601CE010A960E9469
:101C60004B1AF70101900020E9F7319782E2808357
:101C700044EF51E0B701C8010E94BD0D882309F46B
:101C800064C06801BEE0CB0ED11C6BE071E0C60100
:101C90000E949020892B09F058C068E071E08EE81E
:101CA00093E00E94D710B5018EE893E00E944E1297
:101CB000B5017801E8EEEE1AEEEFFE0AD7018D913C
:101CC0009C910E944E12F701808191810E943312F3
:101CD000D7018D919C91DC01ED91FC910190F081F7
:101CE000E02D6AE1099566E173E08EE893E00E94D9
:101CF0004E12F80185858450823060F440E068EC33
:101D000070E0C8010E943A0D40E068EC70E0C80144
:101D10000E943A0D40E060E177E2C8010E943A0D6E
:101D200069E173E0C6010E945A1A892B71F040E004
:101D300068EE73E0C8010E943A0D6FE173E0C601DE
:101D40000E943B1A21E0892B09F020E0822F6E9639
:101D50000FB6F894DEBF0FBECDBFDF91CF911F91BC
:101D60000F91FF90EF90DF90CF90BF90AF900895CC
:101D70000F931F93CF93DF93EC01162F042F1B8239
:101D80001A8288EE93E0A0E0B0E08C839D83AE835E
:101D9000BF8382EA91E0998388831F8A1E8A198E05
:101DA000188E1B8E1A8E1D8E1C8E6E8D6E7F20FBE4
:101DB00061F96E8F6695617081E06827842F0E94BB
:101DC000451561E0802F0E949115402F50E0FA01E7
:101DD000E35AFD4FE491E88BFA01E75BFD4FE49194
:101DE000F0E0EE0FFF1FE15CFD4F859194919A8B1F
:101DF000898B60E0812F0E9491158E8D81FD04C03A
:101E000061E0812F0E9445151C87612F70E0FB0166
:101E1000E35AFD4FE491ED87FB01E75BFD4FE49151
:101E2000F0E0EE0FFF1FE250FF4F859194919F87E6
:101E30008E87DF91CF911F910F9108951F920F927E
:101E40000FB60F9211242F933F934F935F936F938D
:101E50007F938F939F93AF93BF93EF93FF93E09103
:101E60008C03F0918D03309709F451C0968DA685AF
:101E7000B785858591FF04C09C91892329F447C0CB
:101E80009C91892309F043C0A389B4899C918589D9
:101E9000809589238C93868997890197F1F7608DC6
:101EA000718DA685B785558538E020E0CB01019777
:101EB000F1F7822F90E095958795282F4C91452337
:101EC00009F02068315091F7868D81FD2095809131
:101ED0008A0390E001968F73992730918B0338170E
:101EE00049F0A0918A03B0E0A65BBC4F2C9380938D
:101EF0008A0303C0868D8160868F828D938D0197C2
:101F0000F1F7A389B4899C918589892B8C93FF91E2
:101F1000EF91BF91AF919F918F917F916F915F9161
:101F20004F913F912F910F900FBE0F901F901895DA
:101F3000E0918C03F0918D03E817F90769F4A38908
:101F4000B4899C918589809589238C9310928D0307
:101F500010928C0381E0089580E00895CF93DF9381
:101F6000EC019A01AB011B8E1A8E198E188E1F8AF6
:101F70001E8A60E079E08DE390E00E942818F90164
:101F80002430310518F0C901039702C081E090E0C8
:101F90009D8F8C8F6C85663108F069C0C90196955C
:101FA00087958431910510F0439702C081E090E05D
:101FB0009F8B8E8B369718F0C901059702C081E080
:101FC00090E0998F888FC901880F991F280F391FBA
:101FD00036952795369527952D30310518F02C50DC
:101FE000310902C021E030E03B8F2A8F90916800D8
:101FF000683050F021E06E3008F420E081E001C04C
:10200000880F2A95EAF701C084E0892B8093680045
:102010009C85983038F09E3040F0963148F020E0B2
:1020200030E008C02DE630E005C02BE630E002C00D
:102030002CE630E03C8B2B8B983030F481E001C0F3
:10204000880F9A95EAF70EC0292F30E09E3018F4D9
:102050002850310902C02E50310981E001C0880F9B
:102060002A95EAF78D8B8C8D9D8D0197F1F78A8DDE
:102070009B8D892BE1F080918C0390918D038C17BF
:102080009D07A9F0009711F00E94980F8E8D8E7F0A
:102090008E8F10928A0310928B03D0938D03C0937E
:1020A0008C03EB89FC8990818D89892B8083DF915A
:1020B000CF910895CF92DF92EF92FF920F931F93EB
:1020C000CF93DF936C017A018B01C0E0D0E0CE1595
:1020D000DF0589F0D8016D918D01D601ED91FC915C
:1020E0000190F081E02DC6010995892B11F47E0144
:1020F00002C02196ECCFC701DF91CF911F910F91C4
:10210000FF90EF90DF90CF900895EF92FF920F93A2
:102110001F93CF93DF93EC0181E0888F9B8D8C8D93
:10212000981305C0E889F989808185FD24C0F62EC1
:102130000B8D10E00F5F1F4F0F731127E02E8C8D5A
:10214000E8120CC00FB607FCFACFE889F989808144
:1021500085FFF5CFCE010E940215F1CF8B8DFE01D8
:10216000E80FF11DE35AFF4FF0820B8FEA89FB89DC
:102170008081806207C0EE89FF896083E889F989E0
:1021800080818064808381E090E0DF91CF911F9116
:102190000F91FF90EF900895E0918E03F0918F03DF
:1021A0000190F081E02D682F8EE893E00994EF9282
:1021B000FF920F931F93CF93DF938C017B01C0E0BD
:1021C000D0E0F701EC0FFD1F6491662361F0D801A8
:1021D000ED91FC910190F081E02DC8010995892BCA
:1021E00011F02196EECFCE01DF91CF911F910F918B
:1021F000FF90EF9008956115710579F0FB01019052
:102200000020E9F73197AF01461B570BDC01ED9138
:10221000FC910280F381E02D099480E090E0089524
:102220004F925F926F927F92EF92FF920F931F9364
:10223000CF93DF93CDB7DEB7A1970FB6F894DEBF8B
:102240000FBECDBF7C01FA01CB0119A2223008F4E8
:102250002AE08E010F5D1F4F422E512C612C712CF4
:10226000BF01A30192010E947C23F901CA01015020
:1022700011096A3014F4605D01C0695CD8016C9387
:10228000232B242B252B61F7B801C7010E94FB10DB
:10229000A1960FB6F894DEBF0FBECDBFDF91CF91F0
:1022A0001F910F91FF90EF907F906F905F904F90F4
:1022B00008954F925F926F927F928F929F92AF920A
:1022C000BF92CF92DF92EF92FF926B017C01B42E0E
:1022D0009B01AC010E94E819882319F062E273E0C7
:1022E00027C026013701E89477F82FEF3FEF4FE73B
:1022F0005FE7C301B2010E94E81981110DC02FEF01
:102300003FEF4FE75FE7C301B2010E944822181672
:102310001CF466E273E00CC02FEF3FEF4FE75FE481
:10232000C701B6010E94D819181694F46AE273E046
:102330008EE893E0FF90EF90DF90CF90BF90AF904A
:102340009F908F907F906F905F904F900C94FB10B8
:102350002FEF3FEF4FE75FECC701B6010E94482225
:1023600087FDE4CF20E030E0A901C701B6010E945B
:10237000482287FF09C08DE20E94CC104C01F7FA79
:10238000F094F7F8F09402C0812C912CA12C60E01D
:1023900070E080E09FE3AB1441F020E030E040E2E9
:1023A00051E40E94CE18A394F6CF9B01AC01C70163
:1023B000B6010E9462182B013C010E9447196B0173
:1023C0007C010E944D229B01AC01C301B2010E941D
:1023D00061182B013C012AE0B701A6018EE893E0C9
:1023E0000E9410117C01E80CF91CBB2029F08EE240
:1023F0000E94CC10E80EF91EDB2CDD2031F120E02C
:1024000030E040E251E4C301B2010E94AE222B0150
:102410003C010E9447194B01A12CB12C2AE0B501C7
:10242000A4018EE893E00E941011E80EF91EC50188
:10243000B4010E944D229B01AC01C301B2010E9474
:1024400061182B013C01DA94D8CFC701FF90EF90BF
:10245000DF90CF90BF90AF909F908F907F906F90C4
:102460005F904F9008956EE273E00C94FB100F9311
:102470001F93CF93DF93EC01462F50E060E070E0B4
:102480002AE00E9410118C01CE010E943312800FAD
:10249000911FDF91CF911F910F9108950F931F937B
:1024A000CF93DF93EC010E94FB108C01CE010E94C0
:1024B0003312800F911FDF91CF911F910F910895DB
:1024C000BC018091A5069091A606009721F4809109
:1024D000A7069091A8060C944E120F931F93CF93CA
:1024E000DF93EC010E94D7108C01CE010E943312C1
:1024F000800F911FDF91CF911F910F910895EF925F
:10250000FF920F931F93CF93DF93EC018B017A011E
:102510000E94900D6EE172E08EE893E00E94D71069
:10252000B8018EE893E00E946D12FE01E85EFE4F56
:10253000B801808191810E946D1240E064EF71E0EA
:10254000CE010E943A0D182F67E172E08EE893E009
:102550000E94D7102E96BE018EE893E00E944E1284
:10256000112339F0B701CE010E94902021E0892B80
:1025700009F020E0822FDF91CF911F910F91FF9002
:10258000EF900895CF92DF92EF92FF920F931F93F7
:10259000CF93DF9340EC52E160E070E08091000166
:1025A000909101010E94AE0FC0910201D0910301F0
:1025B0007E0188EEE81A8EEFF80A80910001909172
:1025C0000101D7018D939C9361E08C850E94911548
:1025D00061E08C850E9445156AE070E080E090E043
:1025E0000E94CD1560E08C850E94451564E670E080
:1025F00080E090E00E94CD1561E08C850E94451539
:1026000063EE71E08EE893E00E946D128EE0C82EBA
:10261000D12C8E010A5E1E4FF70180819181DC0171
:10262000ED91FC910480F581E02D0995892B59F0FD
:10263000F70180819181DC01ED91FC910680F781A9
:10264000E02D0995E9CFF8014081518160EE71E0FC
:10265000CE010E947F1281115BC0F70180819181C0
:10266000DC01ED91FC910480F581E02D0995892B29
:1026700059F0D7018D919C91DC01ED91FC91068080
:10268000F781E02D0995E9CF4AED51E06DED71E05C
:10269000CE010E947F1281113BC064EF71E080E0A7
:1026A00090E00E94CD15B1E0CB1AD10809F0B4CF6B
:1026B00068EA71E08EE893E00E946D12D8014D91B6
:1026C0005C9165EA71E0CE010E947F1264E670E0E1
:1026D00080E090E00E94CD15F8014081518162EACE
:1026E00071E0CE010E947F1264E670E080E090E02D
:1026F0000E94CD15D8014D915C916FE971E0CE013A
:102700000E947F1264E670E080E090E00E94CD15A8
:10271000F801408151816AE971E0CE010E947F1287
:1027200064E670E080E090E00E94CD15D8014D9104
:102730005C9165E971E0CE010E947F12882309F463
:1027400096C0F801408151816BE871E0CE010E9492
:102750007F1264E670E080E090E00E94CD15CE012B
:102760000E94900D64E871E08EE893E00E94D7101B
:1027700061E373E08EE893E00E944E1261E373E040
:10278000D7018D919C910E944E1241E064EF71E05F
:10279000CE010E943A0D6DE771E08EE893E00E9451
:1027A000D7108E01025F1F4FB8018EE893E00E94A0
:1027B0004E1262E771E0C8010E949920892B11F046
:1027C00083E023C067E671E0C8010E949920892B4D
:1027D00011F082E01AC06CE571E0C8010E949920F6
:1027E000892B11F081E011C06CE471E0C8010E94F6
:1027F0009920892B11F084E008C06CE371E0C801D6
:102800000E949920892B11F085E08D878D8581307C
:10281000A9F565E371E08EE893E00E94D71065E3C7
:1028200073E08EE893E00E944E1265E373E0F701D7
:10283000808191810E944E1241E064EF71E0CE01EF
:102840000E943A0D6EE271E08EE893E00E94D7108C
:10285000B8018EE893E00E944E1266E271E0C80172
:102860000E949920892B51F086E08D8707C064E093
:1028700072E08EE893E00E946D12FFCF8EE893E045
:102880000E9433126CE373E08EE893E00E944E12D4
:102890008EE893E0DF91CF911F910F91FF90EF9021
:1028A000DF90CF900C9433121F920F920FB60F92BD
:1028B00011242F933F934F935F936F937F938F9345
:1028C0009F93AF93BF93EF93FF938EE893E00E94A3
:1028D0000215FF91EF91BF91AF919F918F917F91E1
:1028E0006F915F914F913F912F910F900FBE0F907D
:1028F0001F9018951F920F920FB60F9211242F93CD
:102900008F939F93EF93FF93E0919E03F0919F032A
:102910008081E091A403F091A50382FD12C0908113
:102920008091A7038F5F8F732091A803821751F0C6
:10293000E091A703F0E0E257FC4F958F8093A70347
:1029400001C08081FF91EF919F918F912F910F9006
:102950000FBE0F901F901895FC01918D828D9817D6
:1029600061F0828DDF01A80FB11D5D968C91928D73
:102970009F5F9F73928F90E008958FEF9FEF089570
:10298000FC01918D828D981731F0828DE80FF11D39
:10299000858D90E008958FEF9FEF0895FC01918D54
:1029A000228D892F90E0805C9F4F821B91098F734D
:1029B000992708953FB7F8948091150790911607CD
:1029C000A0911707B091180726B5A89B05C02F3F07
:1029D00019F00196A11DB11D3FBFBA2FA92F982F45
:1029E0008827820F911DA11DB11DBC01CD0142E0C0
:1029F000660F771F881F991F4A95D1F7089508958C
:102A00000E94201AFC01848DDF01A80FB11DA35A7A
:102A1000BF4F2C91848D90E001968F739927848FFE
:102A2000A689B7892C93A089B1898C9180648C93F5
:102A3000938D848D981306C00288F389E02D8081E0
:102A40008F7D80830895CF93DF93EC01888D882359
:102A5000C9F0EA89FB89808185FD05C0A889B9890B
:102A60008C9186FD0FC00FB607FCF5CF808185FFE6
:102A7000F2CFA889B9898C9185FFEDCFCE010E9454
:102A80000215E7CFDF91CF91089590E0FC01EF5858
:102A9000FD4F3491FC01E35AFD4F2491FC01E75BAB
:102AA000FD4FE491EE2309F43BC0332339F1333079
:102AB00091F038F43130A9F0323001F584B58F7DD2
:102AC00012C0373091F03830A1F03430B9F4809131
:102AD00080008F7D03C0809180008F77809380007D
:102AE0000DC084B58F7784BD09C08091B0008F7709
:102AF00003C08091B0008F7D8093B000F0E0EE0FB6
:102B0000FF1FE15CFD4FA591B4918FB7F894EC9154
:102B1000611103C020952E2301C02E2B2C938FBF53
:102B20000895CF93DF9390E0FC01E35AFD4F249189
:102B3000FC01E75BFD4F8491882361F190E0880FF1
:102B4000991FFC01EB5CFD4FC591D491FC01E15C48
:102B5000FD4FA591B491611109C09FB7F894888188
:102B6000209582238883EC912E230BC0623061F480
:102B70009FB7F8943881822F809583238883EC91C6
:102B80002E2B2C939FBF06C08FB7F894E8812E2B75
:102B900028838FBFDF91CF9108958F929F92AF923C
:102BA000BF92CF92DF92EF92FF926B017C010E9465
:102BB000DA144B015C01C114D104E104F104F1F019
:102BC0000E94DA14DC01CB0188199909AA09BB0912
:102BD000883E9340A105B10570F321E0C21AD108E7
:102BE000E108F10888EE880E83E0981EA11CB11C54
:102BF000C114D104E104F10419F7DDCFFF90EF9087
:102C0000DF90CF90BF90AF909F908F9008951F92CC
:102C10000F920FB60F9211242F933F938F939F9390
:102C2000AF93BF938091110790911207A091130762
:102C3000B09114073091100723E0230F2D3720F4B3
:102C40000196A11DB11D05C026E8230F0296A11D06
:102C5000B11D209310078093110790931207A09342
:102C60001307B09314078091150790911607A09150
:102C70001707B09118070196A11DB11D8093150784
:102C800090931607A0931707B0931807BF91AF91C1
:102C90009F918F913F912F910F900FBE0F901F909A
:102CA00018951F920F920FB60F9211242F933F93F6
:102CB0004F935F936F937F938F939F93AF93BF9344
:102CC000EF93FF93E0910601F09107010995FF91C1
:102CD000EF91BF91AF919F918F917F916F915F9194
:102CE0004F913F912F910F900FBE0F901F9018950D
:102CF0001F920F920FB60F9211242F933F934F9371
:102D00005F936F937F938F939F93AF93BF93EF9353
:102D1000FF93E0910401F09105010995FF91EF9176
:102D2000BF91AF919F918F917F916F915F914F91E3
:102D30003F912F910F900FBE0F901F901895789490
:102D400084B5826084BD84B5816084BD85B58260B0
:102D500085BD85B5816085BD80916E008160809361
:102D60006E001092810080918100826080938100CA
:102D700080918100816080938100809180008160DA
:102D8000809380008091B10084608093B100809135
:102D9000B00081608093B00080917A00846080935D
:102DA0007A0080917A00826080937A0080917A0024
:102DB000816080937A0080917A00806880937A00A5
:102DC0001092C100E0919E03F0919F0382E0808306
:102DD000E0919A03F0919B031082E0919C03F091A3
:102DE0009D0380E180831092A603E091A203F091FD
:102DF000A30386E08083E091A003F091A10380818A
:102E000080618083E091A003F091A10380818860BC
:102E10008083E091A003F091A1038081806880838A
:102E2000E091A003F091A10380818F7D80830E94B7
:102E3000C2120E9492018EE893E00E942315F9CFFE
:102E4000CF92DF92EF92FF92EEE8F3E013821282CC
:102E500088EEC82E83E0D82EE12CF12CC482D582D6
:102E6000E682F7828AE691E09183808385EC90E0A8
:102E70009587848784EC90E09787868780EC90E044
:102E8000918B808B81EC90E0938B828B82EC90E035
:102E9000958B848B86EC90E0978B868B118E128EAF
:102EA000138E148E20E047E068E089EA96E00E94E5
:102EB000B80EEAE5F6E01092A8061092A706109266
:102EC00020051092A40610921F0585EA94E09093C5
:102ED0001E0580931D058BE294E09093A4048093DB
:102EE000A3041092970614AE1582148213821282E4
:102EF0001182108212AE11AE10AE13AE178216827E
:102F000014AA15AA16AA17AA10AA11AA12AA13AAD5
:102F100014A615A616A617A610A611A612A613A6E5
:102F200014A215A216A217A210A211A212A213A2F5
:102F300014861586168617861086118612861386C5
:102F400089EA96E09093A6068093A50620E045E0E6
:102F500066E08BE396E00E94B80EE1E2F5E01382B2
:102F60001282C482D582E682F7828AE791E0918359
:102F7000808384E084878DE292E090932F06809393
:102F80002E061092310610923006109233061092DF
:102F9000320610923A06109239061092340688E2F0
:102FA00092E0909336068093350685E292E0909306
:102FB000380680933706E8ECF6E016821782108612
:102FC0001186128613861486158616861786108A31
:102FD000118A128A138A148A158AFF90EF90DF9063
:102FE000CF900895CF93DF93C2EAD1E0D0933C060F
:102FF000C0933B068BE396E00E94980FD093AA06FD
:10300000C093A90689EA96E0DF91CF910C94980FBE
:10301000991B79E004C0991F961708F0961B881F2A
:103020007A95C9F78095089597FB072E16F40094BA
:1030300007D077FD09D00E94471807FC05D03EF461
:10304000909581959F4F0895709561957F4F089554
:10305000052E97FB1EF400940E943F1857FD07D0E1
:103060000E947C2307FC03D04EF40C943F1850952B
:103070004095309521953F4F4F4F5F4F0895909564
:103080008095709561957F4F8F4F9F4F0895AA1B34
:10309000BB1B51E107C0AA1FBB1FA617B70710F043
:1030A000A61BB70B881F991F5A95A9F78095909575
:1030B000BC01CD010895EE0FFF1F0590F491E02DA6
:1030C00009945058BB27AA270E9479180C943223E0
:1030D0000E94242338F00E942B2320F039F49F3FD4
:1030E00019F426F40C9421230EF4E095E7FB0C94DC
:1030F0001B23E92F0E94432358F3BA176207730773
:103100008407950720F079F4A6F50C9465230EF456
:10311000E0950B2EBA2FA02D0B01B90190010C01E7
:10312000CA01A0011124FF27591B99F0593F50F4FF
:10313000503E68F11A16F040A22F232F342F442757
:10314000585FF3CF469537952795A795F04053954F
:10315000C9F77EF41F16BA0B620B730B840BBAF01F
:103160009150A1F0FF0FBB1F661F771F881FC2F78A
:103170000EC0BA0F621F731F841F48F4879577959E
:103180006795B795F7959E3F08F0B0CF9395880F58
:1031900008F09927EE0F9795879508950E94E218F9
:1031A0000C9432230E942B2358F00E94242340F0D9
:1031B00029F45F3F29F00C941B2351110C946623D2
:1031C0000C9421230E94432368F39923B1F35523E0
:1031D00091F3951B550BBB27AA276217730784072A
:1031E00038F09F5F5F4F220F331F441FAA1FA9F3C0
:1031F00035D00E2E3AF0E0E832D091505040E695AE
:10320000001CCAF72BD0FE2F29D0660F771F881F0E
:10321000BB1F261737074807AB07B0E809F0BB0B01
:10322000802DBF01FF2793585F4F3AF09E3F510515
:1032300078F00C941B230C9466235F3FE4F3983ED4
:10324000D4F3869577956795B795F7959F5FC9F7FE
:10325000880F911D9695879597F90895E1E0660F7F
:10326000771F881FBB1F621773078407BA0720F0F8
:10327000621B730B840BBA0BEE1F88F7E095089561
:103280000E9447196894B1110C94662308950E9416
:103290004B2388F09F5798F0B92F9927B751B0F07A
:1032A000E1F0660F771F881F991F1AF0BA95C9F7CA
:1032B00014C0B13091F00E946523B1E008950C94E0
:1032C0006523672F782F8827B85F39F0B93FCCF393
:1032D000869577956795B395D9F73EF49095809547
:1032E000709561957F4F8F4F9F4F08950E942423C3
:1032F00020F019F00E942B2350F40C9421230C94FD
:103300006623E92F0E94432388F35523B1F3E7FB9B
:103310006217730784079507A8F189F3E92FFF2740
:1033200088232AF03197660F771F881FDAF7952FC9
:103330005527442332F091505040220F331F441F31
:10334000D2F7BB27E91BF50B621B730B840BB1098A
:10335000B1F222F4620F731F841FB11D31972AF05E
:10336000660F771F881FBB1FEFCF9150504062F050
:1033700041F0882332F0660F771F881F915050402C
:10338000C1F793950C94CA198695779567959F5FB9
:10339000D9F7F7CF9F3F31F0915020F4879577957B
:1033A0006795B795880F911D9695879597F908951C
:1033B0000E948A2208F48FEF08950E94081A30F0C4
:1033C0009F3710F40C9466230C94ED190C94CA19D1
:1033D0000E948A22880B990B0895882371F4772321
:1033E00021F09850872B762F07C0662311F4992778
:1033F0000DC09051862B70E060E02AF09A95660F20
:10340000771F881FDAF7880F9695879597F90895A3
:103410000E944B23A0F0BEE7B91788F4BB279F3862
:1034200060F41616B11D672F782F8827985FF7CFA5
:10343000869577956795B11D93959639C8F308954C
:1034400081E090E0F8940C94EF23FB01DC010D90F7
:103450000020E9F7119701900D920020E1F70895FF
:10346000FC018191861721F08823D9F799270895C7
:103470003197CF010895FB01DC018D9101908019F6
:103480000110D9F3990B0895FB01DC0101900D9215
:103490000020E1F70895FB01DC014150504048F065
:1034A00001900D920020C9F701C01D92415050407B
:1034B000E0F70895FB0151915523A9F0BF01DC010C
:1034C0004D9145174111E1F759F4CD0101900020CC
:1034D00049F04D9140154111C9F3FB014111EFCF66
:1034E00081E090E001970895AEE0B0E0EAE7FAE10C
:1034F0000C94B7230D891E8986E08C831A83098377
:103500008FEF9FE79E838D83AE01475E5F4F6F898C
:10351000788DCE0101960E94B01A2F813885F8016E
:10352000E20FF31F10822E96E4E00C94D323AEE05A
:10353000B0E0EDE9FAE10C94B92385E08C838B8946
:103540009C899A838983AE01495E5F4F6D897E892C
:10355000CE0101960E94021E2E96E2E00C94D52325
:10356000ACE0B0E0E6EBFAE10C94A9237C016B013E
:103570008A01FC0117821682838181FFBDC1CE01C1
:1035800001964C01F7019381F60193FD859193FF1C
:1035900081916F01882309F4ABC1853239F493FD21
:1035A000859193FF81916F01853229F4B70190E0F5
:1035B0000E948F1FE7CF512C312C20E02032A0F445
:1035C0008B3269F030F4803259F0833269F4206133
:1035D0002CC08D3239F0803339F4216026C022604E
:1035E000246023C0286021C027FD27C030ED380F9C
:1035F0003A3078F426FF06C0FAE05F9E300D1124C1
:10360000532E13C08AE0389E300D1124332E2062D1
:103610000CC08E3221F426FD6BC1206406C08C36AE
:1036200011F4206802C0883641F4F60193FD8591BB
:1036300093FF81916F018111C1CF982F9F7D955488
:10364000933028F40C5F1F4FFFE3F9830DC08336DE
:1036500031F0833771F0833509F05BC022C0F80187
:10366000808189830E5F1F4F44244394512C540161
:1036700015C03801F2E06F0E711CF801A080B18016
:1036800026FF03C0652D70E002C06FEF7FEFC5011C
:103690002C870E94461F2C0183012C852F77222E18
:1036A00017C03801F2E06F0E711CF801A080B180E4
:1036B00026FF03C0652D70E002C06FEF7FEFC501EC
:1036C0002C870E943B1F2C012C852068222E830111
:1036D00023FC1BC0832D90E048165906B0F4B701B7
:1036E00080E290E00E948F1F3A94F4CFF50127FC0E
:1036F000859127FE81915F01B70190E00E948F1FA5
:1037000031103A94F1E04F1A51084114510471F705
:10371000E5C0843611F0893639F5F80127FF07C076
:1037200060817181828193810C5F1F4F08C060812D
:103730007181072E000C880B990B0E5F1F4F2F769F
:10374000722E97FF09C090958095709561957F4F77
:103750008F4F9F4F2068722E2AE030E0A4010E9414
:10376000E01FA82EA81844C0853729F42F7EB22E5A
:103770002AE030E025C0F22FF97FBF2E8F36C1F04E
:1037800018F4883579F0B4C0803719F0883721F003
:10379000AFC02F2F2061B22EB4FE0DC08B2D8460E0
:1037A000B82E09C024FF0AC09F2F9660B92E06C00C
:1037B00028E030E005C020E130E002C020E132E046
:1037C000F801B7FE07C060817181828193810C5F2F
:1037D0001F4F06C06081718180E090E00E5F1F4F37
:1037E000A4010E94E01FA82EA818FB2DFF777F2EB2
:1037F00076FE0BC0372D3E7FA51450F474FE0AC030
:1038000072FC08C0372D3E7E05C0BA2C372D03C090
:10381000BA2C01C0B52C34FF0DC0FE01EA0DF11D1C
:103820008081803311F4397E09C032FF06C0B39421
:10383000B39404C0832F867809F0B39433FD13C08A
:1038400030FF06C05A2CB31418F4530C5B18B32C79
:10385000B31468F4B70180E290E03C870E948F1FA8
:10386000B3943C85F5CFB31410F43B1801C0312C50
:1038700034FF12C0B70180E390E03C870E948F1FA5
:103880003C8532FF17C031FD03C088E790E002C0DD
:1038900088E590E0B7010CC0832F867859F031FF9E
:1038A00002C08BE201C080E237FD8DE2B70190E0FB
:1038B0000E948F1FA51438F4B70180E390E00E94A6
:1038C0008F1F5A94F7CFAA94F401EA0DF11D80815D
:1038D000B70190E00E948F1FA110F5CF332009F4AB
:1038E00051CEB70180E290E00E948F1F3A94F6CF4C
:1038F000F7018681978102C08FEF9FEF2C96E2E15E
:103900000C94C52320FD09C0FC0123FD05C022FF46
:1039100002C07383628351834083089544FD10C0C5
:1039200046FD10C0DB01FC01AA0FBB1FEE1FFF1FED
:103930001094D1F76A0F7B1F8E1F9F1F31E003C0C9
:1039400033E001C034E0660F771F881F991F3150A4
:10395000D1F7620F711D811D911D08950F931F9363
:10396000CF93DF938C01C8010E94511FEC0197FD9A
:1039700008C00E948720892BB1F7B801CE010E94B0
:10398000C71FCE01DF91CF911F910F910895A1E044
:10399000B0E0EDECFCE10C94AF238C01C62E7A0173
:1039A00029830E94511FAC01552729814B325105B3
:1039B00021F04D32510569F42068CA94C11002C04B
:1039C00080E076C0C80129830E94511F298197FD9C
:1039D000F7CF322F3D7FD32E322F307349F580330E
:1039E00039F5BB24BA94BC0C09F44EC0C801298334
:1039F0000E94511F298197FD47C0382F3F7D3835E0
:103A000069F48D2D8264D82ECA94CA94CC20E1F139
:103A1000C8010E94511F97FF0BC036C026FF04C08B
:103A20002D2D2260D22E03C03D2D3261D32ECB2C02
:103A3000812C912C540120ED280F283080F0D4FEE9
:103A400004C0B8010E94C71F1CC02A3040F0D6FE37
:103A5000F8CF2F7D3FEE320F363098F727504D2D9F
:103A6000C501B4010E948E1C4B015C018D2D82604A
:103A7000D82ECA94CC2059F0C8010E94511F97FF3C
:103A8000DACFD1FC04C09CCF812C912C5401D7FEFD
:103A900008C0B094A09490948094811C911CA11CA7
:103AA000B11C2D2DB501A401C7010E94821C81E02B
:103AB0002196ECE00C94CB23A1E2B0E0E2E6FDE13C
:103AC0000C94AD235C017A01CE0101966C0180E279
:103AD000F60111928A95E9F7F501838040E050E004
:103AE000912C712C70E0A1E0B0E0F90183FC85918C
:103AF00083FE81918F01982F9F01811103C080E087
:103B000090E07CC08E3519F44115510549F1E72F3D
:103B1000F0E0E417F5073CF48D3559F18D3219F4D6
:103B2000772001F103C0711001C0982E892F86956E
:103B3000869586958601080F111D892F87703D0196
:103B400001C0660C8A95EAF7F80180818629808396
:103B5000991559F0991510F49F5FE8CF9150E6CF71
:103B600071E004C07724739401C0712C4F5F5F4FE4
:103B7000BCCF772019F08E8180628E83711103C0D3
:103B80009924939416C0F6019E012F5D3F4F8081CA
:103B900080958193E217F307D1F7F2CFE114F10496
:103BA00029F0F7018083C70101967C016150912CB7
:103BB000F9F0C50169A30E94511F69A197FD16C0C4
:103BC000282F269526952695F601E20FF11D2081D6
:103BD00030E0AC014770552702C0359527954A95CE
:103BE000E2F720FDDBCFB5010E94C71F911087CF00
:103BF000E114F10411F0F7011082C801A196EEE082
:103C00000C94C9234F925F927F928F929F92AF92B2
:103C1000BF92CF92DF92EF92FF920F931F93CF93B9
:103C2000DF931F92CDB7DEB76C012B015A01FC0167
:103C300017821682712CF601F380F201F3FC859154
:103C4000F3FE8191382F2F01882309F4F3C090E00F
:103C500039830E9487203981892B21F0C6010E9477
:103C6000AE1CE9CF353241F4F201F3FC3591F3FE9D
:103C700031912F01353269F4C60139830E94511FF9
:103C8000398197FDD5C03817B1F2B6010E94C71F20
:103C9000D1C03A3239F4F3FC3591F3FE31912F0162
:103CA00051E001C050E0420110E020ED230F2A3026
:103CB00090F45260612F70E080E090E040E2598320
:103CC0000E948E1C162FF401F3FC3591F3FE319106
:103CD0004F015981EACF052F232F240151FF03C043
:103CE000111102C0A7C01FEF383619F03C3659F049
:103CF00011C0F401F3FC2591F3FE21912F01283628
:103D000049F4052F08600460F201F3FC2591F3FEED
:103D100021912F01222309F48DC0622F70E085E8E4
:103D200092E029830E94301F2981892B09F482C0E7
:103D300000FD07C0F501E080F180C50102965C013D
:103D400002C0E12CF12C2E3651F4F6014681578148
:103D500060E070E0202FC7010E94821C6CCF2336E8
:103D600091F401FF11E0C6010E94511F97FD60C050
:103D7000E114F10429F0F7018083C70101967C0169
:103D8000115089F751C02B3559F49201A701612FC9
:103D9000C6010E945C1D2C01892B09F045C03FC063
:103DA000C60129830E94AE1C298197FD41C02F3690
:103DB00059F128F4243631F1293649F127C0233747
:103DC00069F02537F9F022C0E114F10429F0F70178
:103DD0008082C70101967C01115071F0C6010E94DA
:103DE000511F4C0197FD08C00E948720892B61F369
:103DF000B601C4010E94C71FE114F104A9F0F70144
:103E0000108212C0006203C0006101C00064202F54
:103E1000A701612FC6010E94C71C811105C0F601D0
:103E20008381807329F406C000FD05CF739403CF0E
:103E3000772019F0872D90E002C08FEF9FEF0F9051
:103E4000DF91CF911F910F91FF90EF90DF90CF9076
:103E5000BF90AF909F908F907F905F904F9008950C
:103E6000FC010590061621F00020D9F7C001089545
:103E70003197CF010895FC01059061507040011009
:103E8000D8F7809590958E0F9F1F0895FC01615083
:103E9000704001900110D8F7809590958E0F9F1F6C
:103EA0000895CF93DF93EC012B8120FF33C026FFD1
:103EB0000AC02F7B2B838E819F8101969F838E83E7
:103EC0008A8190E029C022FF0FC0E881F9818081BA
:103ED000082E000C990B009719F420622B831AC04E
:103EE0003196F983E8830EC0EA85FB85099597FF33
:103EF00009C02B81019611F080E201C080E1822B84
:103F00008B8308C02E813F812F5F3F4F3F832E83DD
:103F1000992702C08FEF9FEFDF91CF9108950F9304
:103F20001F93CF93DF93FB01238121FD03C08FEF0C
:103F30009FEF28C022FF16C046815781248135811A
:103F40004217530744F4A081B1819D012F5F3F4F79
:103F5000318320838C93268137812F5F3F4F3783B6
:103F6000268310C0EB01092F182F0084F185E02D66
:103F70000995892BE1F68E819F8101969F838E831F
:103F8000812F902FDF91CF911F910F910895FB0109
:103F9000238120FF12C026FD10C08F3F3FEF930703
:103FA00061F082832F7D2064238326813781215015
:103FB000310937832683992708958FEF9FEF08955E
:103FC000FA01AA27283051F1203181F1E8946F934A
:103FD0006E7F6E5F7F4F8F4F9F4FAF4FB1E03ED0F0
:103FE000B4E03CD0670F781F891F9A1FA11D680F8E
:103FF000791F8A1F911DA11D6A0F711D811D911DC1
:10400000A11D20D009F468943F912AE0269F112435
:104010003019305D3193DEF6CF010895462F477099
:10402000405D4193B3E00FD0C9F7F6CF462F4F70F4
:10403000405D4A3318F0495D31FD4052419302D052
:10404000A9F7EACFB4E0A6959795879577956795F8
:10405000BA95C9F700976105710508959B01AC01F8
:104060000A2E06945795479537952795BA95C9F71F
:10407000620F731F841F951FA01D08956627772761
:104080000C94D020FC0188279927E89421912032B4
:10409000E9F3293010F02E30C8F32B3241F02D32E5
:1040A00039F4689404C00E94C820820F911D2191A8
:1040B00020532A30C0F31EF4909581959F4F0895A8
:1040C0001F93FC0199278827BC01E89411911032B5
:1040D000E9F3193010F01E30C8F31B3251F01D32D5
:1040E00049F4689406C00E94B320610F711D811DC0
:1040F000911D119110531A30B0F33EF490958095B4
:10410000709561957F4F8F4F9F4F1F91089591112B
:104110000C942D22803219F089508550C8F70895EB
:10412000FB01DC018D91059080190110D9F3990BE9
:104130000895FB0155915523A9F0BF01DC014D9174
:1041400045174111E1F759F4CD010590002049F0E0
:104150004D9140154111C9F3FB014111EFCF81E0B1
:1041600090E001970895592F482F372F262F660F7B
:10417000771F881F991F660F771F881F991F620F6F
:10418000731F841F951F660F771F881F991F08953F
:104190007AE0979F902D879F802D910D112408958F
:1041A000A0E0B0E0E6EDF0E20C94AD23EC017B0181
:1041B0006115710519F0DB018D939C938E010F5FE2
:1041C0001F4F7880872D90E00E948720892B11F067
:1041D000E801F4CFBDE27B1205C00F5F1F4F79806D
:1041E000C1E008C0EBE27E1204C08E010E5F1F4FDB
:1041F0007980C0E06801F1E0CF1AD10843E050E0D7
:1042000069E972E0C6010E943022892BF1F468014D
:1042100022E0C20ED11C45E050E064E972E0C60124
:104220000E943022892B21F4680187E0C80ED11C3E
:10423000E114F10419F0D701CD92DC92C111FFC055
:1042400060E070E080E89FE703C143E050E061E98F
:1042500072E0C6010E943022892B51F4E114F1046E
:1042600009F4F2C00E5F1F4FF70111830083ECC009
:10427000680160E070E0CB0100E010E0F601D0EDF5
:10428000D70DDA3058F52C2F2260622E2C2F287093
:10429000C2FF05C0211128C00F5F1F4F25C0222378
:1042A00011F001501109A5E0B0E09B01AC010E94A2
:1042B0009E234B015C01880C991CAA1CBB1CC501E8
:1042C000B4016D0F711D811D911D6839A9E97A072F
:1042D0008A07A9E19A0740F0C66005C0DE3F51F4A5
:1042E000C3FD44C0C8606C2EBFEFCB1ADB0A7080E0
:1042F000C62DC4CF2D2F2F7D2531C1F540814D32E4
:1043000011F4C06106C04B3221F0319621E030E05B
:1043100006C03296D60111964C9122E030E0A0ED15
:10432000A40FAA3018F0E21BF30B20C040E050E0CD
:104330004038BCE05B075CF49A01220F331F220F68
:10434000331F420F531F440F551F4A0F511D319603
:10435000DF0111972C91A0EDA20FAA3048F3C4FF02
:1043600003C0519541955109040F151FC1FF07C0A6
:10437000E114F10421F03197D701ED93FC930E94F1
:104380004D22C370C33019F06B017C0106C06B0174
:104390007C01F7FAF094F7F8F09420E030E0A901FE
:1043A000C701B6010E944822882309F445C017FFBF
:1043B00006C0119501951109C0EBD2E002C0C8EC0E
:1043C000D2E05E01B8E1AB1AB1084601BE2DAF2DB7
:1043D00090E2E92EF12C0E151F0584F0FE012591C7
:1043E000359145915491B4018B2F9A2F0E94AE22A2
:1043F0004B01B82FA92F0E191F09EDCF2497F59463
:10440000E794CA15DB0539F76401EB2EFA2E8E2DE1
:10441000880F8F2D881F8F3F49F020E030E0A901E1
:10442000C701B6010E944822811106C082E290E0D5
:1044300090931A0780931907C701B60109C060E07D
:1044400070E080E89FEF04C060E070E080EC9FE7E0
:10445000CDB7DEB7EEE00C94C923992788270895DD
:10446000FB01DC014150504088F08D9181341CF0FB
:104470008B350CF4805E659161341CF06B350CF467
:10448000605E861B611171F3990B0895881BFCCF48
:104490000E948A2208F481E00895E89409C097FBFD
:1044A0003EF490958095709561957F4F8F4F9F4F0B
:1044B0009923A9F0F92F96E9BB279395F69587954F
:1044C00077956795B795F111F8CFFAF4BB0F11F412
:1044D00060FF1BC06F5F7F4F8F4F9F4F16C08823B9
:1044E00011F096E911C0772321F09EE8872F762FEF
:1044F00005C0662371F096E8862F70E060E02AF030
:104500009A95660F771F881FDAF7880F969587951B
:1045100097F90895990F0008550FAA0BE0E8FEEFF0
:1045200016161706E807F907C0F012161306E40777
:10453000F50798F0621B730B840B950B39F40A2670
:1045400061F0232B242B252B21F408950A2609F44E
:10455000A140A6958FEF811D811D08950E94C12263
:104560000C9432230E94242338F00E942B2320F045
:10457000952311F00C941B230C94212311240C94EB
:1045800066230E94432370F3959FC1F3950F50E07B
:10459000551F629FF001729FBB27F00DB11D639FF5
:1045A000AA27F00DB11DAA1F649F6627B00DA11D9B
:1045B000661F829F2227B00DA11D621F739FB00D41
:1045C000A11D621F839FA00D611D221F749F3327B1
:1045D000A00D611D231F849F600D211D822F762F4A
:1045E0006A2F11249F5750409AF0F1F088234AF027
:1045F000EE0FFF1FBB1F661F771F881F9150504093
:10460000A9F79E3F510580F00C941B230C94662360
:104610005F3FE4F3983ED4F3869577956795B79519
:10462000F795E7959F5FC1F7FE2B880F911D969533
:10463000879597F9089597F99F6780E870E060E0A3
:1046400008959FEF80EC089500240A94161617062B
:1046500018060906089500240A9412161306140673
:1046600005060895092E0394000C11F4882352F0D6
:10467000BB0F40F4BF2B11F460FF04C06F5F7F4F8E
:104680008F4F9F4F089557FD9058440F551F59F075
:104690005F3F71F04795880F97FB991F61F09F3F2F
:1046A00079F087950895121613061406551FF2CF58
:1046B0004695F1DF08C0161617061806991FF1CFA8
:1046C00086957105610508940895E894BB276627CF
:1046D0007727CB0197F90895DB018F939F930E9471
:1046E0009E23BF91AF91A29F800D911DA39F900D1E
:1046F000B29F900D11240895A1E21A2EAA1BBB1B94
:10470000FD010DC0AA1FBB1FEE1FFF1FA217B3079D
:10471000E407F50720F0A21BB30BE40BF50B661FB3
:10472000771F881F991F1A9469F760957095809577
:1047300090959B01AC01BD01CF0108950E94E0233B
:10474000A59F900DB49F900DA49F800D911D1124E5
:1047500008952F923F924F925F926F927F928F9225
:104760009F92AF92BF92CF92DF92EF92FF920F9300
:104770001F93CF93DF93CDB7DEB7CA1BDB0B0FB60A
:10478000F894DEBF0FBECDBF09942A8839884888C7
:104790005F846E847D848C849B84AA84B984C8845D
:1047A000DF80EE80FD800C811B81AA81B981CE0F54
:1047B000D11D0FB6F894DEBF0FBECDBFED01089539
:1047C000A29FB001B39FC001A39F700D811D112452
:1047D000911DB29F700D811D1124911D089511E04E
:1047E000C7E6D1E004C0FE010E945B182196C836DE
:0847F000D107C9F7F894FFCFCF
:1047F8003B062105FF14FF14456D70747900000015
:1048080000000000000000000000000000000000A0
:104818000000000000000000000000000000000090
:104828000000000000000000000000000000000080
:10483800000000000000000041542B434D47533D49
:10484800220000000000000000000000000000003E
:104858000000000000000000000085105A10CE146F
:10486800AC14C014231500000000E90B5A10F50B16
:10487800DD0BD10BC50B0000000000155A10001508
:104888000015001500150000000000155A10000062
:1048980000001A0C5A106E0C860C010C190C2D0015
:1048A8004469646E27742066696E6420534D5320F2
:1048B8006D65737361676520696E20736C6F742111
:1048C800005265636569766564206D657373616719
:1048D800652066726F6D3A20004D65737361676578
:1048E8002072656365697665642066726F6D2073F2
:1048F800656E6465723A0024504D544B3331342C44
:10490800302C312C302C312C302C302C302C302CBD
:10491800302C302C302C302C302C302C302C302CAF
:10492800302C302C302A32380024504D544B32323F
:10493800302C313030302A314600245047434D4422
:104948002C33332C312A3643002447504747410043
:10495800244750524D43000A54696D653A2000447B
:104968006174653A20002F3230004C6F63617469BE
:104978006F6E3A20002C20006C61743A2025732554
:10498800642E253034640A006C6F6E673A202573F4
:1049980025642E2530346400526561642066726F88
:1049A8006D204750533A004E6F2067707320666938
:1049B800782E00436F756C646E742073656E642086
:1049C8006D65737361676520746F20696E74656EB9
:1049D80064656420726563697069656E742E003160
:1049E80033353238353737333130002B434D54495E
:1049F8003A2022534D222C25640041542B434D4725
:104A0800443D303030005E5A002B434D4753004F31
:104A18004B006E616E00696E66006F7666000D0A67
:104A2800004154490041542B474D4D00464F4E41DB
:084A3800205265616479000061
:00000001FF
