:100000000C944A010C94F8040C94D1040C94750AD5
:100010000C94750A0C94750A0C9472010C9472017C
:100020000C9472010C9472010C9472010C94720184
:100030000C9472010C9472010C9472010C94720174
:100040000C9487040C9472010C9493030C946D032C
:100050000C9472010C9472010C9472010C94720154
:100060000C9472010C9472012B434D47523A00419B
:10007000542B434D47523D0041542B434D47523D75
:100080000041542B435344483D310041542B434DD0
:1000900047463D31002B434D47523A0041542B43D4
:1000A0004D47523D0041542B434D47523D00415472
:1000B0002B435344483D310041542B434D47463D6B
:1000C00031005265706C792073656E7420737563AE
:1000D0006365737366756C6C792E005265706C790C
:1000E0002073656E74207375636365737366756CD6
:1000F0006C792E0000000000240027002A00000078
:1001000000080002010000030407000000000000D6
:100110000000093C2D2D2D2000092D2D2D3E200005
:100120004F4B00464F4E4100464F4E416E657400A6
:1001300000000000250028002B0000000000230024
:100140002600290004040404040404040202020238
:10015000020203030303030301020408102040808A
:100160000102040810200102040810203E20003E75
:10017000200041542B434D47463D310041542B4311
:100180004D47463D3100093C2D2D2D2000092D2DD8
:100190002D3E200053494D3830304800093C2D2D6C
:1001A0002D2000092D2D2D3E200053494D434F4D4C
:1001B0005F53494D35333230450053494D434F4D20
:1001C0005F53494D35333230410053494D3830305B
:1001D000205231330053494D3830382052313300EA
:1001E00053494D3830382052313400093C2D2D2DE3
:1001F0002000092D2D2D3E200041542B43564855FB
:100200003D300041544530004154453000415400D8
:1002100041540041540054696D656F75743A204E25
:100220006F20726573706F6E736520746F20415418
:100230002E2E2E206C6173742064697463682061B3
:100240007474656D70742E00415400415400415423
:1002500000417474656D7074696E6720746F206FEF
:1002600070656E20636F6D6D2077697468204154EE
:100270007300436F756C646E27742066696E64202A
:10028000464F4E41006364696E6F70737578585BBA
:100290000000EF0A11241FBECFEFD8E0DEBFCDBFB4
:1002A00013E0A0E0B1E0ECE1F8E202C005900D92AD
:1002B000AE30B107D9F724E0AEE0B3E001C01D9243
:1002C000AC34B207E1F711E0CAE4D1E004C02197F1
:1002D000FE010E94B50EC934D107C9F70E94F90B7F
:1002E0000C940C140C940000CF92DF92EF92FF92CA
:1002F0000F931F93CF93DF936C017A018B01C0E0C2
:10030000D0E0CE15DF0589F0D8016D918D01D601C1
:10031000ED91FC910190F081E02DC6010995892BAA
:1003200011F47E0102C02196ECCFC701DF91CF917D
:100330001F910F91FF90EF90DF90CF900895FC01F7
:10034000918D828D981761F0828DDF01A80FB11D0C
:100350005D968C91928D9F5F9F73928F90E0089530
:100360008FEF9FEF0895FC01918D828D981731F0EA
:10037000828DE80FF11D858D90E008958FEF9FEF3E
:100380000895FC01918D228D892F90E0805C9F4F14
:10039000821B91098F7399270895FC01848DDF01D9
:1003A000A80FB11DA35ABF4F2C91848D90E00196E8
:1003B0008F739927848FA689B7892C93A089B189D7
:1003C0008C9180648C93938D848D981306C00288E1
:1003D000F389E02D80818F7D80830895EF92FF92D5
:1003E0000F931F93CF93DF93EC0181E0888F9B8D58
:1003F0008C8D981305C0E889F989808185FD24C01A
:10040000F62E0B8D10E00F5F1F4F0F731127E02E9C
:100410008C8DE8120CC00FB607FCFACFE889F98979
:10042000808185FFF5CFCE010E94CD01F1CF8B8D6C
:10043000FE01E80FF11DE35AFF4FF0820B8FEA89AE
:10044000FB898081806207C0EE89FF896083E8892B
:10045000F98980818064808381E090E0DF91CF9191
:100460001F910F91FF90EF900895CF93DF93EC01D0
:10047000888D8823C9F0EA89FB89808185FD05C0C4
:10048000A889B9898C9186FD0FC00FB607FCF5CFFE
:10049000808185FFF2CFA889B9898C9185FFEDCF46
:1004A000CE010E94CD01E7CFDF91CF9108953FB7F4
:1004B000F8948091B4039091B503A091B603B091E4
:1004C000B70326B5A89B05C02F3F19F00196A11DC3
:1004D000B11D3FBFBA2FA92F982F8827820F911DDA
:1004E000A11DB11DBC01CD0142E0660F771F881F21
:1004F000991F4A95D1F7089508956115710579F00E
:10050000FB0101900020E9F73197AF01461B570B23
:10051000DC01ED91FC910280F381E02D099480E0F3
:1005200090E008950E94E80F68E372E00C947D0269
:100530008F929F92AF92BF92EF92FF920F931F9371
:10054000CF93DF93CDB7DEB7A1970FB6F894DEBF98
:100550000FBECDBF7C01262F30E040E050E019A255
:100560008E010F5D1F4F8AE0882E912CA12CB12C9B
:10057000CA01B901A50194010E94B313605DF8019D
:1005800062938F01211531054105510589F7BF019E
:10059000C7010E947D028C01C7010E949402800F56
:1005A000911FA1960FB6F894DEBF0FBECDBFDF91AD
:1005B000CF911F910F91FF90EF90BF90AF909F90C0
:1005C0008F9008950F931F93CF93DF93EC010E94B8
:1005D0007D028C01CE010E949402800F911FDF9159
:1005E000CF911F910F910895EF92FF920F931F9358
:1005F000CF93DF938C017B01C0E0D0E0F701EC0FDB
:10060000FD1F6491662361F0D801ED91FC9101908A
:10061000F081E02DC8010995892B11F02196EECFCC
:10062000CE01DF91CF911F910F91FF90EF90089530
:100630000F931F93CF93DF93EC010E94F4028C0180
:10064000CE010E949402800F911FDF91CF911F91E4
:100650000F910895EF92FF920F931F93CF93DF9323
:10066000EC018B017A010E94EF0869E171E08EE0F4
:1006700093E00E94F402B8018EE093E00E94180318
:10068000FE01E85EFE4FB801808191810E9418034F
:1006900040E064EF71E0CE010E949908182F62E1FA
:1006A00071E08EE093E00E94F4022E96BE018EE08F
:1006B00093E00E94E202112339F0B701CE010E94BB
:1006C000851321E0892B09F020E0822FDF91CF9163
:1006D0001F910F91FF90EF9008951F920F920FB608
:1006E0000F9211242F933F934F935F936F937F93B8
:1006F0008F939F93AF93BF93EF93FF938EE093E01D
:100700000E94CD01FF91EF91BF91AF919F918F9189
:100710007F916F915F914F913F912F910F900FBEFD
:100720000F901F9018951F920F920FB60F921124E1
:100730002F938F939F93EF93FF93E0911E03F0917C
:100740001F038081E0912403F091250382FD12C0F4
:100750009081809127038F5F8F73209128038217E8
:1007600051F0E0912703F0E0E25FFC4F958F80931A
:10077000270301C08081FF91EF919F918F912F916D
:100780000F900FBE0F901F90189590E0FC01E25063
:10079000FF4F3491FC01E85AFE4F2491FC01EC5BC1
:1007A000FE4FE491EE2309F43BC0332339F133309B
:1007B00091F038F43130A9F0323001F584B58F7DF5
:1007C00012C0373091F03830A1F03430B9F4809154
:1007D00080008F7D03C0809180008F7780938000A0
:1007E0000DC084B58F7784BD09C08091B0008F772C
:1007F00003C08091B0008F7D8093B000F0E0EE0FD9
:10080000FF1FE05DFE4FA591B4918FB7F894EC9176
:10081000611103C020952E2301C02E2B2C938FBF76
:100820000895CF93DF9390E0FC01E85AFE4F2491A6
:10083000FC01EC5BFE4F8491882361F190E0880F0E
:10084000991FFC01EC50FF4FC591D491FC01E05D74
:10085000FE4FA591B491611109C09FB7F8948881AA
:10086000209582238883EC912E230BC0623061F4A3
:100870009FB7F8943881822F809583238883EC91E9
:100880002E2B2C939FBF06C08FB7F894E8812E2B98
:1008900028838FBFDF91CF9108958F929F92AF925F
:1008A000BF92CF92DF92EF92FF926B017C010E9488
:1008B00057024B015C01C114D104E104F104F1F0D1
:1008C0000E945702DC01CB0188199909AA09BB09CA
:1008D000883E9340A105B10570F321E0C21AD1080A
:1008E000E108F10888EE880E83E0981EA11CB11C77
:1008F000C114D104E104F10419F7DDCFFF90EF90AA
:10090000DF90CF90BF90AF909F908F9008951F92EF
:100910000F920FB60F9211242F933F938F939F93B3
:10092000AF93BF938091B0039091B103A091B203B4
:10093000B091B3033091AF0323E0230F2D3720F4A0
:100940000196A11DB11D05C026E8230F0296A11D29
:10095000B11D2093AF038093B0039093B103A09394
:10096000B203B093B3038091B4039091B503A09107
:10097000B603B091B7030196A11DB11D8093B403D6
:100980009093B503A093B603B093B703BF91AF9113
:100990009F918F913F912F910F900FBE0F901F90BD
:1009A00018951F920F920FB60F9211242F933F9319
:1009B0004F935F936F937F938F939F93AF93BF9367
:1009C000EF93FF93E0910201F09103010995FF91EC
:1009D000EF91BF91AF919F918F917F916F915F91B7
:1009E0004F913F912F910F900FBE0F901F90189530
:1009F0001F920F920FB60F9211242F933F934F9394
:100A00005F936F937F938F939F93AF93BF93EF9376
:100A1000FF93E0910001F09101010995FF91EF91A1
:100A2000BF91AF919F918F917F916F915F914F9106
:100A30003F912F910F900FBE0F901F9018956F92BE
:100A40007F928F929F92AF92BF92CF92DF92EF925E
:100A5000FF920F931F93CF93DF93CDB7DEB7CE5A9C
:100A6000D1400FB6F894DEBF0FBECDBF86E0EAE0FE
:100A7000F1E0DE01A35DBE4F01900D928A95E1F792
:100A8000EDE2F1E0EC0FFD1F36968AE3DF011D92E7
:100A90008A95E9F70091AD031091AE03D801ED916D
:100AA000FC910480F581E02DC8010995892B09F49A
:100AB0004DC07E01B3E5EB1ABEEFFB0AF7011182D0
:100AC0001082CE0101966C014E0190E4890E911CBA
:100AD00036015601D801ED91FC910680F781E02D99
:100AE000C8010995F60181936F01682F8EE093E0AC
:100AF0000E94EE0161E070E080E090E00E944D0411
:100B0000D5018C918A3069F0D801ED91FC91048077
:100B1000F581E02DC8010995892B19F0C814D90475
:100B2000C1F6F5011182FF92EF9280ED92E09F9362
:100B30008F937F926F920E9435100F900F900F90BD
:100B40000F900F900F90019709F457C08E01035D2D
:100B50001E4F6AE071E0C8010E940310892B09F45E
:100B6000F0C1B8018EE093E00E94E202E090AD0394
:100B7000F090AE038FE0EAE4F1E0DE01119601901F
:100B80000D928A95E1F7FE01709681E9DF011D92D1
:100B90008A95E9F7B801CE0101960E94ED0FAE01EA
:100BA0004F5F5F4F62E972E0C7010E94B309811194
:100BB0000AC048E952E064EC72E0C7010E94B30940
:100BC00080E090E002C081E090E0892B79F08EE037
:100BD00093E00E9494026BED70E08EE093E00E943F
:100BE00018038EE093E00E949402ABC162EC70E0C7
:100BF0008EE093E00E941803A4C1F701A080680171
:100C0000FAEECF1AFEEFDF0AD6014D915C9168EB48
:100C100070E0C8010E942A03882309F475C0F60118
:100C2000408151816EEA70E0C8010E942A03B82E0B
:100C3000882309F469C065EA70E08EE093E00E94C1
:100C4000F4026A2D8EE093E00E9498026CE970E055
:100C50004801F8EE8F1AFEEF9F0AD4018D919C9106
:100C60000E94F4026A2DF401808191810E94980211
:100C700040E068EE73E0C8010E9499084801FEE078
:100C80008F0E911CB4018EE093E00E94E20265E9B0
:100C900070E0C4010E948E13009781F16CE270E055
:100CA00006960E94F80F009749F1FC01319650E03A
:100CB00040E0252F30E02F3131050CF5842F90E0F6
:100CC000DF010D900020E9F71197AE1BBF0B8A17CB
:100CD0009B0708F02EC1DF01A80FB91F8C918C3241
:100CE00009F427C1823241F0ADE8B1E0AC0FBD1F7D
:100CF000A20FB31F8C935F5F4F5FDBCFB12CC80196
:100D00000E94EF08B1101BC06BE372E08EE093E02D
:100D10000E94E2028CE0E4ECF2E0DE01AF55BF4F4E
:100D200001900D928A95E1F7FE01EF55FF4FDE012C
:100D3000A359BE4F9F01245F3F4FCD010EC0FE015E
:100D4000E357FE4FDE01A359BE4FCF01809621919C
:100D50002D93E817F907D9F70CC041914D93E2178D
:100D6000F307D9F7FC013C9680961192E817F90732
:100D7000E1F78EE093E00E9494026CE572E08EE071
:100D800093E00E94E202BE0163597E4F8EE093E041
:100D90000E94E2028EE093E00E9494028EE093E0D3
:100DA0000E94940264E772E08EE093E00E94E20207
:100DB000D701BC90F601408151816BE870E0C80119
:100DC0000E942A03882309F4A3C0D6014D915C91A7
:100DD00061E870E0C8010E942A03882309F498C0E2
:100DE00068E770E08EE093E00E94F4026B2D8EE0E5
:100DF00093E00E9498027801B8EEEB1ABEEFFB0A6E
:100E00006FE670E0F701808191810E94F4026B2D02
:100E1000D7018D919C910E94980240E068EE73E0AA
:100E2000C8010E9499086801BEE0CB0ED11CB60132
:100E30008EE093E00E94E20268E670E0C6010E9444
:100E40008E13009709F464C006962BE0B22E6CE274
:100E500070E00E94F80F009709F45AC00196BA9406
:100E6000B110F5CF0E945E135C014601612C712C1C
:100E70006A147B0421F18EEF68167104E9F0F70122
:100E800080819181DC01ED91FC910480F581E02D60
:100E90000995892B69F3F70180819181DC01ED913E
:100EA000FC910680F781E02D0995F40181934F01B3
:100EB000FFEF6F1A7F0ADCCF9EEFA92EB12CF8014D
:100EC000EA0DFB1D1686C8010E94EF08F60101908D
:100ED0000020E9F731977F01EC18FD089DE8E9163D
:100EE000F10418F08CE8E82EF12CA701B601CE0130
:100EF0008F559F4F0E940C10E1EAF0E0EC0FFD1FB0
:100F0000EE0DFF1D1082B6018EE093E00E94E2021A
:100F10008EE093E00E949402F12C6F2DC8010E9494
:100F20005509F394A8E0FA12F8CF8E010F551F4F20
:100F300010CEEDE8F1E0EC0FFD1FE20FF31F108281
:100F4000DECEC255DE4F0FB6F894DEBF0FBECDBF6A
:100F5000DF91CF911F910F91FF90EF90DF90CF9095
:100F6000BF90AF909F908F907F906F900895FC01FD
:100F7000E85EFE4F80819181DC01ED91FC9102845D
:100F8000F385E02D0994FC01E85EFE4F808191819C
:100F9000DC01ED91FC910084F185E02D0994FC01C8
:100FA000E85EFE4F80819181DC01ED91FC9106802D
:100FB000F781E02D0994FC01E85EFE4F808191816C
:100FC000DC01ED91FC910190F081E02D0994FC0190
:100FD000E85EFE4F80819181DC01ED91FC910480FF
:100FE000F581E02D0994209146043091470428179B
:100FF000390771F49091440480914504981741F0A9
:10100000E0914404F0E0EC5FFB4F808190E00895B4
:101010008FEF9FEF089508951F93CF93DF93DC0127
:101020005C962D913C915D972115310539F481E055
:1010300090E013969C938E9312973DC05196ED913C
:10104000FC91529750969C915097892F80951FB78D
:101050005E964C915E9741FB772770F941FD609554
:10106000F8944081772311F0492B01C04823408335
:10107000E9012197F1F748E0508160FF02C0592B48
:1010800001C058235083E9012197F1F7669541503B
:1010900099F7772321F090818923808303C0808191
:1010A000982B90831FBF5C968D919C915D970197C3
:1010B000F1F721E030E0C901DF91CF911F91089550
:1010C00020914604309147042817390771F4809124
:1010D00045042091440490E0805C9F4F821B91095D
:1010E00060E470E00E948D0E089580E090E0089525
:1010F000209146043091470428173907B9F490919C
:10110000440480914504981789F0E0914404F0E08C
:10111000EC5FFB4F80812091440430E02F5F3F4F14
:101120002F7333272093440490E008958FEF9FEFAF
:101130000895BF92CF92DF92EF92FF920F931F9389
:10114000CF93DF937C01B42E8B01C0E0D0E06C0123
:1011500088EEC81A8EEFD80A0115110589F1CE3F25
:10116000D10570F5F60180819181DC01ED91FC9152
:101170000480F581E02D0995892BC1F0D6018D9170
:101180009C91DC01ED91FC910680F781E02D0995A1
:101190008D3041F38A3021F4209721F3BB2081F078
:1011A000F701EC0FFD1F86872196DCCF0150110956
:1011B00039F061E070E080E090E00E944D04CCCF17
:1011C000F701EC0FFD1F16868C2FDF91CF911F9139
:1011D0000F91FF90EF90DF90CF90BF9008950F9305
:1011E0001F93CF93DF938C01C0E0D0E0CE01019636
:1011F000A897E8F4EC01D801ED91FC910480F58109
:10120000E02DC8010995892B59F0D801ED91FC9189
:101210000680F781E02DC8010995C0E0D0E0EBCF52
:1012200061E070E080E090E00E944D04DFCFDF914C
:10123000CF911F910F910895EF92FF920F931F93FB
:10124000CF93DF93EC018B017A010E94EF086DE8E8
:1012500071E08EE093E00E94F402B8018EE093E02A
:101260000E94E202FE01E85EFE4FB801808191819A
:101270000E94E20240E0B701CE010E949908182FB7
:1012800066E871E08EE093E00E94F402BE01625FC6
:101290007F4F8EE093E00E94E202812FDF91CF9199
:1012A0001F910F91FF90EF900895DF92EF92FF92C0
:1012B0000F931F93CF93DF93CDB7DEB72C970FB665
:1012C000F894DEBF0FBECDBF8C01D62E7C018AEE16
:1012D000E81A8EEFF80AF701408151816CE771E05E
:1012E000C8010E942A03282F882371F19CE0EFEDAA
:1012F000F2E0DE01119601900D929A95E1F78D2DA5
:1013000064E60E94810E20E3280F2987892F6AE076
:101310000E94810E805D8A87905D9B87F701E08047
:10132000F18040ED57E0BE016F5F7F4FC8010E9422
:101330001C09882341F0B701C8010E960E9485134D
:1013400021E0892B09F020E0822F2C960FB6F8942B
:10135000DEBF0FBECDBFDF91CF911F910F91FF90E8
:10136000EF90DF900895AF92BF92CF92DF92EF920D
:10137000FF920F931F93CF93DF93CDB7DEB76E9796
:101380000FB6F894DEBF0FBECDBF8C016B015A01C2
:10139000FC01EA5EFE4F4081518162E771E00E94EC
:1013A0002A03882309F48EC08AE0EAE1F2E09E0174
:1013B0002F5F3F4F7901D90101900D928A95E1F796
:1013C000FE013B9684E1DF011D928A95E9F743E136
:1013D00050E0B601CE010A960E940C10F701019070
:1013E0000020E9F7319782E2808344EF51E0B701B2
:1013F000C8010E941C09882309F464C06801BEE08A
:10140000CB0ED11C6FE671E0C6010E948513892BBB
:1014100009F058C06CE671E08EE093E00E94F4029F
:10142000B5018EE093E00E94E202B5017801E8EE9A
:10143000EE1AEEEFFE0AD7018D919C910E94E20216
:10144000F701808191810E949402D7018D919C9136
:10145000DC01ED91FC910190F081E02D6AE10995AC
:1014600061E073E08EE093E00E94E202F80185857E
:101470008450823060F440E068EC70E0C8010E9463
:10148000990840E068EC70E0C8010E94990840E0CB
:1014900060E177E2C8010E94990864E073E0C60148
:1014A0000E941B10892B71F040E068EE73E0C801C8
:1014B0000E9499086AE073E0C6010E94031021E0CF
:1014C000892B09F020E0822F6E960FB6F894DEBFCC
:1014D0000FBECDBFDF91CF911F910F91FF90EF9085
:1014E000DF90CF90BF90AF9008951F920F920FB6EC
:1014F0000F9211242F933F934F935F936F937F939A
:101500008F939F93AF93BF93EF93FF93E091460424
:10151000F0914704309709F451C0968DA685B785A0
:10152000858591FF04C09C91892329F447C09C9133
:10153000892309F043C0A389B4899C91858980954A
:1015400089238C93868997890197F1F7608D718D36
:10155000A685B785558538E020E0CB010197F1F7E6
:10156000822F90E095958795282F4C91452309F07F
:101570002068315091F7868D81FD2095809145043A
:1015800090E001968F73992730914404381749F001
:10159000A0914504B0E0AC5FBB4F2C938093450411
:1015A00003C0868D8160868F828D938D0197F1F7C0
:1015B000A389B4899C918589892B8C93FF91EF91A4
:1015C000BF91AF919F918F917F916F915F914F915B
:1015D0003F912F910F900FBE0F901F901895CF92B3
:1015E000DF92EF92FF92CF93DF931092110310924C
:1015F000100398EEC92E93E0D92EE12CF12CC09265
:101600001203D0921303E0921403F09215038EEEAE
:1016100091E090930F0380930E0385EC90E09093FC
:101620001B0380931A0384EC90E090931D03809336
:101630001C0380EC90E090931F0380931E0381ECC9
:1016400090E0909321038093200382EC90E09093AC
:1016500023038093220386EC90E0909325038093EC
:10166000240310922703109228031092290310924A
:101670002A038FE190E00E94BB0EEC011B821A82CC
:10168000CC82DD82EE82FF828EE092E099838883B5
:101690001F8A1E8A198E188E1B8E1A8E1D8E1C8E06
:1016A0006E8D6E7F6D7F6E8F6695617081E06827AD
:1016B00085E00E94C50361E085E00E941104EDE52C
:1016C000F1E0E491E88BE9E4F1E0E491F0E0EE0F81
:1016D000FF1FE05DFE4F859194919A8B898B60E0AE
:1016E00086E00E9411048E8D81FD04C061E086E0D9
:1016F0000E94C50386E08C87EEE5F1E0E491ED877A
:10170000EAE4F1E0E491F0E0EE0FFF1FE65CFE4F4B
:10171000859194919F878E87D093BB03C093BA0322
:101720008AE191E00E94BB0EFC011382128288EED6
:1017300093E0A0E0B0E084839583A683B7838EEF27
:1017400091E09183808384E08487DF01A35FBE4FB3
:1017500088E291E011969C938E93129611961C92BA
:101760001E92129611961C921E92179611961C921A
:101770001E9215971C92119683E291E011969C930C
:101780008E93129680E291E08D939C93F093B9032F
:10179000E093B803D093AC03C093AB03F093AE03D4
:1017A000E093AD031092C2031092C3031092C403DE
:1017B0001092C5031092C6031092C7031092C8037B
:1017C0001092C9031092CA031092CB031092CC035B
:1017D0001092CD031092CE031092CF031092D0033B
:1017E0001092D103DF91CF91FF90EF90DF90CF90D7
:1017F0000895789484B5826084BD84B5816084BD89
:1018000085B5826085BD85B5816085BD80916E009E
:10181000816080936E0010928100809181008260CF
:10182000809381008091810081608093810080910C
:1018300080008160809380008091B10084608093FB
:10184000B1008091B00081608093B00080917A00F7
:10185000846080937A0080917A00826080937A001D
:1018600080917A00816080937A0080917A0080680C
:1018700080937A001092C100E0911E03F0911F0343
:1018800082E08083E0911A03F0911B031082E091C3
:101890001C03F0911D0380E1808310922603E091E8
:1018A0002203F091230386E08083E0912003F091EE
:1018B0002103808180618083E0912003F0912103E6
:1018C000808188608083E0912003F09121038081F2
:1018D00080688083E0912003F091210380818F7DD7
:1018E0008083E091AB03F091AC03138E128E118EC6
:1018F000108E178A168A8EE393E0958F848F8485E5
:10190000863108F04DC02DE831E0378B268B2CE373
:1019100033E0318F208F24E632E0338F228F909195
:101920006800883050F021E08E3008F420E081E03B
:1019300001C0880F2A95EAF701C084E0892B8093C3
:1019400068009485983038F09E3040F0963148F029
:1019500020E030E008C02DE630E005C02BE630E0A6
:1019600002C02CE630E0348B238B983030F481E0D9
:1019700001C0880F9A95EAF70EC0292F30E09E30FB
:1019800018F42850310902C02E50310981E001C0FD
:10199000880F2A95EAF7858B848D958D0197F1F74D
:1019A000828D938D892B21F1A0914604B09147043B
:1019B000AE17BF07E9F0109751F05396CD91DC9127
:1019C0005497988155968C91809589238883868D2C
:1019D0008E7F868F1092450410924404F093470442
:1019E000E0934604A389B4899C918589892B8C93C3
:1019F000C091AD03D091AE037E0188EEE81A8EEF60
:101A0000F80A8091AB039091AC03D7018D939C931E
:101A100061E08C850E94110461E08C850E94C50301
:101A20006AE070E080E090E00E944D0460E08C8508
:101A30000E94C50364E670E080E090E00E944D04DF
:101A400061E08C850E94C50361E572E08EE093E061
:101A50000E9418038EE0C82ED12C8E010A5E1E4F04
:101A6000F70180819181DC01ED91FC910480F58189
:101A7000E02D0995892B59F0F70180819181DC01D6
:101A8000ED91FC910680F781E02D0995E9CFF801F1
:101A9000408151816EE472E0CE010E942A038111DF
:101AA0005BC0F70180819181DC01ED91FC910480A4
:101AB000F581E02D0995892B59F0D7018D919C91E5
:101AC000DC01ED91FC910680F781E02D0995E9CFCD
:101AD00048E452E06BE472E0CE010E942A038111D7
:101AE0003BC064EF71E080E090E00E944D04B1E003
:101AF000CB1AD10809F0B4CF66E172E08EE093E032
:101B00000E941803D8014D915C9163E172E0CE010F
:101B10000E942A0364E670E080E090E00E944D0499
:101B2000F8014081518160E172E0CE010E942A03F8
:101B300064E670E080E090E00E944D04D8014D9191
:101B40005C916DE072E0CE010E942A0364E670E0D1
:101B500080E090E00E944D04F8014081518168E0EE
:101B600072E0CE010E942A0364E670E080E090E01B
:101B70000E944D04D8014D915C9163E072E0CE016A
:101B80000E942A03882309F4B5C0F80140815181DD
:101B900069EF71E0CE010E942A0364E670E080E004
:101BA00090E00E944D04CE010E94EF0862EF71E0C8
:101BB0008EE093E00E94F4026BEE72E08EE093E020
:101BC0000E94E2026BEE72E0D7018D919C910E941F
:101BD000E20241E064EF71E0CE010E9499086BEEF1
:101BE00071E08EE093E00E94F4028E01025F1F4FCD
:101BF000B8018EE093E00E94E20260EE71E0C8015D
:101C00000E948E13892B11F083E023C065ED71E0F3
:101C1000C8010E948E13892B11F082E01AC06AEC71
:101C200071E0C8010E948E13892B11F081E011C070
:101C30006AEB71E0C8010E948E13892B11F084E0D9
:101C400008C06AEA71E0C8010E948E13892B11F066
:101C500085E08D878D85813069F563EA71E08EE0DE
:101C600093E00E94F4026FEE72E08EE093E00E9437
:101C7000E2026FEE72E0F701808191810E94E20240
:101C800041E064EF71E0CE010E9499086CE971E0D7
:101C90008EE093E00E94F402B8018EE093E00E948F
:101CA000E20264E971E0C8010E948E13892B11F0F1
:101CB00086E08D878EE093E00E94940266EF72E0EA
:101CC0008EE093E00E94E2028EE093E00E94940294
:101CD000C0E06C2F8091AD039091AE030E94550936
:101CE000CF5FC032B1F70E941F058EE093E00E94E3
:101CF0003502F9CF62E772E08EE093E00E941803AC
:101D0000FFCF991B79E004C0991F961708F0961B26
:101D1000881F7A95C9F78095089597FB072E16F4CA
:101D2000009407D077FD09D00E94A10E07FC05D0D2
:101D30003EF4909581959F4F0895709561957F4FE2
:101D40000895AA1BBB1B51E107C0AA1FBB1FA61702
:101D5000B70710F0A61BB70B881F991F5A95A9F754
:101D600080959095BC01CD010895EE0FFF1F059061
:101D7000F491E02D0994CF93DF938230910510F414
:101D800082E090E0E0914A04F0914B0420E030E0E2
:101D9000C0E0D0E0309711F14081518148175907D8
:101DA000C0F04817590761F482819381209719F098
:101DB0009B838A832BC090934B0480934A0426C054
:101DC0002115310519F04217530718F49A01BE0185
:101DD000DF01EF010280F381E02DDCCF2115310519
:101DE00009F1281B390B2430310590F412968D919E
:101DF0009C9113976115710521F0FB0193838283F8
:101E000004C090934B0480934A04FD01329644C071
:101E1000FD01E20FF31F81939193225031092D931D
:101E20003C933AC02091480430914904232B41F45B
:101E30002091060130910701309349042093480412
:101E400020910401309105012115310541F42DB790
:101E50003EB74091080150910901241B350BE091D8
:101E60004804F0914904E217F307A0F42E1B3F0B3E
:101E70002817390778F0AC014E5F5F4F24173507FC
:101E800048F04E0F5F1F50934904409348048193DC
:101E9000919302C0E0E0F0E0CF01DF91CF9108958F
:101EA0000F931F93CF93DF93009709F48CC0FC012D
:101EB00032971382128200914A0410914B0401154B
:101EC000110581F420813181820F931F20914804F4
:101ED000309149042817390779F5F0934904E093C4
:101EE000480471C0D80140E050E0AE17BF0750F47D
:101EF00012962D913C911397AD012115310509F1F1
:101F0000D901F3CF9D01DA0133832283608171818E
:101F1000860F971F8217930769F4EC012881398196
:101F2000260F371F2E5F3F4F318320838A819B818D
:101F300093838283452B29F4F0934B04E0934A0466
:101F400042C01396FC93EE931297ED01499159917B
:101F50009E01240F351FE217F30771F480819181F0
:101F6000840F951F029611969C938E938281938184
:101F700013969C938E931297E0E0F0E0D8011296AE
:101F80008D919C911397009719F0F8018C01F6CF71
:101F90008D919C9198012E5F3F4F820F931F20914E
:101FA0004804309149042817390769F4309729F417
:101FB00010924B0410924A0402C0138212821093B2
:101FC000490400934804DF91CF911F910F91089528
:101FD00081E090E0F8940C940C14FB01DC010D906E
:101FE0000020E9F7119701900D920020E1F7089584
:101FF000FC018191861721F08823D9F7992708954C
:102000003197CF010895FB01DC018D91019080197A
:102010000110D9F3990B0895FB01DC0141505040A8
:1020200048F001900D920020C9F701C01D92415067
:102030005040E0F70895FB0151915523A9F0BF01ED
:10204000DC014D9145174111E1F759F4CD010190A3
:10205000002049F04D9140154111C9F3FB01411198
:10206000EFCF81E090E001970895AEE0B0E0EBE3C0
:10207000F0E10C94E51385E08C838B899C899A832D
:102080008983AE01495E5F4F6D897E89CE010196DD
:102090000E94CE112E96E2E00C94011420FD09C09E
:1020A000FC0123FD05C022FF02C0738362835183BC
:1020B0004083089544FD10C046FD10C0DB01FC01C3
:1020C000AA0FBB1FEE1FFF1F1094D1F76A0F7B1FD3
:1020D0008E1F9F1F31E003C033E001C034E0660F64
:1020E000771F881F991F3150D1F7620F711D811D15
:1020F000911D08950F931F93CF93DF938C01C80117
:102100000E940713EC0197FD08C00E947C13892BE5
:10211000B1F7B801CE010E944513CE01DF91CF91F6
:102120001F910F910895A1E0B0E0E9E9F0E10C946E
:10213000DB138C01C62E7A0129830E940713AC01A0
:10214000552729814B32510521F04D32510569F453
:102150002068CA94C11002C080E076C0C8012983FB
:102160000E940713298197FDF7CF322F3D7FD32E91
:10217000322F307349F5803339F5BB24BA94BC0C47
:1021800009F44EC0C80129830E940713298197FDD5
:1021900047C0382F3F7D383569F48D2D8264D82EA5
:1021A000CA94CA94CC20E1F1C8010E94071397FF9A
:1021B0000BC036C026FF04C02D2D2260D22E03C0D6
:1021C0003D2D3261D32ECB2C812C912C540120ED4E
:1021D000280F283080F0D4FE04C0B8010E944513B7
:1021E0001CC02A3040F0D6FEF8CF2F7D3FEE320FD4
:1021F000363098F727504D2DC501B4010E945A1072
:102200004B015C018D2D8260D82ECA94CC2059F0F0
:10221000C8010E94071397FFDACFD1FC04C09CCFFE
:10222000812C912C5401D7FE08C0B094A0949094B6
:102230008094811C911CA11CB11C2D2DB501A40101
:10224000C7010E944E1081E02196ECE00C94F71338
:10225000A1E2B0E0EEE2F1E10C94D9135C017A0165
:10226000CE0101966C0180E2F60111928A95E9F7A0
:10227000F501838040E050E0912C712C70E0A1E0EA
:10228000B0E0F90183FC859183FE81918F01982F45
:102290009F01811103C080E090E07CC08E3519F46D
:1022A0004115510549F1E72FF0E0E417F5073CF43B
:1022B0008D3559F18D3219F4772001F103C0711079
:1022C00001C0982E892F8695869586958601080FE0
:1022D000111D892F87703D0101C0660C8A95EAF7B0
:1022E000F801808186298083991559F0991510F499
:1022F0009F5FE8CF9150E6CF71E004C077247394DC
:1023000001C0712C4F5F5F4FBCCF772019F08E81D9
:1023100080628E83711103C09924939416C0F601D4
:102320009E012F5D3F4F808180958193E217F307D7
:10233000D1F7F2CFE114F10429F0F7018083C7014E
:1023400001967C016150912CF9F0C50169A30E94AE
:10235000071369A197FD16C0282F26952695269567
:10236000F601E20FF11D208130E0AC0147705527E6
:1023700002C0359527954A95E2F720FDDBCFB501E0
:102380000E944513911087CFE114F10411F0F70179
:102390001082C801A196EEE00C94F5134F925F9263
:1023A0007F928F929F92AF92BF92CF92DF92EF92E5
:1023B000FF920F931F93CF93DF931F92CDB7DEB79A
:1023C0006C012B015A01FC0117821682712CF60157
:1023D000F380F201F3FC8591F3FE8191382F2F01F8
:1023E000882309F4F3C090E039830E947C1339817B
:1023F000892B21F0C6010E947A10E9CF353241F4D1
:10240000F201F3FC3591F3FE31912F01353269F47D
:10241000C60139830E940713398197FDD5C038174B
:10242000B1F2B6010E944513D1C03A3239F4F3FC3F
:102430003591F3FE31912F0151E001C050E042018E
:1024400010E020ED230F2A3090F45260612F70E0ED
:1024500080E090E040E259830E945A10162FF40168
:10246000F3FC3591F3FE31914F015981EACF052FED
:10247000232F240151FF03C0111102C0A7C01FEF79
:10248000383619F03C3659F011C0F401F3FC2591AF
:10249000F3FE21912F01283649F4052F08600460CE
:1024A000F201F3FC2591F3FE21912F01222309F47F
:1024B0008DC0622F70E085E892E029830E94FC12B3
:1024C0002981892B09F482C000FD07C0F501E08055
:1024D000F180C50102965C0102C0E12CF12C2E3680
:1024E00051F4F6014681578160E070E0202FC7016A
:1024F0000E944E106CCF233691F401FF11E0C6010B
:102500000E94071397FD60C0E114F10429F0F70160
:102510008083C70101967C01115089F751C02B358A
:1025200059F49201A701612FC6010E9428112C01C4
:10253000892B09F045C03FC0C60129830E947A104B
:10254000298197FD41C02F3659F128F4243631F105
:10255000293649F127C0233769F02537F9F022C021
:10256000E114F10429F0F7018082C70101967C0192
:10257000115071F0C6010E9407134C0197FD08C06D
:102580000E947C13892B61F3B601C4010E9445139C
:10259000E114F104A9F0F701108212C0006203C037
:1025A000006101C00064202FA701612FC6010E94B5
:1025B0009310811105C0F6018381807329F406C050
:1025C00000FD05CF739403CF772019F0872D90E09D
:1025D00002C08FEF9FEF0F90DF91CF911F910F916E
:1025E000FF90EF90DF90CF90BF90AF909F908F9033
:1025F0007F905F904F900895FC010590061621F0A2
:102600000020D9F7C00108953197CF010895CF93E5
:10261000DF93EC012B8120FF33C026FF0AC02F7B04
:102620002B838E819F8101969F838E838A8190E088
:1026300029C022FF0FC0E881F9818081082E000C9B
:10264000990B009719F420622B831AC03196F983F5
:10265000E8830EC0EA85FB85099597FF09C02B81A9
:10266000019611F080E201C080E1822B8B8308C0CB
:102670002E813F812F5F3F4F3F832E83992702C0DA
:102680008FEF9FEFDF91CF910895FB01238120FF12
:1026900012C026FD10C08F3F3FEF930761F0828389
:1026A0002F7D206423832681378121503109378390
:1026B0002683992708958FEF9FEF0895FC018827BF
:1026C0009927E89421912032E9F3293010F02E3037
:1026D000C8F32B3241F02D3239F4689404C00E94C3
:1026E000A813820F911D219120532A30C0F31EF4AC
:1026F000909581959F4F089591110C94B01380325D
:1027000019F089508550C8F70895FB01DC018D91BF
:10271000059080190110D9F3990B0895FB0155918B
:102720005523A9F0BF01DC014D9145174111E1F797
:1027300059F4CD010590002049F04D91401541110B
:10274000C9F3FB014111EFCF81E090E001970895BB
:102750007AE0979F902D879F802D910D11240895E9
:10276000992788270895A1E21A2EAA1BBB1BFD01F9
:102770000DC0AA1FBB1FEE1FFF1FA217B307E40760
:10278000F50720F0A21BB30BE40BF50B661F771FB8
:10279000881F991F1A9469F7609570958095909598
:1027A0009B01AC01BD01CF0108952F923F924F9242
:1027B0005F926F927F928F929F92AF92BF92CF92D1
:1027C000DF92EF92FF920F931F93CF93DF93CDB7DA
:1027D000DEB7CA1BDB0B0FB6F894DEBF0FBECDBF52
:1027E00009942A88398848885F846E847D848C8423
:1027F0009B84AA84B984C884DF80EE80FD800C812C
:102800001B81AA81B981CE0FD11D0FB6F894DEBF0E
:0C2810000FBECDBFED010895F894FFCF7E
:10281C007C027C0200004C048000456D70747900D1
:10282C00000000000000000000000000000000009C
:10283C00000000000000000000000000000000008C
:10284C00000000000000000000000000000000007C
:10285C000000000000000000000044206D6973744B
:10286C006D616B6572733220000000000000000087
:10287C00000000000000000000000000000000004C
:10288C00000000000000000000000000000000003C
:10289C00000000000000000000000000000000002C
:1028AC00000000000000000000000000000000001C
:1028BC00000000000000000000000000000000000C
:1028CC0000000000000000000000000000000000FC
:1028DC0000000000000000000000000000000000EC
:1028EC0000000000000000000000000000000000DC
:1028FC000000000000000000000000000000EE01DD
:10290C007401C1019F01B301350200000000DB0717
:10291C007401E707CF07C307B707000000000C08D6
:10292C00740160087808F3070B0841542B434D479A
:10293C00533D2200000000000000000000000000D9
:10294C0000000000000000000D0A004469646E27BE
:10295C00742066696E6420534D53206D65737361EA
:10296C00676520696E20736C6F7421005265636516
:10297C0069766564206D6573736167652066726F37
:10298C006D3A20004D6573736167652072656365F0
:10299C00697665642066726F6D2073656E6465720E
:1029AC003A00343034303400436F756C646E7420EC
:1029BC0073656E64206D65737361676520746F2039
:1029CC00696E74656E6465642072656369706965AF
:1029DC006E742E00313335323835373733313000A1
:1029EC002B434D54493A2022534D222C256400414F
:1029FC00542B434D47443D30303000415449004145
:102A0C00542B474D4D00464F4E4120526561647921
:0E2A1C00005E5A002B434D4753004F4B000005
:00000001FF
