:100000000C9468010C94830B0C945C0B0C949D086D
:100010000C949D080C949D080C9490010C949001F4
:100020000C9490010C9490010C9490010C9490010C
:100030000C9490010C9490010C94E8060C9490019F
:100040000C94120B0C9490010C94D4050C94AE05F6
:100050000C9490010C9490010C9490010C949001DC
:100060000C9490010C94900141542B434D47463D14
:1000700031002B434D47523A0041542B434D4752D8
:100080003D0041542B434D47523D0041542B4353B7
:1000900044483D310041542B434D47463D31002BF0
:1000A000434D47523A0041542B434D47523D004186
:1000B000542B434D47523D0041542B435344483D3C
:1000C000310041542B434D47463D31003E20003E18
:1000D000200041542B434D47463D31005265706C22
:1000E000792073656E7420737563636573736675C9
:1000F0006C6C792E005265706C792073656E74207B
:100100007375636365737366756C6C792E00534900
:100110004D3830304800093C2D2D2D2000092D2D63
:100120002D3E200053494D434F4D5F53494D3533CC
:100130003230450053494D434F4D5F53494D3533A0
:100140003230410053494D38303020523133005362
:10015000494D383038205231330053494D3830380A
:100160002052313400093C2D2D2D2000092D2D2D3C
:100170003E200041542B435648553D3000415445E4
:100180003000415445300041540041540041540076
:1001900054696D656F75743A204E6F207265737087
:1001A0006F6E736520746F2041542E2E2E206C616B
:1001B000737420646974636820617474656D70740D
:1001C0002E00415400415400415400417474656D47
:1001D0007074696E6720746F206F70656E20636F36
:1001E0006D6D20776974682041547300436F756C9E
:1001F000646E27742066696E6420464F4E41000984
:100200003C2D2D2D2000092D2D2D3E20004F4B0083
:10021000464F4E4100464F4E416E6574000000004F
:1002200000230026002900093C2D2D2D2000092D3A
:100230002D2D3E200000000000240027002A000091
:10024000000000250028002B00040404040404041A
:100250000402020202020203030303030301020475
:100260000810204080010204081020010204081038
:100270002000000008000201000003040700000045
:1002800000000000006364696E6F70737578585BDE
:10029000004E414E494E495459494E46CDCCCC3D75
:1002A0000AD7233C17B7D13877CC2B329595E62463
:1002B0001FB14F0A000020410000C84200401C4608
:1002C00020BCBE4CCA1B0E5AAEC59D74F116C31796
:1002D00011241FBECFEFD8E0DEBFCDBF13E0A0E0FA
:1002E000B1E0EAE9F7E402C005900D92A032B1074F
:1002F000D9F726E0A0E2B3E001C01D92A33FB20708
:10030000E1F711E0C7E6D1E004C02197FE010E94A9
:100310002C18C636D107C9F70E94AA0B0C94C0232B
:100320000C940000CF92DF92EF92FF920F931F93F5
:10033000CF93DF936C017A018B01C0E0D0E0CE1542
:10034000DF0589F0D8016D918D01D601ED91FC9109
:100350000190F081E02DC6010995892B11F47E01F1
:1003600002C02196ECCFC701DF91CF911F910F9171
:10037000FF90EF90DF90CF900895EF92FF920F9350
:100380001F93CF93DF93EC0181E0888F9B8D8C8D41
:10039000981305C0E889F989808185FD24C0F62E6F
:1003A0000B8D10E00F5F1F4F0F731127E02E8C8D08
:1003B000E8120CC00FB607FCFACFE889F9898081F2
:1003C00085FFF5CFCE010E942F0AF1CF8B8DFE0164
:1003D000E80FF11DE35AFF4FF0820B8FEA89FB898A
:1003E0008081806207C0EE89FF896083E889F9898E
:1003F00080818064808381E090E0DF91CF911F91C4
:100400000F91FF90EF900895CF93DF93EC01888DCB
:100410008823C9F0EA89FB89808185FD05C0A88908
:10042000B9898C9186FD0FC00FB607FCF5CF80818E
:1004300085FFF2CFA889B9898C9185FFEDCFCE01D8
:100440000E942F0AE7CFDF91CF910895E091210319
:10045000F09122030190F081E02D682F81E293E07A
:100460000994EF92FF920F931F93CF93DF938C0128
:100470007B01C0E0D0E0F701EC0FFD1F6491662323
:1004800061F0D801ED91FC910190F081E02DC8015F
:100490000995892B11F02196EECFCE01DF91CF91F6
:1004A0001F910F91FF90EF9008956115710579F0FC
:1004B000FB0101900020E9F73197AF01461B570B74
:1004C000DC01ED91FC910280F381E02D099480E044
:1004D00090E008954F925F926F927F92EF92FF9219
:1004E0000F931F93CF93DF93CDB7DEB7A1970FB6CE
:1004F000F894DEBF0FBECDBF7C01FA01CB0119A27B
:10050000223008F42AE08E010F5D1F4F422E512C3D
:10051000612C712CBF01A30192010E944D23F901AE
:10052000CA01015011096A3014F4605D01C0695CB0
:10053000D8016C93232B242B252B61F7B801C7011D
:100540000E945502A1960FB6F894DEBF0FBECDBF34
:10055000DF91CF911F910F91FF90EF907F906F905F
:100560005F904F9008954F925F926F927F928F921B
:100570009F92AF92BF92CF92DF92EF92FF926B0168
:100580007C01B42E9B01AC010E94B919882319F09B
:100590006BEF72E027C026013701E89477F82FEF60
:1005A0003FEF4FE75FE7C301B2010E94B919811124
:1005B0000DC02FEF3FEF4FE75FE7C301B2010E948D
:1005C000192218161CF46FEF72E00CC02FEF3FEFEA
:1005D0004FE75FE4C701B6010E94A919181694F409
:1005E00063E073E081E293E0FF90EF90DF90CF90C3
:1005F000BF90AF909F908F907F906F905F904F9043
:100600000C9455022FEF3FEF4FE75FECC701B601A7
:100610000E94192287FDE4CF20E030E0A901C70144
:10062000B6010E94192287FF09C08DE20E942602AE
:100630004C01F7FAF094F7F8F09402C0812C912C59
:10064000A12C60E070E080E09FE3AB1441F020E07B
:1006500030E040E251E40E949F18A394F6CF9B0142
:10066000AC01C701B6010E9433182B013C010E9466
:1006700018196B017C010E941E229B01AC01C30171
:10068000B2010E9432182B013C012AE0B701A601F9
:1006900081E293E00E946A027C01E80CF91CBB2015
:1006A00029F08EE20E942602E80EF91EDB2CDD20E6
:1006B00031F120E030E040E251E4C301B2010E9498
:1006C0007F222B013C010E9418194B01A12CB12C57
:1006D0002AE0B501A40181E293E00E946A02E80EDB
:1006E000F91EC501B4010E941E229B01AC01C30189
:1006F000B2010E9432182B013C01DA94D8CFC70115
:10070000FF90EF90DF90CF90BF90AF909F908F9031
:100710007F906F905F904F90089567E073E00C9426
:1007200055020F931F93CF93DF93EC01462F50E0B8
:1007300060E070E02AE00E946A028C01CE010E9413
:100740008D03800F911FDF91CF911F910F9108951D
:100750000F931F93CF93DF93EC010E9455028C01FE
:10076000CE010E948D03800F911FDF91CF911F91C9
:100770000F910895BC018091380690913906009739
:1007800021F480913A0690913B060C94A8030F93B4
:100790001F93CF93DF93EC010E9431028C01CE01B5
:1007A0000E948D03800F911FDF91CF911F910F91B8
:1007B0000895EF92FF920F931F93CF93DF93EC0175
:1007C0008B017A010E94D10766E072E081E293E03A
:1007D0000E943102B80181E293E00E94C703FE014A
:1007E000E85EFE4FB801808191810E94C70340E01E
:1007F00064EF71E0CE010E947B07182F6FEF71E06C
:1008000081E293E00E9431022E96BE0181E293E0E4
:100810000E94A803112339F0B701CE010E94612084
:1008200021E0892B09F020E0822FDF91CF911F91E9
:100830000F91FF90EF900895CF92DF92EF92FF9289
:100840000F931F93CF93DF9340EC52E160E070E091
:1008500080910001909101010E942D09C091020137
:10086000D09103017E0188EEE81A8EEFF80A80919C
:10087000000190910101D7018D939C9361E08C85DB
:100880000E949C0A61E08C850E94500A6AE070E038
:1008900080E090E00E94D80A60E08C850E94500AB7
:1008A00064E670E080E090E00E94D80A61E08C8508
:1008B0000E94500A6BEC71E081E293E00E94C70352
:1008C0008EE0C82ED12C8E010A5E1E4FF70180816A
:1008D0009181DC01ED91FC910480F581E02D099579
:1008E000892B59F0F70180819181DC01ED91FC9118
:1008F0000680F781E02D0995E9CFF801408151810B
:1009000068EC71E0CE010E94D90381115BC0F70150
:1009100080819181DC01ED91FC910480F581E02DD5
:100920000995892B59F0D7018D919C91DC01ED91AE
:10093000FC910680F781E02D0995E9CF42EC51E06A
:1009400065EC71E0CE010E94D90381113BC064EFD8
:1009500071E080E090E00E94D80AB1E0CB1AD108A3
:1009600009F0B4CF60E971E081E293E00E94C7032F
:10097000D8014D915C916DE871E0CE010E94D903E0
:1009800064E670E080E090E00E94D80AF8014081BF
:1009900051816AE871E0CE010E94D90364E670E0FB
:1009A00080E090E00E94D80AD8014D915C9167E800
:1009B00071E0CE010E94D90364E670E080E090E02F
:1009C0000E94D80AF8014081518162E871E0CE01AD
:1009D0000E94D90364E670E080E090E00E94D80AAB
:1009E000D8014D915C916DE771E0CE010E94D90371
:1009F000882309F496C0F8014081518163E771E0D2
:100A0000CE010E94D90364E670E080E090E00E948D
:100A1000D80ACE010E94D1076CE671E081E293E032
:100A20000E9431026AE073E081E293E00E94A80331
:100A30006AE073E0D7018D919C910E94A80341E088
:100A400064EF71E0CE010E947B0765E671E081E210
:100A500093E00E9431028E01025F1F4FB80181E2D4
:100A600093E00E94A8036AE571E0C8010E946A2031
:100A7000892B11F083E023C06FE471E0C8010E946C
:100A80006A20892B11F082E01AC064E471E0C80189
:100A90000E946A20892B11F081E011C064E371E0AB
:100AA000C8010E946A20892B11F084E008C064E22A
:100AB00071E0C8010E946A20892B11F085E08D87C2
:100AC0008D858130A9F56DE171E081E293E00E94AE
:100AD00031026EE073E081E293E00E94A8036EE0D1
:100AE00073E0F701808191810E94A80341E064EFE7
:100AF00071E0CE010E947B0766E171E081E293E044
:100B00000E943102B80181E293E00E94A8036EE0E6
:100B100071E0C8010E946A20892B51F086E08D8720
:100B200007C06CEE71E081E293E00E94C703FFCF43
:100B300081E293E00E948D0365E173E081E293E03E
:100B40000E94A80381E293E0DF91CF911F910F9162
:100B5000FF90EF90DF90CF900C948D031F920F9237
:100B60000FB60F9211242F933F934F935F936F9380
:100B70007F938F939F93AF93BF93EF93FF9381E204
:100B800093E00E942F0AFF91EF91BF91AF919F9147
:100B90008F917F916F915F914F913F912F910F9026
:100BA0000FBE0F901F9018951F920F920FB60F92C5
:100BB00011242F938F939F93EF93FF93E091310331
:100BC000F09132038081E0913703F091380382FD88
:100BD00012C0908180913A038F5F8F7320913B0305
:100BE000821751F0E0913A03F0E0EF5DFC4F958FF2
:100BF00080933A0301C08081FF91EF919F918F9183
:100C00002F910F900FBE0F901F901895FC01E85E7A
:100C1000FE4F80819181DC01ED91FC910284F3858E
:100C2000E02D0994FC01E85EFE4F80819181DC019A
:100C3000ED91FC910084F185E02D0994FC01E85EC2
:100C4000FE4F80819181DC01ED91FC910680F7815E
:100C5000E02D0994FC01E85EFE4F80819181DC016A
:100C6000ED91FC910190F081E02D0994FC01E85E8A
:100C7000FE4F80819181DC01ED91FC910480F58132
:100C8000E02D09942091E6063091E70628173907F0
:100C900071F49091E5068091E406981741F0E09197
:100CA000E506F0E0EC55F94F808190E008958FEF74
:100CB0009FEF089508951F93CF93DF93DC015C9617
:100CC0002D913C915D972115310539F481E090E03B
:100CD00013969C938E9312973DC05196ED91FC9183
:100CE000529750969C915097892F80951FB75E968A
:100CF0004C915E9741FB772770F941FD6095F89420
:100D00004081772311F0492B01C048234083E9013A
:100D10002197F1F748E0508160FF02C0592B01C0D4
:100D200058235083E9012197F1F76695415099F7CF
:100D3000772321F090818923808303C08081982BC1
:100D400090831FBF5C968D919C915D970197F1F701
:100D500021E030E0C901DF91CF911F9108952091EA
:100D6000E6063091E7062817390771F48091E4060A
:100D70002091E50690E0805C9F4F821B910960E422
:100D800070E00E94E517089580E090E008952091BA
:100D9000E6063091E70628173907B9F49091E50681
:100DA0008091E406981789F0E091E506F0E0EC55B3
:100DB000F94F80812091E50630E02F5F3F4F2F7380
:100DC00033272093E50690E008958FEF9FEF089575
:100DD0001F920F920FB60F9211242F933F934F93B0
:100DE0005F936F937F938F939F93AF93BF93EF9393
:100DF000FF938091370681116DC0809138069091E4
:100E00003906009779F0DC01ED91FC910480F581C1
:100E1000E02D0995892B09F45DC0809138069091E9
:100E2000390612C080913A0690913B06DC01ED91A3
:100E3000FC910480F581E02D0995892B09F44AC0C5
:100E400080913A0690913B06DC01ED91FC91068081
:100E5000F781E02D09958A3049F59091B204E0912F
:100E6000B004F091B104E90FF11D10822091B0049B
:100E70003091B104B4E028333B0739F44EEB53E032
:100E80005093B1044093B00408C028E334E0309399
:100E9000B1042093B0042EEB33E030933704209359
:100EA00036041092B20491E09093B304E091B00440
:100EB000F091B1049091B20421E0290F2093B20483
:100EC000E90FF11D80838091B204883718F087E71D
:100ED0008093B204FF91EF91BF91AF919F918F9159
:100EE0007F916F915F914F913F912F910F900FBE26
:100EF0000F901F901895BF92CF92DF92EF92FF92C2
:100F00000F931F93CF93DF937C01B42E8B01C0E02E
:100F1000D0E06C0188EEC81A8EEFD80A01151105D1
:100F200089F1CE3FD10570F5F60180819181DC0118
:100F3000ED91FC910480F581E02D0995892BC1F09C
:100F4000D6018D919C91DC01ED91FC910680F78199
:100F5000E02D09958D3041F38A3021F4209721F35B
:100F6000BB2081F0F701EC0FFD1F86872196DCCFB7
:100F70000150110939F061E070E080E090E00E94DA
:100F8000D80ACCCFF701EC0FFD1F16868C2FDF910E
:100F9000CF911F910F91FF90EF90DF90CF90BF9076
:100FA00008950F931F93CF93DF938C01C0E0D0E09F
:100FB000CE010196A897E8F4EC01D801ED91FC91DF
:100FC0000480F581E02DC8010995892B59F0D801DD
:100FD000ED91FC910680F781E02DC8010995C0E0F4
:100FE000D0E0EBCF61E070E080E090E00E94D80AB2
:100FF000DFCFDF91CF911F910F910895EF92FF9274
:101000000F931F93CF93DF93EC018B017A010E9422
:10101000D1076EE272E081E293E00E943102B801F2
:1010200081E293E00E94A803FE01E85EFE4FB80152
:10103000808191810E94A80340E0B701CE010E9407
:101040007B07182F67E272E081E293E00E94310291
:10105000BE01625F7F4F81E293E00E94A803812F6F
:10106000DF91CF911F910F91FF90EF9008950F9313
:101070001F93CF93DF93EC01162F042F1B821A824C
:1010800088EE93E0A0E0B0E08C839D83AE83BF83C5
:1010900082EA91E0998388831F8A1E8A198E188EAE
:1010A0001B8E1A8E1D8E1C8E6E8D6E7F20FB61F93D
:1010B0006E8F6695617081E06827842F0E94500AC8
:1010C00061E0802F0E949C0A402F50E0FA01E35A11
:1010D000FD4FE491E88BFA01E75BFD4FE491F0E00E
:1010E000EE0FFF1FE15CFD4F859194919A8B898BE8
:1010F00060E0812F0E949C0A8E8D81FD04C061E01A
:10110000812F0E94500A1C87612F70E0FB01E35A77
:10111000FD4FE491ED87FB01E75BFD4FE491F0E0CB
:10112000EE0FFF1FE35EFD4F859194919F878E87A1
:10113000DF91CF911F910F9108951F920F920FB6DB
:101140000F9211242F933F934F935F936F937F934D
:101150008F939F93AF93BF93EF93FF93E091E60636
:10116000F091E706309709F451C0968DA685B785B2
:10117000858591FF04C09C91892329F447C09C91E7
:10118000892309F043C0A389B4899C9185898095FE
:1011900089238C93868997890197F1F7608D718DEA
:1011A000A685B785558538E020E0CB010197F1F79A
:1011B000822F90E095958795282F4C91452309F033
:1011C0002068315091F7868D81FD20958091E4064D
:1011D00090E001968F7399273091E506381749F012
:1011E000A091E406B0E0AC55B94F2C938093E4068F
:1011F00003C0868D8160868F828D938D0197F1F774
:10120000A389B4899C918589892B8C93FF91EF9157
:10121000BF91AF919F918F917F916F915F914F910E
:101220003F912F910F900FBE0F901F901895E09156
:10123000E606F091E706E817F90769F4A389B4898F
:101240009C918589809589238C931092E706109252
:10125000E60681E0089580E00895CF93DF93EC01E6
:101260009A01AB011B8E1A8E198E188E1F8A1E8A48
:1012700060E079E08DE390E00E94F917F9012430F5
:10128000310518F0C901039702C081E090E09D8FFD
:101290008C8F6C85663108F069C0C9019695879579
:1012A0008431910510F0439702C081E090E09F8B5C
:1012B0008E8B369718F0C901059702C081E090E047
:1012C000998F888FC901880F991F280F391F36956C
:1012D0002795369527952D30310518F02C5031097A
:1012E00002C021E030E03B8F2A8F90916800683087
:1012F00050F021E06E3008F420E081E001C0880F5A
:101300002A95EAF701C084E0892B809368009C85C8
:10131000983038F09E3040F0963148F020E030E0D0
:1013200008C02DE630E005C02BE630E002C02CE618
:1013300030E03C8B2B8B983030F481E001C0880F7B
:101340009A95EAF70EC0292F30E09E3018F4285005
:10135000310902C02E50310981E001C0880F2A9561
:10136000EAF78D8B8C8D9D8D0197F1F78A8D9B8D82
:10137000892BE1F08091E6069091E7068C179D0796
:10138000A9F0009711F00E9417098E8D8E7F8E8F25
:101390001092E4061092E506D093E706C093E606A5
:1013A000EB89FC8990818D89892B8083DF91CF9196
:1013B0000895FC01918D828D981761F0828DDF0177
:1013C000A80FB11D5D968C91928D9F5F9F73928F38
:1013D00090E008958FEF9FEF0895FC01918D828D2D
:1013E000981731F0828DE80FF11D858D90E00895FA
:1013F0008FEF9FEF0895FC01918D228D892F90E052
:10140000805C9F4F821B91098F73992708953FB786
:10141000F8948091ED069091EE06A091EF06B091C0
:10142000F00626B5A89B05C02F3F19F00196A11D17
:10143000B11D3FBFBA2FA92F982F8827820F911D6A
:10144000A11DB11DBC01CD0142E0660F771F881FB1
:10145000991F4A95D1F7089508950E94F119FC014A
:10146000848DDF01A80FB11DA35ABF4F2C91848D2D
:1014700090E001968F739927848FA689B7892C9362
:10148000A089B1898C9180648C93938D848D9813FD
:1014900006C00288F389E02D80818F7D80830895C6
:1014A00090E0FC01EF58FD4F3491FC01E35AFD4FF1
:1014B0002491FC01E75BFD4FE491EE2309F43BC06E
:1014C000332339F1333091F038F43130A9F0323030
:1014D00001F584B58F7D12C0373091F03830A1F01E
:1014E0003430B9F4809180008F7D03C080918000FA
:1014F0008F77809380000DC084B58F7784BD09C03D
:101500008091B0008F7703C08091B0008F7D809371
:10151000B000F0E0EE0FFF1FE15CFD4FA591B4912C
:101520008FB7F894EC91611103C020952E2301C070
:101530002E2B2C938FBF0895CF93DF9390E0FC0167
:10154000E35AFD4F2491FC01E75BFD4F8491882312
:1015500061F190E0880F991FFC01EB5CFD4FC59194
:10156000D491FC01E15CFD4FA591B491611109C0DA
:101570009FB7F8948881209582238883EC912E234D
:101580000BC0623061F49FB7F8943881822F809548
:1015900083238883EC912E2B2C939FBF06C08FB79B
:1015A000F894E8812E2B28838FBFDF91CF91089587
:1015B0008F929F92AF92BF92CF92DF92EF92FF9263
:1015C0006B017C010E94070A4B015C01C114D1042C
:1015D000E104F104F1F00E94070ADC01CB01881953
:1015E0009909AA09BB09883E9340A105B10570F38A
:1015F00021E0C21AD108E108F10888EE880E83E0E4
:10160000981EA11CB11CC114D104E104F10419F706
:10161000DDCFFF90EF90DF90CF90BF90AF909F9085
:101620008F9008951F920F920FB60F9211242F934F
:101630003F938F939F93AF93BF938091E9069091CF
:10164000EA06A091EB06B091EC063091E80623E0A3
:10165000230F2D3720F40196A11DB11D05C026E8EA
:10166000230F0296A11DB11D2093E8068093E90681
:101670009093EA06A093EB06B093EC068091ED06FA
:101680009091EE06A091EF06B091F0060196A11D93
:10169000B11D8093ED069093EE06A093EF06B093F4
:1016A000F006BF91AF919F918F913F912F910F9035
:1016B0000FBE0F901F9018951F920F920FB60F92AA
:1016C00011242F933F934F935F936F937F938F9347
:1016D0009F93AF93BF93EF93FF93E0910601F09137
:1016E00007010995FF91EF91BF91AF919F918F9164
:1016F0007F916F915F914F913F912F910F900FBE0E
:101700000F901F9018951F920F920FB60F921124F1
:101710002F933F934F935F936F937F938F939F93F9
:10172000AF93BF93EF93FF93E0910401F091050114
:101730000995FF91EF91BF91AF919F918F917F910B
:101740006F915F914F913F912F910F900FBE0F902E
:101750001F901895CF93DF93CDB7DEB7CD52D14010
:101760000FB6F894DEBF0FBECDBF789484B582600B
:1017700084BD84B5816084BD85B5826085BD85B535
:10178000816085BD80916E00816080936E001092B3
:10179000810080918100826080938100809181002E
:1017A00081608093810080918000816080938000BF
:1017B0008091B10084608093B1008091B00081601D
:1017C0008093B00080917A00846080937A00809149
:1017D0007A00826080937A0080917A0081608093A1
:1017E0007A0080917A00806880937A001092C1001C
:1017F000E0913103F091320382E08083E0912D0388
:10180000F0912E031082E0912F03F091300380E1DC
:10181000808310923903E0913503F091360386E01E
:101820008083E0913303F091340380818061808371
:10183000E0913303F0913403808188608083E091EC
:101840003303F0913403808180688083E091330317
:10185000F091340380818F7D80830E941C041E01DF
:1018600021E4220E311C81E191E08C0F9D1F0C962A
:10187000C65DDE4F99838883CA52D14074E6472EF5
:10188000512C612C712CD1011296C95DDE4FB983A8
:10189000A883C752D14086E0E8E0F1E0DE01AF570F
:1018A000BF4F01900D928A95E1F78AE3E1E8F0E0FD
:1018B000EC0FFD1F3696DF011D928A95E9F7009126
:1018C000020110910301D801ED91FC910480F58192
:1018D000E02DC8010995892B09F44CC07E01B3EEB7
:1018E000EB1ABEEFFB0AF701118210826101410180
:1018F000FFE38F0E911C5601D801ED91FC910680FB
:10190000F781E02DC8010995F60181936F01682FD9
:1019100081E293E00E94BD0161E070E080E090E030
:101920000E94D80AD5018C918A3069F0D801ED91D6
:10193000FC910480F581E02DC8010995892B19F0EF
:10194000C814D904C1F6D50111961C92FF92EF92EA
:1019500084ED92E09F938F933F922F920E94681A9A
:101960000F900F900F900F900F900F90019711F420
:101970000C94D314CB5DDE4F1882C552D140C75DA5
:10198000DE4F1882C952D1408E010F571F4F68E0B9
:1019900071E0C8010E940C1A892B11F40C94CD142B
:1019A000B80181E293E00E94A803E12CF12C9E0192
:1019B0002F533F4FC15EDE4F39832883CF51D14033
:1019C00063EC72E0C7010E942B1A892B09F02AC729
:1019D00087E092E00E94BA0389E392E00E94BA0392
:1019E0008AE492E00E94BA033FEA37BD80916E001C
:1019F000826080936E0081E080932003809138069E
:101A000090913906009739F040E855E260E070E0C7
:101A10000E942D0929C0E0913A06F0913B06A08969
:101A2000B18982E08C93A485B5851C92A685B78583
:101A30008FEC8C93108EA489B58986E08C93A28953
:101A4000B3898C9180618C93A289B3898C918860D1
:101A50008C93A289B3898C9180688C930288F389D6
:101A6000E02D80818F7D80836AE070E080E090E0EF
:101A70000E94D80A68EE73E080E090E00E94D80AE5
:101A80006091B304CF5DDE4F6883C152D1406111D4
:101A900005C08091280681115BC5B1C61092B304C0
:101AA0000091360410913704F80101900020E9F705
:101AB00031979F01201B310BA90144505109F801B6
:101AC000E40FF51F80818A32E1F5200F311FF90103
:101AD00033978081803354F08A3314F4805307C0E5
:101AE0009FEB980F963010F4875301C080E0A0E17F
:101AF0008A9FC0011124F90132972081203354F0CC
:101B00002A3314F4205307C03FEB320F363010F461
:101B1000275301C020E0820F911D62E0262F30E0A4
:101B20002417350758F4F801E20FF31F2081022E25
:101B3000000C330B822793276F5FF0CF892B09F0BE
:101B4000FCC469E572E0C8010E942B1A892B09F4D4
:101B500075C26CE270E0C8010E94011A8C010F5F2F
:101B60001F4FC8010E940F206B017C010E941819B1
:101B70004B015C0120E137E240E050E00E944D2340
:101B80002093ED05A30192010E944D232093EE05C1
:101B9000C501B401A30192010E944D236093EF059A
:101BA00020E030E040E85FE3C701B6010E9452192F
:101BB00020E030E04AE754E40E947F220E94181996
:101BC0007093F4056093F3056CE270E0C8010E9425
:101BD000011A7C018C010F5F1F4FFC0181818C3247
:101BE00009F4ACC042E050E0B801C1010E941C1AE7
:101BF000D10112961C92C1010E9431209B01AC01BF
:101C000060E876E988E990E00E943D234B015C01A1
:101C1000B7016D5F7F4F42E050E0C1010E941C1A86
:101C20000B5F1F4F44E050E0B801C95DDE4F888173
:101C30009981C752D1400E941C1AF1011682C1013C
:101C40000E9431209B01AC01A2E3B0E00E946F230F
:101C500023E030E040E050E00E94F91769017A018A
:101C6000D501C401820F931FA41FB51F8093FD05EA
:101C70009093FE05A093FF05B0930006C501B40143
:101C800020EA36E841E050E00E94F917CA01B901A4
:101C90000E9420224B015C01C701B6010E94202254
:101CA0002CE933E549EC56E30E947F229B01AC010D
:101CB000C501B4010E9433184B015C016093F50526
:101CC0007093F6058093F7059093F80520E030E0D7
:101CD00048EC52E40E949F180E9411196B017C018C
:101CE00084E68C9DB0018D9D700D1124072E000C93
:101CF000880B990B0E9420229B01AC01C501B40105
:101D00000E94321820E030E040E752E40E949F1821
:101D10004B015C01B601DD0C880B990B0E9420225F
:101D20009B01AC01C501B4010E9433186093050604
:101D30007093060680930706909308066CE270E0A5
:101D4000C8010E94011AFC019C012F5F3F4F818155
:101D50008C3201F1833589F4809105069091060655
:101D6000A0910706B0910806B0588093050690939D
:101D70000606A0930706B093080691819E3411F0E1
:101D8000933519F49093250605C09C3209F0D5C30C
:101D9000109225066CE270E0C9010E94011A7C01D4
:101DA0008C010F5F1F4FDC0111968C918C3209F46E
:101DB000ACC043E050E0B801C1010E941C1AF1011F
:101DC0001382C1010E9431209B01AC0160E876E9D9
:101DD00088E990E00E943D234B015C01B7016C5FF4
:101DE0007F4F42E050E0C1010E941C1A0A5F1F4F62
:101DF00044E050E0B801C95DDE4F88819981C75247
:101E0000D1400E941C1AD10116961C92C1010E9459
:101E100031209B01AC01A2E3B0E00E946F2323E0DC
:101E200030E040E050E00E94F91769017A01D501E5
:101E3000C401820F931FA41FB51F809301069093C6
:101E40000206A0930306B0930406C501B40120EA7C
:101E500036E841E050E00E94F917CA01B9010E943A
:101E600020224B015C01C701B6010E9420222CE90F
:101E700033E549EC56E30E947F229B01AC01C5018A
:101E8000B4010E9433184B015C016093F905709313
:101E9000FA058093FB059093FC0520E030E048ECC8
:101EA00052E40E949F180E9411196B017C0184E684
:101EB0008C9DB0018D9D700D1124072E000C880B98
:101EC000990B0E9420229B01AC01C501B4010E9424
:101ED000321820E030E040E752E40E949F184B01A6
:101EE0005C01B601DD0C880B990B0E9420229B013E
:101EF000AC01C501B4010E943318609309067093C8
:101F00000A0680930B0690930C066CE270E0C80101
:101F10000E94011AFC019C012F5F3F4F81818C328E
:101F200001F1873589F48091090690910A06A09104
:101F30000B06B0910C06B0588093090690930A06E0
:101F4000A0930B06B0930C069181973511F0953450
:101F500019F49093260605C09C3209F0EEC2109247
:101F600026066CE270E0C9010E94011A8C010F5F25
:101F70001F4FFC0181818C3229F0C8010E9413207F
:101F8000809329066CE270E0C8010E94011A8C015E
:101F90000F5F1F4FDC0111968C918C3229F0C80124
:101FA0000E94132080932A066CE270E0C8010E9410
:101FB000011A8C010F5F1F4FFC0181818C3259F097
:101FC000C8010E940F20609321067093220680931F
:101FD0002306909324066CE270E0C8010E94011A67
:101FE0008C010F5F1F4FDC0111968C918C3259F0E0
:101FF000C8010E940F20609311067093120680930F
:102000001306909314066CE270E0C8010E94011A56
:102010006CE270E001960E94011AFC0121812C32D1
:1020200009F484C201960E940F2060930D067093FC
:102030000E0680930F069093100678C260E672E059
:10204000C8010E942B1A892B09F477C26CE270E058
:10205000C8010E94011A8C010F5F1F4FC8010E9426
:102060000F206B017C010E9418194B015C0120E1DB
:1020700037E240E050E00E944D232093ED05A3019C
:1020800092010E944D232093EE05C501B401A301E6
:1020900092010E944D236093EF0520E030E040E87C
:1020A0005FE3C701B6010E94521920E030E04AE721
:1020B00054E40E947F220E9418197093F4056093E3
:1020C000F3056CE270E0C8010E94011ADC01119670
:1020D0002C91213421F421E02093280605C02635D7
:1020E00009F02BC2109228066CE270E001960E9463
:1020F000011A7C018C010F5F1F4FFC0181818C3222
:1021000009F4ACC042E050E0B801C1010E941C1AC1
:10211000D10112961C92C1010E9431209B01AC0199
:1021200060E876E988E990E00E943D234B015C017C
:10213000B7016D5F7F4F42E050E0C1010E941C1A61
:102140000B5F1F4F44E050E0B801C95DDE4F88814E
:102150009981C752D1400E941C1AF1011682C10117
:102160000E9431209B01AC01A2E3B0E00E946F23EA
:1021700023E030E040E050E00E94F91769017A0165
:10218000D501C401820F931FA41FB51F8093FD05C5
:102190009093FE05A093FF05B0930006C501B4011E
:1021A00020EA36E841E050E00E94F917CA01B9017F
:1021B0000E9420224B015C01C701B6010E9420222F
:1021C0002CE933E549EC56E30E947F229B01AC01E8
:1021D000C501B4010E9433184B015C016093F50501
:1021E0007093F6058093F7059093F80520E030E0B2
:1021F00048EC52E40E949F180E9411196B017C0167
:1022000084E68C9DB0018D9D700D1124072E000C6D
:10221000880B990B0E9420229B01AC01C501B401DF
:102220000E94321820E030E040E752E40E949F18FC
:102230004B015C01B601DD0C880B990B0E9420223A
:102240009B01AC01C501B4010E94331860930506DF
:102250007093060680930706909308066CE270E080
:10226000C8010E94011AFC019C012F5F3F4F818130
:102270008C3201F1833589F4809105069091060630
:10228000A0910706B0910806B05880930506909378
:102290000606A0930706B093080691819E3411F0BC
:1022A000933519F49093250605C09C3209F045C179
:1022B000109225066CE270E0C9010E94011A7C01AF
:1022C0008C010F5F1F4FDC0111968C918C3209F449
:1022D000ACC043E050E0B801C1010E941C1AF101FA
:1022E0001382C1010E9431209B01AC0160E876E9B4
:1022F00088E990E00E943D234B015C01B7016C5FCF
:102300007F4F42E050E0C1010E941C1A0A5F1F4F3C
:1023100044E050E0B801C95DDE4F88819981C75221
:10232000D1400E941C1AD10116961C92C1010E9434
:1023300031209B01AC01A2E3B0E00E946F2323E0B7
:1023400030E040E050E00E94F91769017A01D501C0
:10235000C401820F931FA41FB51F809301069093A1
:102360000206A0930306B0930406C501B40120EA57
:1023700036E841E050E00E94F917CA01B9010E9415
:1023800020224B015C01C701B6010E9420222CE9EA
:1023900033E549EC56E30E947F229B01AC01C50165
:1023A000B4010E9433184B015C016093F9057093EE
:1023B000FA058093FB059093FC0520E030E048ECA3
:1023C00052E40E949F180E9411196B017C0184E65F
:1023D0008C9DB0018D9D700D1124072E000C880B73
:1023E000990B0E9420229B01AC01C501B4010E94FF
:1023F000321820E030E040E752E40E949F184B0181
:102400005C01B601DD0C880B990B0E9420229B0118
:10241000AC01C501B4010E943318609309067093A2
:102420000A0680930B0690930C066CE270E0C801DC
:102430000E94011AFC019C012F5F3F4F81818C3269
:1024400001F1873589F48091090690910A06A091DF
:102450000B06B0910C06B0588093090690930A06BB
:10246000A0930B06B0930C069181973511F095342B
:1024700019F49093260605C09C3209F05EC01092B4
:1024800026066CE270E0C9010E94011A8C010F5F00
:102490001F4FFC0181818C3259F0C8010E940F202E
:1024A000609315067093160680931706909318068E
:1024B0006CE270E0C8010E94011A8C010F5F1F4F8F
:1024C000DC0111968C918C3259F0C8010E940F20CA
:1024D0006093190670931A0680931B0690931C064E
:1024E0006CE270E0C8010E94011AFC0121812C32CB
:1024F000E9F001960E940F200E9418196B017C01DF
:1025000020E137E240E050E00E944D232093F205A5
:10251000A30192010E944D232093F105C701B6014A
:10252000A30192010E944D236093F005CF5DDE4F21
:10253000F881C152D140F111ACCAC45DDE4FE880D0
:10254000CC52D140C35DDE4FF880CD52D1405FC147
:1025500067E672E081E293E00E9455024091ED054A
:1025600050E060E070E02AE081E293E00E946A02BD
:102570008AE30E9426024091EE0550E060E070E0A0
:102580002AE081E293E00E946A028AE30E94260226
:102590004091EF0550E060E070E02AE081E293E0D6
:1025A0000E946A028EE20E9426024091F305509139
:1025B000F40560E070E02AE081E293E00E946A02A4
:1025C00081E293E00E948D036FE672E081E293E086
:1025D0000E9455024091F20550E060E070E02AE070
:1025E00081E293E00E946A028FE20E9426024091FB
:1025F000F10550E060E070E02AE081E293E00E94A3
:102600006A0266E772E081E293E00E9455026091FF
:10261000F00581E293E00E9491036AE772E081E2B3
:1026200093E00E9455026091050670910606809124
:1026300007069091080644E00E94B30265E872E044
:1026400081E293E00E9455026091090670910A06AA
:1026500080910B0690910C0644E00E94B30281E247
:1026600093E00E948D038090050690900606A0904E
:102670000706B0900806C0900906D0900A06E090C0
:102680000B06F0900C0620E030E0A901C501B40172
:102690000E94192287FD03C009E013E006C00EEA7C
:1026A00011E0B7FAB094B7F8B094C501B4010E9434
:1026B0001119CF5DDE4F688379838A839B83C15272
:1026C000D140CF5DDE4F28813981C152D140B9015F
:1026D000330F880B990B0E9420229B01AC01C5018E
:1026E000B4010E94321820E030E44CE156E40E942C
:1026F0007F220E94AE190E9411197F936F93CE5DC5
:10270000DE4F3881C252D1403F93CF5DDE4F6881AA
:10271000C152D1406F931F930F93A8E8B2E0BF93CB
:10272000AF933F922F920E94451AB101CE018F5371
:102730009F4F0E94151A0FB6F894DEBF0FBECDBF93
:1027400020E030E0A901C701B6010E94192287FDEF
:1027500003C009E013E006C00EEA11E0F7FAF094B6
:10276000F7F8F094C701B6010E9411194B015C0102
:10277000072E000C880B990B0E9420229B01AC01B4
:10278000C701B6010E94321820E030E44CE156E463
:102790000E947F220E94AE190E9411197F936F93AD
:1027A0009F928F921F930F93A8E9B2E0BF93AF93CC
:1027B0003F922F920E94451AB101CE018F539F4F35
:1027C0000E94F61968EA72E081E293E00E94A80391
:1027D000BE016F537F4F81E293E00E94A8030FB6C2
:1027E000F894DEBF0FBECDBFC15EDE4FE880CF5193
:1027F000D140C05EDE4FF880C052D14008C067EBC8
:1028000072E081E293E00E94A803E12CF12CC45D08
:10281000DE4FE882CC52D140C35DDE4FF882CD520C
:10282000D140CEC80E941C04009102011091030106
:10283000F801EA5EFE4F4081518162ED70E0C8010F
:102840000E94D903882309F49AC08AE0E8E4F1E001
:10285000D10101900D928A95E1F7FE01E55BFF4FF2
:1028600084E1DF011D928A95E9F743E150E0CB5DF9
:10287000DE4F6881C552D140C75DDE4F7881C952B5
:10288000D140C10109960E941C1AF101019000205B
:10289000E9F7319782E2808344EF51E0B101C8014A
:1028A0000E94FE07882309F46AC06801BEE0CB0ECF
:1028B000D11C6FEC70E0C6010E946120892B09F0E9
:1028C0005EC06CEC70E081E293E00E943102B701DF
:1028D00081E293E00E94A803B7017801E8EEEE1AC6
:1028E000EEEFFE0AD7018D919C910E94A803F7019B
:1028F000808191810E948D03D7018D919C91DC0193
:10290000ED91FC910190F081E02D6AE1099568EC70
:1029100072E081E293E00E94A803F801858584506B
:10292000823060F440E068EC70E0C8010E947B07F0
:1029300040E068EC70E0C8010E947B0740E060E185
:1029400077E2C8010E947B076BEC72E0C6010E942F
:102950002B1A892BA1F040E068EE73E0C8010E94B9
:102960007B0761ED72E0C6010E940C1A892B39F4D5
:1029700081E293E00E948D0365EF70E006C081E282
:1029800093E00E948D036CED70E081E293E00E9481
:10299000C70381E293E00E948D0381E293E00E94ED
:1029A00004020C944B0CF701C0804801FAEE8F1A18
:1029B000FEEF9F0AD4014D915C9162EC70E0C8017A
:1029C0000E94D903882309F475C0F4014081518124
:1029D00068EB70E0C8010E94D903D82E882309F45F
:1029E00069C06FEA70E081E293E00E9431026C2DD1
:1029F00081E293E00E94910366EA70E05801F8EEEC
:102A0000AF1AFEEFBF0AD5018D919C910E94310251
:102A10006C2DF501808191810E94910340E068EE68
:102A200073E0C8010E947B075801FEE0AF0EB11CA5
:102A3000B50181E293E00E94A8036FE970E0C5014F
:102A40000E946A20009781F16CE270E006960E9475
:102A5000011A009749F1FC01319650E040E0252F22
:102A600030E02F3131050CF5842F90E0DF010D901F
:102A70000020E9F71197AE1BBF0B8A179B0708F0E0
:102A8000A8C1DF01A80FB91F8C918C3209F4A1C134
:102A9000823241F0A1EEB0E0AC0FBD1FA20FB31F18
:102AA0008C935F5F4F5FDBCFD12CC8010E94D107B1
:102AB000D11018C060EB71E081E293E00E94A8039E
:102AC0008CE0E3EEF2E0DE01AF5EBE4F01900D92CE
:102AD0008A95E1F7AE014F5E5E4FCE018F5F9E4F4C
:102AE000FC010EC0FE01EF51FF4FDE01AF5FBE4F94
:102AF000CF01409621912D93E817F907D9F713C01C
:102B0000DA012D91AD01DC012D93CD01C65DDE4FC3
:102B100028813981CA52D1404217530789F7148658
:102B200015861686178681E293E00E948D0361ED7B
:102B300071E081E293E00E94A8039E012F5F3E4F67
:102B4000C15EDE4F39832883CF51D140B90181E284
:102B500093E00E94A80381E293E00E948D0381E24A
:102B600093E00E948D0369EE71E081E293E00E94A0
:102B7000A803D701FC90F4014081518165E970E020
:102B8000C8010E94D903882309F4C4C0D4014D911F
:102B90005C916BE870E0C8010E94D903882309F4B6
:102BA000B9C062E870E081E293E00E9431026F2DCB
:102BB00081E293E00E9491039801285E3E4FCF5D31
:102BC000DE4F39832883C152D14069E770E0D901D3
:102BD0008D919C910E9431026F2DCF5DDE4FE88177
:102BE000F981C152D140808191810E94910340E0DE
:102BF00068EE73E0C8010E947B077801FEE0EF0EEB
:102C0000F11CB70181E293E00E94A80362E770E043
:102C1000C7010E946A20009709F47CC006966BE009
:102C2000D62E6CE270E00E94011A009709F472C07F
:102C30000196DA94D110F5CF0E9413206C01CB5D80
:102C4000DE4FF982E882C552D140A12CB12CAC14E0
:102C5000BD04C1F12EEFA216B10489F1CF5DDE4FA4
:102C6000A881B981C152D1408D919C91DC01ED9137
:102C7000FC910480F581E02D0995892B41F3CF5D0E
:102C8000DE4FE881F981C152D14080819181DC0120
:102C9000ED91FC910680F781E02D0995CB5DDE4F2B
:102CA000E881F981C552D1408193CB5DDE4FF98334
:102CB000E883C552D140FFEFAF1ABF0AC8CF5EEF1D
:102CC000C52ED12CF801EC0DFD1D1686C8010E9401
:102CD000D107F70101900020E9F731976F01CE1875
:102CE000DF0831E4C316D10418F040E4C42ED12C1F
:102CF000A601B701CE0101960E941C1AE1E0F0E0A6
:102D0000EC0FFD1FEC0DFD1D1082B70181E293E079
:102D10000E94A80381E293E00E948D03B12C8CE015
:102D2000F82E90E3E92E24E6D22E3AE0C32ED40109
:102D30004D915C9168E670E0C8010E94D903882338
:102D400059F1EFEEF2E0DE01AF5EBE4F8F2D019044
:102D50000D928A95E1F7C75EDE4FE882C951D140F6
:102D60008B2D6D2D0E94D917892F6C2D0E94D9179C
:102D7000805DC65EDE4F8883CA51D140905DC55EDE
:102D8000DE4F9883CB51D14040ED57E0BE016F5EDE
:102D90007E4FC8010E94FE07B394B4E1BB12C7CFB7
:102DA000C15EDE4FE881CF51D140CB5DDE4FE8837D
:102DB000C552D140C05EDE4FF881C052D140C75DE0
:102DC000DE4FF883C952D1408E010F5F1F4F0C9424
:102DD000C70CE1EEF0E0EC0FFD1FE20FF31F1082D5
:102DE00064CECF92DF92EF92FF92E1E2F3E01382A2
:102DF000128288EEC82E83E0D82EE12CF12CC482FA
:102E0000D582E682F7828AE691E09183808385EC21
:102E100090E09587848784EC90E09787868780ECA4
:102E200090E0918B808B81EC90E0938B828B82EC95
:102E300090E0958B848B86EC90E0978B868B118E3F
:102E4000128E138E148E20E047E068E08CE396E04B
:102E50000E943708EDEEF5E010923B0610923A061C
:102E60001092B304109237061092B20488E394E0F3
:102E70009093B1048093B0048EEB93E09093370469
:102E80008093360410922A0614AE1582148213829F
:102E900012821182108212AE11AE10AE13AE1782E2
:102EA000168214AA15AA16AA17AA10AA11AA12AA5B
:102EB00013AA14A615A616A617A610A611A612A642
:102EC00013A614A215A216A217A210A211A212A252
:102ED00013A214861586168617861086118612860A
:102EE00013868CE396E0909339068093380620E0B1
:102EF00045E066E08EEC95E00E943708E4EBF4E0F4
:102F000013821282C482D582E682F7828AE791E038
:102F10009183808384E0848785E192E09093C20569
:102F20008093C1051092C4051092C3051092C60586
:102F30001092C5051092CD051092CC051092C705D0
:102F400080E192E09093C9058093C8058DE092E0FE
:102F50009093CB058093CA05EBE5F6E016821782C5
:102F60001086118612861386148615861686178695
:102F7000108A118A128A138A148A158AFF90EF9098
:102F8000DF90CF900895CF93DF93C2EAD1E0D09342
:102F9000CF05C093CE058EEC95E00E941709D09323
:102FA0003D06C0933C068CE396E0DF91CF910C94F4
:102FB0001709991B79E004C0991F961708F0961B12
:102FC000881F7A95C9F78095089597FB072E16F408
:102FD000009407D077FD09D00E94181807FC05D08F
:102FE0003EF4909581959F4F0895709561957F4F20
:102FF0000895052E97FB1EF400940E94101857FDAB
:1030000007D00E944D2307FC03D04EF40C941018F7
:1030100050954095309521953F4F4F4F5F4F089504
:1030200090958095709561957F4F8F4F9F4F089534
:10303000AA1BBB1B51E107C0AA1FBB1FA617B707DE
:1030400010F0A61BB70B881F991F5A95A9F78095FA
:103050009095BC01CD010895EE0FFF1F0590F491EE
:10306000E02D09945058BB27AA270E944A180C94B7
:1030700003230E94F52238F00E94FC2220F039F44C
:103080009F3F19F426F40C94F2220EF4E095E7FB2E
:103090000C94EC22E92F0E94142358F3BA1762070C
:1030A00073078407950720F079F4A6F50C9436236E
:1030B0000EF4E0950B2EBA2FA02D0B01B901900153
:1030C0000C01CA01A0011124FF27591B99F0593F97
:1030D00050F4503E68F11A16F040A22F232F342FDF
:1030E0004427585FF3CF469537952795A795F0402D
:1030F0005395C9F77EF41F16BA0B620B730B840B42
:10310000BAF09150A1F0FF0FBB1F661F771F881FF9
:10311000C2F70EC0BA0F621F731F841F48F4879551
:1031200077956795B795F7959E3F08F0B0CF939543
:10313000880F08F09927EE0F9795879508950E94BC
:10314000B3180C9403230E94FC2258F00E94F5222D
:1031500040F029F45F3F29F00C94EC2251110C94BB
:1031600037230C94F2220E94142368F39923B1F3BD
:10317000552391F3951B550BBB27AA27621773079D
:10318000840738F09F5F5F4F220F331F441FAA1F31
:10319000A9F335D00E2E3AF0E0E832D091505040ED
:1031A000E695001CCAF72BD0FE2F29D0660F771F9B
:1031B000881FBB1F261737074807AB07B0E809F081
:1031C000BB0B802DBF01FF2793585F4F3AF09E3F06
:1031D000510578F00C94EC220C9437235F3FE4F314
:1031E000983ED4F3869577956795B795F7959F5F49
:1031F000C9F7880F911D9695879597F90895E1E095
:10320000660F771F881FBB1F621773078407BA07F3
:1032100020F0621B730B840BBA0BEE1F88F7E0954E
:1032200008950E9418196894B1110C9437230895D9
:103230000E941C2388F09F5798F0B92F9927B75107
:10324000B0F0E1F0660F771F881F991F1AF0BA954A
:10325000C9F714C0B13091F00E943623B1E008954F
:103260000C943623672F782F8827B85F39F0B93F41
:10327000CCF3869577956795B395D9F73EF49095FD
:103280008095709561957F4F8F4F9F4F08950E9455
:10329000F52220F019F00E94FC2250F40C94F22246
:1032A0000C943723E92F0E94142388F35523B1F39C
:1032B000E7FB6217730784079507A8F189F3E92FE5
:1032C000FF2788232AF03197660F771F881FDAF7C8
:1032D000952F5527442332F091505040220F331F31
:1032E000441FD2F7BB27E91BF50B621B730B840B42
:1032F000B109B1F222F4620F731F841FB11D31971F
:103300002AF0660F771F881FBB1FEFCF91505040E8
:1033100062F041F0882332F0660F771F881F9150CA
:103320005040C1F793950C949B19869577956795B6
:103330009F5FD9F7F7CF9F3F31F0915020F48795E9
:1033400077956795B795880F911D9695879597F90D
:1033500008950E945B2208F48FEF08950E94D91906
:1033600030F09F3710F40C9437230C94BE190C9452
:103370009B190E945B22880B990B0895882371F496
:10338000772321F09850872B762F07C0662311F4FE
:1033900099270DC09051862B70E060E02AF09A9535
:1033A000660F771F881FDAF7880F9695879597F92C
:1033B00008950E941C23A0F0BEE7B91788F4BB272C
:1033C0009F3860F41616B11D672F782F8827985FF5
:1033D000F7CF869577956795B11D93959639C8F384
:1033E000089581E090E0F8940C94C023FB01DC0187
:1033F0000D900020E9F7119701900D920020E1F760
:103400000895FC018191861721F08823D9F7992727
:1034100008953197CF010895FB01DC018D91019052
:1034200080190110D9F3990B0895FB01DC0101907B
:103430000D920020E1F70895FB01DC01415050405E
:1034400048F001900D920020C9F701C01D92415033
:103450005040E0F70895FB0151915523A9F0BF01B9
:10346000DC014D9145174111E1F759F4CD0101906F
:10347000002049F04D9140154111C9F3FB01411164
:10348000EFCF81E090E001970895AEE0B0E0EBE48B
:10349000FAE10C9488230D891E8986E08C831A83B7
:1034A00009838FEF9FE79E838D83AE01475E5F4F59
:1034B0006F89788DCE0101960E94811A2F813885FF
:1034C000F801E20FF31F10822E96E4E00C94A4237F
:1034D000AEE0B0E0EEE6FAE10C948A2385E08C835E
:1034E0008B899C899A838983AE01495E5F4F6D8980
:1034F0007E89CE0101960E94D31D2E96E2E00C94A7
:10350000A623ACE0B0E0E7E8FAE10C947A237C0172
:103510006B018A01FC0117821682838181FFBDC184
:10352000CE0101964C01F7019381F60193FD85913F
:1035300093FF81916F01882309F4ABC1853239F47F
:1035400093FD859193FF81916F01853229F4B70135
:1035500090E00E94601FE7CF512C312C20E02032F8
:10356000A0F48B3269F030F4803259F0833269F480
:1035700020612CC08D3239F0803339F4216026C0AF
:103580002260246023C0286021C027FD27C030EDC1
:10359000380F3A3078F426FF06C0FAE05F9E300D0F
:1035A0001124532E13C08AE0389E300D1124332E7F
:1035B00020620CC08E3221F426FD6BC1206406C04F
:1035C0008C3611F4206802C0883641F4F60193FD70
:1035D000859193FF81916F018111C1CF982F9F7DBC
:1035E0009554933028F40C5F1F4FFFE3F9830DC00F
:1035F000833631F0833771F0833509F05BC022C028
:10360000F801808189830E5F1F4F44244394512C1D
:10361000540115C03801F2E06F0E711CF801A08052
:10362000B18026FF03C0652D70E002C06FEF7FEF11
:10363000C5012C870E94171F2C0183012C852F7731
:10364000222E17C03801F2E06F0E711CF801A08025
:10365000B18026FF03C0652D70E002C06FEF7FEFE1
:10366000C5012C870E940C1F2C012C852068222E5E
:10367000830123FC1BC0832D90E048165906B0F44B
:10368000B70180E290E00E94601F3A94F4CFF50108
:1036900027FC859127FE81915F01B70190E00E9490
:1036A000601F31103A94F1E04F1A5108411451044F
:1036B00071F7E5C0843611F0893639F5F80127FF36
:1036C00007C060817181828193810C5F1F4F08C0A8
:1036D00060817181072E000C880B990B0E5F1F4FC4
:1036E0002F76722E97FF09C0909580957095619501
:1036F0007F4F8F4F9F4F2068722E2AE030E0A40149
:103700000E94B11FA82EA81844C0853729F42F7E27
:10371000B22E2AE030E025C0F22FF97FBF2E8F367F
:10372000C1F018F4883579F0B4C0803719F08837C3
:1037300021F0AFC02F2F2061B22EB4FE0DC08B2D13
:103740008460B82E09C024FF0AC09F2F9660B92E4E
:1037500006C028E030E005C020E130E002C020E1F2
:1037600032E0F801B7FE07C06081718182819381E8
:103770000C5F1F4F06C06081718180E090E00E5F9A
:103780001F4FA4010E94B11FA82EA818FB2DFF7780
:103790007F2E76FE0BC0372D3E7FA51450F474FEAD
:1037A0000AC072FC08C0372D3E7E05C0BA2C372DEA
:1037B00003C0BA2C01C0B52C34FF0DC0FE01EA0DC8
:1037C000F11D8081803311F4397E09C032FF06C0BB
:1037D000B394B39404C0832F867809F0B39433FD77
:1037E00013C030FF06C05A2CB31418F4530C5B18E6
:1037F000B32CB31468F4B70180E290E03C870E94D8
:10380000601FB3943C85F5CFB31410F43B1801C08E
:10381000312C34FF12C0B70180E390E03C870E9456
:10382000601F3C8532FF17C031FD03C088E790E080
:1038300002C088E590E0B7010CC0832F867859F06C
:1038400031FF02C08BE201C080E237FD8DE2B7019B
:1038500090E00E94601FA51438F4B70180E390E067
:103860000E94601F5A94F7CFAA94F401EA0DF11D4B
:103870008081B70190E00E94601FA110F5CF332036
:1038800009F451CEB70180E290E00E94601F3A94A3
:10389000F6CFF7018681978102C08FEF9FEF2C96BC
:1038A000E2E10C94962320FD09C0FC0123FD05C034
:1038B00022FF02C07383628351834083089544FDD5
:1038C00010C046FD10C0DB01FC01AA0FBB1FEE1F9C
:1038D000FF1F1094D1F76A0F7B1F8E1F9F1F31E0CF
:1038E00003C033E001C034E0660F771F881F991FC3
:1038F0003150D1F7620F711D811D911D08950F93F5
:103900001F93CF93DF938C01C8010E94221FEC010B
:1039100097FD08C00E945820892BB1F7B801CE014D
:103920000E94981FCE01DF91CF911F910F910895B2
:10393000A1E0B0E0EEE9FCE10C9480238C01C62EFE
:103940007A0129830E94221FAC01552729814B321D
:10395000510521F04D32510569F42068CA94C11017
:1039600002C080E076C0C80129830E94221F2981FD
:1039700097FDF7CF322F3D7FD32E322F307349F58D
:10398000803339F5BB24BA94BC0C09F44EC0C8018D
:1039900029830E94221F298197FD47C0382F3F7D30
:1039A000383569F48D2D8264D82ECA94CA94CC20FF
:1039B000E1F1C8010E94221F97FF0BC036C026FF0D
:1039C00004C02D2D2260D22E03C03D2D3261D32E96
:1039D000CB2C812C912C540120ED280F283080F025
:1039E000D4FE04C0B8010E94981F1CC02A3040F0C9
:1039F000D6FEF8CF2F7D3FEE320F363098F72750A6
:103A00004D2DC501B4010E945F1C4B015C018D2D41
:103A10008260D82ECA94CC2059F0C8010E94221F7F
:103A200097FFDACFD1FC04C09CCF812C912C54019C
:103A3000D7FE08C0B094A09490948094811C911CEF
:103A4000A11CB11C2D2DB501A401C7010E94531C5E
:103A500081E02196ECE00C949C23A1E2B0E0E3E34A
:103A6000FDE10C947E235C017A01CE0101966C018C
:103A700080E2F60111928A95E9F7F501838040E032
:103A800050E0912C712C70E0A1E0B0E0F90183FCD2
:103A9000859183FE81918F01982F9F01811103C031
:103AA00080E090E07CC08E3519F44115510549F154
:103AB000E72FF0E0E417F5073CF48D3559F18D322E
:103AC00019F4772001F103C0711001C0982E892FDD
:103AD0008695869586958601080F111D892F87701A
:103AE0003D0101C0660C8A95EAF7F80180818629BC
:103AF0008083991559F0991510F49F5FE8CF915084
:103B0000E6CF71E004C07724739401C0712C4F5F3D
:103B10005F4FBCCF772019F08E8180628E83711148
:103B200003C09924939416C0F6019E012F5D3F4F68
:103B3000808180958193E217F307D1F7F2CFE114EA
:103B4000F10429F0F7018083C70101967C016150DF
:103B5000912CF9F0C50169A30E94221F69A197FD6C
:103B600016C0282F269526952695F601E20FF11D01
:103B7000208130E0AC014770552702C0359527956C
:103B80004A95E2F720FDDBCFB5010E94981F911006
:103B900087CFE114F10411F0F7011082C801A1965A
:103BA000EEE00C949A234F925F927F928F929F92B5
:103BB000AF92BF92CF92DF92EF92FF920F931F933B
:103BC000CF93DF931F92CDB7DEB76C012B015A0163
:103BD000FC0117821682712CF601F380F201F3FCCE
:103BE0008591F3FE8191382F2F01882309F4F3C0CA
:103BF00090E039830E9458203981892B21F0C60139
:103C00000E947F1CE9CF353241F4F201F3FC35917B
:103C1000F3FE31912F01353269F4C60139830E94D8
:103C2000221F398197FDD5C03817B1F2B6010E9425
:103C3000981FD1C03A3239F4F3FC3591F3FE31913B
:103C40002F0151E001C050E0420110E020ED230FB0
:103C50002A3090F45260612F70E080E090E040E202
:103C600059830E945F1C162FF401F3FC3591F3FE7B
:103C700031914F015981EACF052F232F240151FFA4
:103C800003C0111102C0A7C01FEF383619F03C362F
:103C900059F011C0F401F3FC2591F3FE21912F019D
:103CA000283649F4052F08600460F201F3FC2591E1
:103CB000F3FE21912F01222309F48DC0622F70E0C1
:103CC00085E892E029830E94011F2981892B09F44C
:103CD00082C000FD07C0F501E080F180C5010296B9
:103CE0005C0102C0E12CF12C2E3651F4F601468124
:103CF000578160E070E0202FC7010E94531C6CCFF9
:103D0000233691F401FF11E0C6010E94221F97FDA6
:103D100060C0E114F10429F0F7018083C701019626
:103D20007C01115089F751C02B3559F49201A7013C
:103D3000612FC6010E942D1D2C01892B09F045C061
:103D40003FC0C60129830E947F1C298197FD41C085
:103D50002F3659F128F4243631F1293649F127C09C
:103D6000233769F02537F9F022C0E114F10429F076
:103D7000F7018082C70101967C01115071F0C601E4
:103D80000E94221F4C0197FD08C00E945820892BD9
:103D900061F3B601C4010E94981FE114F104A9F077
:103DA000F701108212C0006203C0006101C000640C
:103DB000202FA701612FC6010E94981C811105C008
:103DC000F6018381807329F406C000FD05CF73944A
:103DD00003CF772019F0872D90E002C08FEF9FEF7F
:103DE0000F90DF91CF911F910F91FF90EF90DF9097
:103DF000CF90BF90AF909F908F907F905F904F90AB
:103E00000895FC010590061621F00020D9F7C001A5
:103E100008953197CF010895FC01059061507040DD
:103E20000110D8F7809590958E0F9F1F0895FC0183
:103E30006150704001900110D8F7809590958E0FD9
:103E40009F1F0895CF93DF93EC012B8120FF33C098
:103E500026FF0AC02F7B2B838E819F8101969F8333
:103E60008E838A8190E029C022FF0FC0E881F9810A
:103E70008081082E000C990B009719F420622B8387
:103E80001AC03196F983E8830EC0EA85FB8509954F
:103E900097FF09C02B81019611F080E201C080E1FB
:103EA000822B8B8308C02E813F812F5F3F4F3F8342
:103EB0002E83992702C08FEF9FEFDF91CF91089556
:103EC0000F931F93CF93DF93FB01238121FD03C049
:103ED0008FEF9FEF28C022FF16C0468157812481B3
:103EE00035814217530744F4A081B1819D012F5FB2
:103EF0003F4F318320838C93268137812F5F3F4F43
:103F00003783268310C0EB01092F182F0084F18519
:103F1000E02D0995892BE1F68E819F8101969F8383
:103F20008E83812F902FDF91CF911F910F91089554
:103F3000FB01238120FF12C026FD10C08F3F3FEF01
:103F4000930761F082832F7D20642383268137814C
:103F50002150310937832683992708958FEF9FEFEA
:103F60000895FA01AA27283051F1203181F1E8940F
:103F70006F936E7F6E5F7F4F8F4F9F4FAF4FB1E05C
:103F80003ED0B4E03CD0670F781F891F9A1FA11D57
:103F9000680F791F8A1F911DA11D6A0F711D811D58
:103FA000911DA11D20D009F468943F912AE0269F1D
:103FB00011243019305D3193DEF6CF010895462F7C
:103FC0004770405D4193B3E00FD0C9F7F6CF462F5D
:103FD0004F70405D4A3318F0495D31FD40524193C6
:103FE00002D0A9F7EACFB4E0A69597958795779583
:103FF0006795BA95C9F700976105710508959B010A
:10400000AC010A2E06945795479537952795BA9592
:10401000C9F7620F731F841F951FA01D089566279F
:1040200077270C94A120FC0188279927E8942191F7
:104030002032E9F3293010F02E30C8F32B3241F052
:104040002D3239F4689404C00E949920820F911D8A
:10405000219120532A30C0F31EF4909581959F4FF3
:1040600008951F93FC0199278827BC01E8941191BA
:104070001032E9F3193010F01E30C8F31B3251F042
:104080001D3249F4689406C00E948420610F711D9E
:10409000811D911D119110531A30B0F33EF490958B
:1040A0008095709561957F4F8F4F9F4F1F91089519
:1040B00091110C94FE21803219F089508550C8F777
:1040C0000895FB01DC018D91059080190110D9F351
:1040D000990B0895FB0155915523A9F0BF01DC010F
:1040E0004D9145174111E1F759F4CD01059000209C
:1040F00049F04D9140154111C9F3FB014111EFCF3A
:1041000081E090E001970895592F482F372F262FEF
:10411000660F771F881F991F660F771F881F991FCB
:10412000620F731F841F951F660F771F881F991FCB
:1041300008957AE0979F902D879F802D910D1124EF
:104140000895A0E0B0E0E7EAF0E20C947E23EC01F1
:104150007B016115710519F0DB018D939C938E0134
:104160000F5F1F4F7880872D90E00E945820892B89
:1041700011F0E801F4CFBDE27B1205C00F5F1F4FC5
:104180007980C1E008C0EBE27E1204C08E010E5FB0
:104190001F4F7980C0E06801F1E0CF1AD10843E0F9
:1041A00050E069E972E0C6010E940122892BF1F416
:1041B000680122E0C20ED11C45E050E064E972E0E3
:1041C000C6010E940122892B21F4680187E0C80EF4
:1041D000D11CE114F10419F0D701CD92DC92C11188
:1041E000FFC060E070E080E89FE703C143E050E07B
:1041F00061E972E0C6010E940122892B51F4E114A9
:10420000F10409F4F2C00E5F1F4FF7011183008320
:10421000ECC0680160E070E0CB0100E010E0F60166
:10422000D0EDD70DDA3058F52C2F2260622E2C2FCE
:104230002870C2FF05C0211128C00F5F1F4F25C085
:10424000222311F001501109A5E0B0E09B01AC015F
:104250000E946F234B015C01880C991CAA1CBB1C9B
:10426000C501B4016D0F711D811D911D6839A9E94A
:104270007A078A07A9E19A0740F0C66005C0DE3FC9
:1042800051F4C3FD44C0C8606C2EBFEFCB1ADB0AEB
:104290007080C62DC4CF2D2F2F7D2531C1F54081D3
:1042A0004D3211F4C06106C04B3221F0319621E04D
:1042B00030E006C03296D60111964C9122E030E0F3
:1042C000A0EDA40FAA3018F0E21BF30B20C040E0D1
:1042D00050E04038BCE05B075CF49A01220F331FCA
:1042E000220F331F420F531F440F551F4A0F511DFA
:1042F0003196DF0111972C91A0EDA20FAA3048F35F
:10430000C4FF03C0519541955109040F151FC1FF0A
:1043100007C0E114F10421F03197D701ED93FC932C
:104320000E941E22C370C33019F06B017C0106C0CD
:104330006B017C01F7FAF094F7F8F09420E030E09C
:10434000A901C701B6010E941922882309F445C0BA
:1043500017FF06C0119501951109C0EBD2E002C00C
:10436000C8ECD2E05E01B8E1AB1AB1084601BE2D3F
:10437000AF2D90E2E92EF12C0E151F0584F0FE0101
:104380002591359145915491B4018B2F9A2F0E941C
:104390007F224B01B82FA92F0E191F09EDCF2497AB
:1043A000F594E794CA15DB0539F76401EB2EFA2E74
:1043B0008E2D880F8F2D881F8F3F49F020E030E031
:1043C000A901C701B6010E941922811106C082E22B
:1043D00090E09093F2068093F106C701B60109C000
:1043E00060E070E080E89FEF04C060E070E080EC87
:1043F0009FE7CDB7DEB7EEE00C949A239927882784
:104400000895FB01DC014150504088F08D918134CA
:104410001CF08B350CF4805E659161341CF06B35BB
:104420000CF4605E861B611171F3990B0895881B73
:10443000FCCF0E945B2208F481E00895E89409C053
:1044400097FB3EF490958095709561957F4F8F4FC7
:104450009F4F9923A9F0F92F96E9BB279395F695DD
:10446000879577956795B795F111F8CFFAF4BB0F5B
:1044700011F460FF1BC06F5F7F4F8F4F9F4F16C0BF
:10448000882311F096E911C0772321F09EE8872F49
:10449000762F05C0662371F096E8862F70E060E005
:1044A0002AF09A95660F771F881FDAF7880F96957E
:1044B000879597F90895990F0008550FAA0BE0E822
:1044C000FEEF16161706E807F907C0F012161306D6
:1044D000E407F50798F0621B730B840B950B39F416
:1044E0000A2661F0232B242B252B21F408950A267C
:1044F00009F4A140A6958FEF811D811D08950E94AA
:1045000092220C9403230E94F52238F00E94FC2290
:1045100020F0952311F00C94EC220C94F22211243B
:104520000C9437230E94142370F3959FC1F3950FC9
:1045300050E0551F629FF001729FBB27F00DB11D27
:10454000639FAA27F00DB11DAA1F649F6627B00DB7
:10455000A11D661F829F2227B00DA11D621F739FA0
:10456000B00DA11D621F839FA00D611D221F749FAE
:104570003327A00D611D231F849F600D211D822FF5
:10458000762F6A2F11249F5750409AF0F1F088231C
:104590004AF0EE0FFF1FBB1F661F771F881F915049
:1045A0005040A9F79E3F510580F00C94EC220C94EA
:1045B00037235F3FE4F3983ED4F38695779567956C
:1045C000B795F795E7959F5FC1F7FE2B880F911D73
:1045D0009695879597F9089597F99F6780E870E019
:1045E00060E008959FEF80EC089500240A94161669
:1045F000170618060906089500240A9412161306D1
:10460000140605060895092E0394000C11F488235E
:1046100052F0BB0F40F4BF2B11F460FF04C06F5F7A
:104620007F4F8F4F9F4F089557FD9058440F551F50
:1046300059F05F3F71F04795880F97FB991F61F024
:104640009F3F79F087950895121613061406551F9B
:10465000F2CF4695F1DF08C0161617061806991F07
:10466000F1CF86957105610508940895E894BB27FC
:1046700066277727CB0197F90895DB018F939F93E6
:104680000E946F23BF91AF91A29F800D911DA39FA8
:10469000900DB29F900D11240895A1E21A2EAA1B2D
:1046A000BB1BFD010DC0AA1FBB1FEE1FFF1FA217E2
:1046B000B307E407F50720F0A21BB30BE40BF50BDF
:1046C000661F771F881F991F1A9469F76095709568
:1046D000809590959B01AC01BD01CF0108950E948A
:1046E000B123A59F900DB49F900DA49F800D911DA7
:1046F000112408952F923F924F925F926F927F9272
:104700008F929F92AF92BF92CF92DF92EF92FF92E1
:104710000F931F93CF93DF93CDB7DEB7CA1BDB0B8D
:104720000FB6F894DEBF0FBECDBF09942A88398832
:1047300048885F846E847D848C849B84AA84B98439
:10474000C884DF80EE80FD800C811B81AA81B98145
:10475000CE0FD11D0FB6F894DEBF0FBECDBFED0159
:104760000895A29FB001B39FC001A39F700D811D4A
:104770001124911DB29F700D811D1124911D08956A
:1047800011E0C7E6D1E004C0FE010E942C1821967A
:0A479000C836D107C9F7F894FFCF2F
:10479A00CE05B4042C0A2C0A456D70747900000009
:1047AA0000000000000000000000000000000000FF
:1047BA0000000000000000000000000000000000EF
:1047CA0000000000000000000000000000000000DF
:1047DA00000000000000000041542B434D47533DA8
:1047EA00220000000000000000000000000000009D
:1047FA0000000000000000000000BD019201FB095A
:10480A00D909ED090402000000002A0692013606C1
:10481A001E0612060606000000002D0A92012D0A45
:10482A002D0A2D0A2D0A000000002D0A920100000F
:10483A0000005B069201AF06C70642065A062D0023
:10484A004469646E27742066696E6420534D532050
:10485A006D65737361676520696E20736C6F74216F
:10486A00005265636569766564206D657373616777
:10487A00652066726F6D3A20004D657373616765D6
:10488A002072656365697665642066726F6D207350
:10489A00656E6465723A0024504D544B3331342CA2
:1048AA00302C312C302C312C302C302C302C302C1C
:1048BA00302C302C302C302C302C302C302C302C0E
:1048CA00302C302C302A32380024504D544B32329E
:1048DA00302C313030302A314600245047434D4481
:1048EA002C33332C312A36430024475047474100A2
:1048FA00244750524D43000A54696D653A200044DA
:10490A006174653A20002F3230004C6F636174691C
:10491A006F6E3A20002C20006C61743A20257325B2
:10492A00642E253034640A006C6F6E673A20257352
:10493A0025642E2530346400526561642066726FE6
:10494A006D204750533A004E6F2067707320666996
:10495A00782E006C61743A005E5A002B434D47531F
:10496A00004F4B002B434D54493A2022534D222CE1
:10497A002564003133353238353737333130004129
:10498A00542B434D47443D303030006E616E006910
:10499A006E66006F7666000D0A0041544900415464
:1049AA002B474D4D00464F4E4120526561647900B8
:107E0000112484B714BE81FFF0D085E080938100F7
:107E100082E08093C00088E18093C10086E0809377
:107E2000C20080E18093C4008EE0C9D0259A86E02C
:107E300020E33CEF91E0309385002093840096BBD3
:107E4000B09BFECF1D9AA8958150A9F7CC24DD24C4
:107E500088248394B5E0AB2EA1E19A2EF3E0BF2EE7
:107E6000A2D0813461F49FD0082FAFD0023811F036
:107E7000013811F484E001C083E08DD089C08234E0
:107E800011F484E103C0853419F485E0A6D080C0E4
:107E9000853579F488D0E82EFF2485D0082F10E0AE
:107EA000102F00270E291F29000F111F8ED06801E7
:107EB0006FC0863521F484E090D080E0DECF843638
:107EC00009F040C070D06FD0082F6DD080E0C81688
:107ED00080E7D80618F4F601B7BEE895C0E0D1E017
:107EE00062D089930C17E1F7F0E0CF16F0E7DF06D8
:107EF00018F0F601B7BEE89568D007B600FCFDCFD4
:107F0000A601A0E0B1E02C9130E011968C91119780
:107F100090E0982F8827822B932B1296FA010C0160
:107F200087BEE89511244E5F5F4FF1E0A038BF0790
:107F300051F7F601A7BEE89507B600FCFDCF97BE46
:107F4000E89526C08437B1F42ED02DD0F82E2BD052
:107F50003CD0F601EF2C8F010F5F1F4F84911BD097
:107F6000EA94F801C1F70894C11CD11CFA94CF0C13
:107F7000D11C0EC0853739F428D08EE10CD085E9AC
:107F80000AD08FE07ACF813511F488E018D01DD067
:107F900080E101D065CF982F8091C00085FFFCCF94
:107FA0009093C60008958091C00087FFFCCF809118
:107FB000C00084FD01C0A8958091C6000895E0E648
:107FC000F0E098E1908380830895EDDF803219F02E
:107FD00088E0F5DFFFCF84E1DECF1F93182FE3DFCA
:107FE0001150E9F7F2DF1F91089580E0E8DFEE27F6
:047FF000FF270994CA
:027FFE00040479
:0400000300007E007B
:00000001FF